:1004000000008231082A01347E1482317E100900F6
:1004100088310B28D82AA2238231E9238231890B23
:100420000D2A8E31E7268231003A031D3E2AE4224E
:100430008F31712782318A00403F0A008231003AB1
:100440000319412AE82282310738F6220130F001EF
:100450008B31582382312200C0013E2A49080319FA
:10046000362A490886008701811B3E2AF001C123F4
:100470008B3122232200C9000430C0002200400832
:1004800008002200C101C10A3608370403192B2ACB
:100490000330C000A0302300EF00D3238231E701F6
:1004A000E3238231031D2E2AE4228F31712782310A
:1004B0008A00403F0A008231003A0319642AE82288
:1004C00082310238F6228231023022003D2A490868
:1004D00003196F2A490886008701811B3E2A2C08D0
:1004E000031DA22A29002E082100E2000130250068
:1004F00060072100E30000302500613D2100E40099
:1005000000302500623D2100E50000302500633DFC
:100510002100E600A030E70024006708E70A210078
:10052000E8000C308F31712782318A00403F0A0089
:100530008231013A0319A22AE82282310338C1002C
:10054000CB01CC012200490A86008701EF228231CB
:100550002600A80221006C082600A93B21006D0896
:100560002600AA3B21006E082600AB3B2200490A68
:100570008600EF2282312200A80221006C082200AE
:10058000A93B21006D082200AA3B21006E08220031
:10059000AB3B03303D2ADB23823101302200B6021F
:1005A0000030B73BC001C00A3E2A0230AC00262A08
:1005B000220040088400053004020318D52A88313F
:1005C0000435003E8200080029002E08F0000A349D
:1005D00001302200AC0026004108F0390800010873
:1005E0002100EB00EC01ED01EE010800C100273015
:1005F000CB00CC010800942BA2238231E923823165
:10060000890BFE2A8E31E7268231003A031D9F2B8B
:100610002300EB01EB0A220036083704031D132BDD
:100620002300EB019F2B0130B6020030B73B0230B4
:100630002300EB00220048080319232B48088600FA
:100640008701811B9F2BDB238231D3238231A03092
:10065000E6012300EF000330EB00E3238231031DAA
:10066000352B2300EB01EB0A9F2B04302300EB001A
:10067000220048080319412B480886008701811B86
:100680009F2B29002E082100BF00250063082100B0
:10069000C300250062082100C20025006108210076
:1006A000C100250060082100C000A030C400240063
:1006B0006608E60A2100C50008308F3171278231B3
:1006C0008A00403F0A008331013A0319782B023037
:1006D0002200AC0026004108F0390338C100013087
:1006E000CB01CC01F001F00A8B3158238231102B61
:1006F000F001F00AC1238B31222382312200C8008D
:1007000003302300EB00CB23823140302200A802CB
:100710000030A93BAA3BAB3B9F2B023022006A244E
:100720008B3158238231102B23006B088400053055
:10073000040203188D2B903104350C3E82002300F7
:100740006B080800260031082500E3002600320867
:100750002500E200260033082500E10026003408C9
:100760002500E000260036082200B70026003708E2
:100770002200B600F7003708F8000930F901FA0145
:10078000080023006F08F100FF39031D0130F2005B
:100790004030F300013440302600A8020030A93B6D
:1007A000AA3BAB3B08002200AB01AA010230A90022
:1007B000A8012400080001302500E0070030E13DD9
:1007C000E23DE33D080022002B082A042904280406
:1007D0000800F735F80DF90DFA0D0800F5002200B4
:1007E00048080319F82B480886008701811B080078
:1007F00049080319002C490886008701811B08005D
:100800004108F6005E2482310830C0016424823140
:10081000A800413FA900423FAA00433FAB0001307E
:10082000AC000330C1007508013A0319272C033AC4
:1008300003192A2C013A03192F2C073A0319332CD8
:10084000013A0319372C7A3A03193D2C562C023001
:10085000AC0008000130F001F00A8B31582B023057
:100860006A248B31582B0130F0018B31582B023028
:10087000AC000130F0018B31582B8E31CA26823109
:10088000572482310230CC017606031D512C2B08EF
:100890002A042904280401300319522CF0018B3159
:1008A000582B0130F001F00A8B31582B0800410819
:1008B000F0390538C1002030CB000800FF30BE0001
:1008C0002300EB0122000800203E86000330870051
:1008D000403F0800AC000130F001F00A08002D3064
:1008E000CC005708FD39031DA02C57363F390907A6
:1008F0000907203ED200D3000430D30652088600F8
:100900008701010C890C0F390D3A031D9F2C6030B3
:10091000860022005208023E84008501003F21002B
:10092000CD00013FCE004D0884004E088500083000
:10093000CF0012001E00CF0B992C90311D28402EA5
:10094000FD3057052100CD00043A031D08007D2D20
:10095000520886008701413F2100CA00C700C80134
:10096000480823006402031DB92C21004708230016
:1009700063020318BE2C63082100CA0021004A0844
:100980002300E302031CE4032100C9014A084902D1
:100990000318DB2C23006008860004308700210048
:1009A0004908683E84008501000881002300E00AB0
:1009B0002100C90AC62C2300630864040319F12C22
:1009C0006D268431683083268431520886005308AE
:1009D000011BED2C86004830962E860008308701DA
:1009E000962E6D2684316030832684319B26843197
:1009F0002300650866040319022DAA268A00403FD9
:100A00000A008531E21322004608031D0800002E6B
:100A10003D000E122200AF1B222D2300E21F1C2DD1
:100A200002302200D00023006E08031D182D40253F
:100A30002200CB01CA0108002200530A860060266A
:100A40008F31612F2000E01F352D2200D001D00A08
:100A500023006D08031D2E2D402584312200CB017B
:100A6000CA014608031D0800002E02302200D000F3
:100A7000530A860060268431C13F9B2684312F2D86
:100A8000ED01EE01023022005006031D5A2D530ADB
:100A900086000830870181006830F100F2015308B8
:100AA000023E86007108C03F7208C13F53088600AD
:100AB0004830962E310820006702031D632D220066
:100AC00030082000660203186C2D67082200B10070
:100AD000200066082200B000D02584316830F10083
:100AE000F2013208023E860087017108C03F720899
:100AF000C13F320886004830912E2200320886001D
:100B000000308701011B0130FD000430B2060830BF
:100B10004706031D982D200062087F393D0096008E
:100B200016080319952D1030962D04302200C700A9
:100B3000500BC02D68302100C700C80122003208C8
:100B4000023E8600870121004708C03F4808C13F98
:100B5000D025843102305506031DB32D320886009E
:100B600004308701912E7D08031DBB2D32088600BD
:100B700048308701912E3208860008308701912E77
:100B80002300E21FCD2D650866040319CC2DAA268B
:100B90008A00403F0A008531E2132200D00108009C
:100BA0000830F00000302200310208300319300212
:100BB0000318E62D3008F0005508031DE22DD5017D
:100BC000D50AE62D550BE62D0230D5007008B0028F
:100BD000031CB103320A8600870170088100683067
:100BE000D4002F1CF62DFC2D7426843170080319B7
:100BF0000800F42D74268431700803190800FA2DBA
:100C000022004A08031D08000130CA004B08031DDA
:100C100008000130CB0002305006031D172E320AA7
:100C2000860087018101320886004830912E500BE2
:100C300008002400E8012200520A860008308701DB
:100C400081006030F000F1015208A326843152087F
:100C50008600043081005208860081172400E801D4
:100C6000E80A2200530A8600083081006030F00054
:100C7000F1015308A3265308860080308100080044
:100C800002305006031D452EA82CD0012400680810
:100C9000031D5E2E6D26843160302100CB00CC0117
:100CA00022005308023E860021004B08C03F4C083A
:100CB000C13F2200530886000C30962EE801080040
:100CC0000830870181006030F300F4015308023ED0
:100CD00086007308C03F740808002200530A86008B
:100CE00008308701810008005408860087012D081C
:100CF00084002E08850000088100AD0A0319AE0AA1
:100D0000D40AF00308002100C700C80122005308DC
:100D1000023E860021004708C03F4808C13F22002C
:100D200008008100320886008117080081005308FE
:100D3000860081170800530886000430810053089C
:100D4000860081170800023E86007008C03F7108C7
:100D5000C13F08000530E03E860001308700413F7A
:100D6000080047278B31222386312200C90033082F
:100D7000C800F6268631BF012300EA01EA0A2500F1
:100D8000E801E9012600AD012D08031D0800453EDC
:100D900086000130870081018F317F2786318F31B6
:100DA000712786318A00403F0A008631003A0319D4
:100DB000F12E2E08F00021088A0020080A00863152
:100DC000003A0319F12E0130F800F9012D0AEA2E3C
:100DD000F835F90D890BE82E78082500E804790824
:100DE000E9048E31CA268631AD0AC42EFF30C10116
:100DF000BE002300EB012200C001080020006008B3
:100E00001F39013A031D08006408031D08003E2F26
:100E100062086304031D080066086704031D0800D8
:100E20002200F62686312300EA01EA0A2500650839
:100E3000F80078080319222F6508F9008600870159
:100E4000811B272F47278B3122232200C9008030A6
:100E50002200AF00080062086304031D0800660357
:100E60006704031D0800E80168302200AD00C130AE
:100E7000AE01B001B00AB101AF0008006108FE3A4E
:100E800003192B2F013A0319082F462F0800A03011
:100E9000F001F1004030F201F30001342800630852
:100EA0002600E000280062082600DF002800610814
:100EB0002600DE00280060082600DD006008210012
:100EC000C20026005F082100C10026005E08210044
:100ED000C00026005D082100BF006E2F4208F3000D
:100EE0004108F2004008F1003F08F000B730F70178
:100EF000F6001B30F500F40193277308C600720852
:100F0000C5007108C4007008C300FF30C307C43DAA
:100F1000C53DC63D430823009B009C0121004408B9
:100F200023009C000800F801F901FA01FB01730895
:100F30007204710470040319C92FFC01FC0AF31B2D
:100F4000A62FF035F10DF20DF30D9E2FF835F90DAA
:100F5000FA0DFB0D73087702031DB82F7208760295
:100F6000031DB82F71087502031DB82F7008740295
:100F7000031CC32F7008F4027108F53B7208F63B9E
:100F80007308F73B7814F336F20CF10CF00CFC0B01
:100F9000A62F7B08F3007A08F2007908F1007808A0
:100FA000F00008009031662890316728903154286D
:100FB00090316728903154289031552890315A2823
:100FC0009031792890315C2890315B2890316828E5
:100FD00090316E289031542836341E341634103433
:100FE00026341E34033402343E341134FF340734C3
:100FF0007D341034003400340034003400340034C4
:1010000082310B2A8231442A8231CB2A8231502A02
:041010008231672A98
:101016002D308400013085002B309E3130268831FA
:10102600E03084000130850010309E313026883152
:1010360060308400023085000C309E3130268831C5
:10104600E0308400023085000E309E313026883133
:1010560020308400033085004C309E3130268831A4
:1010660060308400043085000A309E313026883195
:10107600B33084000430850008309E313026883134
:10108600203084000530850040309E31302688317E
:101096002400FF30EC00ED00EE00EF00EC308400A1
:1010A60087308500A03086000430870013309E31DB
:1010B6002A2688317E10200060282200EE01EF01EA
:1010C600EF0AED01862188316D28EC208831003049
:1010D600CB208831A6218831203022004702031C0C
:1010E60068283D008E186A282200C5016E0803197B
:1010F6008028EC2088312200EE0181218831003AD7
:10110600031989280130CB208831C62824006408B9
:101116006504031DC6282000110E890C0139210023
:10112600EF0022006D08031D9A2801309B2800302D
:1011360021006F0503100319B1288B278831031985
:10114600A9280130CB2088311430AD280030CB20BF
:10115600883128302400E400E501BA288B2788313D
:101166000319B7280330A5280230CB208831003078
:1011760023009E1801302200EF0000302000911A53
:1011860001302200ED0085218831F12088316D285B
:10119600F000DD2822000E118E15080022000E1523
:1011A6008E11080022000E158E15080022000E1161
:1011B6008E1108007008003A0319D928013A03195C
:1011C600CD28033A0319D128013A0319D528D9287D
:1011D600080022000C1221000C1208002030220008
:1011E6004702031C08003D008E1808002200430831
:1011F600031D09294030F800203051218831BD00F7
:101206003D0803190929C301C30AC4014308031988
:101216001E2923009E1C1E2922004408203E86000B
:101226000430870001084A2188312200C40A440894
:101236003D060319C3012000911E30293F302200CC
:10124600420203183029A72788313E2188318100C0
:101256002200C20AA7278831810122004E08031DF9
:101266003C29420803193C294208F000A030EF2728
:10127600C2019E31912E23009D1C46291D1219087C
:10128600F0001D1648291908F00070080800F00043
:1012960023009E1C4B2970089A000800FA00CD0115
:1012A6003C0803195B293C0886008701811B7F29BE
:1012B6003C0A8600870178080102031866293C0863
:1012C6008600413FF800CD0178084D0203187A29BF
:1012D6004D087A07F9008600043087004D08203E45
:1012E60084000230850000088100CD0A6729832723
:1012F600883122232200BC004D08080022000C0E73
:1013060001390800AB2B3C302100990490302700AE
:101316009B00942188310230CB208831EC20883123
:10132600AE2A21000E118E110E16903023009D005C
:1013360024309E00E2309B009C0104309C00083063
:101346009F001908080022004708031DB7293D0021
:101356008E0192011630BF2788318E19B4298E1559
:10136600B0292200C701C70A4703031DC4293D004F
:101376008E1AC4299001920112141216023022000C
:10138600C7003D001019121DCB291011D82788312E
:101396003D008E1CD1292000121108001018121CC5
:1013A600DA29AE2288310430C7003D001010101A29
:1013B600121EDF29552788313D00101FFA29121FFA
:1013C600EC2973302100BF00C001AD2788315522BA
:1013D60088313D0010138523883122004C08031DF7
:1013E600CC034C08031DFA298631002688313D00BE
:1013F600901A921E002A902388319018921C0E2A69
:10140600FF302100BF007F30C000AD278831552254
:1014160088313D0093010430220047020318162A42
:101426002000121108003D00921D522A2100D10110
:101436004F2A0F082200D700570C2100D000D00CED
:10144600500C0F392200D1003D009011220057198F
:101456002F2A5108593E312A5108553E860003303D
:101466008700013081065108031D3D2A84316F240F
:101476008831492A72302100BF005730C001C100AF
:101486000130C200C301C401552288312100043055
:10149600D10A51020318522A3D0090191C2A200035
:1014A60012110800862A240064086504031908003E
:1014B6000130E4020030E53B08007E239E31FC2E1D
:1014C6008631FE2688319E313E2E23006A08031D92
:1014D600742A0130F001F00A582388310130F001F6
:1014E600582B25006508FB0021004206031D7D2AB6
:1014F6007B084106031D08008731472788312223D0
:101506002200C90008004008003A03198E2A7F3AD3
:101516000319A82AAD2A3F08013A0319602A033A9B
:101526000319AD2A013A0319632A063A0319682AF0
:10153600773A0319AD2A013A0319562A073A0319CD
:10154600AD2A013A0319AD2AAD2A3F08FF3A03191D
:10155600AD2AAD2A0800210012113D009301900129
:1015660098010E30F1009930F000F2017008860003
:10157600710887008101F00A0319F10A0330F20AA3
:101586007202031CB92A16303D00BF278831F301C9
:10159600730809070907203E860000308701C03F0F
:1015A600C13FC23FC33F1030F30A7302031CCB2A6C
:1015B6003D000E1796010E120E1390112200AF0178
:1015C6002300E201E301E4013D009019E02A013025
:1015D6002200CA00CB002300ED01EE012400E90140
:1015E600F3017308323E86000130870081017308DB
:1015F600E43E86000230870081017308B3278831F4
:101606007308593E860004308101F30A7302031CF5
:10161600F42A28302200B20016303D00980020003F
:10162600A3016030A2000830A1000430A000A0177A
:101636002200D6012400EA012200C7010800F600B4
:1016460070080319292BCB2788312B2BD4278831F7
:1016560087000108F7007708031900347108F400C1
:101666007F307205F5007708023E86008701740810
:10167600C03F7508C13F770A860073088100770866
:101686008600403081057708860081157708860038
:10169600811770080319522BCB278831532BD42777
:1016A60087000430810677080800F3007308031DDD
:1016B600692B86316D2688316030F100F2015308BE
:1016C600023E86007108C03F7208612F9327883159
:1016D600203E7107F4008600870101157408860014
:1016E60081179327243E7107F400860001157408BC
:1016F6008600811708001E30F40001309F3139271B
:101706008631B12E24006908031D0800EA0A6A081A
:10171600031D0800FF30EA000800181CA92B220050
:1017260052088600803087010106031DA72B320868
:10173600860084300106031DA72B520886000C3054
:1017460081005208860081173D001810901208008B
:10175600203022004706031D08004108003A0319FD
:10176600BF2B013A0319502C033A0319582C013A9E
:101776000319692C8E2C080049080319C72B490840
:1017860086008701811B0800EC016C08203E86005C
:10179600033087006C08A03E8400850100088100A4
:1017A6001F30EC0A6C02031CC82B490A86001F3046
:1017B60087010106031D452C5530260020065330AF
:1017C6000319210642300319220643300319230662
:1017D600031D452C2300EA01EA0A26002D08031DF5
:1017E6003D2C11302E0203183D2C2E0803193D2CDA
:1017F6002C083F39031D3D2C53302200A3004230F4
:10180600A2005330A1005530A00004308431642476
:101816008831A400413FA500423FA600433FA700F0
:10182600A801A901AA01AB01AC0184315E2488316B
:101836000330C00126002F060319252CF030C10500
:10184600CB01CC01AC1F2B2C2200C101C10A2E2CCE
:1018560002302200C100A12788310319352C22004D
:10186600BF01382C2200BF01BF0A26002F08220024
:10187600BE0008000130F001F00A5823883101301B
:10188600F001582B0130F001F00A5823883101305D
:10189600F00158232300EA01080094248831FF3A16
:1018A600031D08000330C100080094248831FF3A64
:1018B600031D08002C08031D552C2B082A04290497
:1018C60028040319552C0230AC00552C3308EA00C5
:1018D6006A080319742C3308EB0086008701811B04
:1018E600080020309B2788310D30F3000130222379
:1018F60088312200C80049080319862C4908860049
:101906008701811B8C2C87314727883122232200AF
:10191600C900C10108000230C101AC000130F0016C
:10192600582B7F27883171278A00403F0A008C3167
:10193600003A0319A62C26002D08453E86000130E4
:101946008700010BB92C77278831AB2CE635E70DDC
:10195600890BA92CE609E70966082500E805220097
:1019660067082500E905F4248831F12C77278831AA
:10197600BE2CE635E70D890BBC2C25006808220035
:101986006605E8002500690822006705E900680881
:101996006904031DF02C29002E08F00021088A0096
:1019A60020080A008C31003A0319B62C77278831B3
:1019B600DE2CE635E70D890BDC2C66082500E804ED
:1019C600220067082500E90426004108F039063898
:1019D600C1002830CB00CF278831192522003E08C8
:1019E600080022003E08003A0319112D033A031994
:1019F600072D113A0319102D0C3A0319112DE33A4C
:101A06000319102D162D0800CA2688314108F03911
:101A16000238C1003A30CB00CC01192D0130AC00A0
:101A2600FF30BE0008007F308331EE2B22003E08D7
:101A3600003A0319092E033A0319C32D113A031963
:101A46004F2D083A0319E02D013A0319062E053ADF
:101A56000319002E3B3A03197C2D0D3A0319412D2B
:101A6600023A03194B2D053A0319062ED23A0319E9
:101A76001F2E033A0319782E782E08008231FB2296
:101A86008831003A031D0800FF302200BE0008001E
:101A960082310A228831442D3F0B522D472D2600D4
:101AA60032082200B700260033082200B600F700ED
:101AB6003708F800F901FA01E7268831003A031DD4
:101AC60008002430F000F1017B268831A030860022
:101AD600013087007330840099308500243022005D
:101AE600D80012001E00D80B742DFD302200BE0057
:101AF600080029002E08F000023071278A00403FB6
:101B06000A008D3173082200E4007208E3007108B0
:101B1600E2007008E10029002E08F0000430712769
:101B26008A00403F0A008D3170082200DD007108EE
:101B3600DE00DF01E00164082300A0002200630844
:101B46002300A100220062082300A20022006108EF
:101B56002300A300220060082300A40022005F08DF
:101B66002300A50022005E082300A60022005D08CF
:101B76002300A7000830C52788317B268831782DB9
:101B86003F0BC62D472D1230B600B701F000F1010C
:101B96007B268831E5016508A03E86000130870076
:101BA60065083F3E8400033085000008810012303E
:101BB600E50A65020318782DCE2D03302300A00018
:101BC600A1018231E422883171278A00403F0A0050
:101BD6008D31003A031DF22D2200DA01F52D8030F9
:101BE6002200DA00DB015A082300A200A301043018
:101BF600C52788317B268831782D260084315724E5
:101C06008831CF278831B9278831472DF701F80168
:101C1600F901FA01E7268831003A031D080026007B
:101C260041080F39063A031D1C2E22002C0B1C2ED0
:101C3600472DCA268831062E48080319272E48083C
:101C460086008701811B080026002B08031D352E00
:101C56002A08031D352E29084030031D362E28027A
:101C6600031C3C2E40302200DC008331CB2388311C
:101C7600442E28082200DC002600A801A901AA019A
:101C8600AB0122005C08D800D90159083702031DB0
:101C96004E2E58083602031C552E5C08B602031C4D
:101CA600B7036B2EE5015C08650203186B2E360838
:101CB60037040319632E0130B6020030B73B692E94
:101CC6006508A03E8600013087008101E50A562E90
:101CD600A0309B2788315C08F3000130222388312D
:101CE6002200C800A1278831452D7F308331EE2B95
:101CF6007008F2007108F300F401F501750826007A
:101D06002B02031D902E74082A02031D902E7308C1
:101D16002902031D902E7208280203189C2EB9274B
:101D2600260029082200B700260028082200B6004F
:101D36000800220037087102031DA32E3608700220
:101D46000318A92E7108B7007008B6003608F2000D
:101D56003708F300F401F50126002808F6002908E3
:101D6600F7002A08F8002B08F9007208F602730833
:101D7600F73B7408F83B7508F93B79082200AB007D
:101D86007808AA007708A9007608A80008002600A7
:101D96003F0880397038BF00F030BF13C001C1055D
:101DA6000A30C1124113C113C201C301C401C501E6
:101DB600C600C701C801C901CA01CB01CC01CD01CA
:101DC600CE01CF01D00108007A087904780477049F
:101DD600031DF02EFD01FD0AF12EFD0122003F0B31
:101DE600042F7D0B042F00342200410BFF2E2A30D6
:101DF6003E06031D0034152F2A303E060319003413
:101E0600152F7A0826002B06031D132F79082A069C
:101E1600031D132F78082906031D132F770828069C
:101E26000319F72E26002B087A02031D242F2A08F1
:101E36007902031D242F29087802031D242F280860
:101E46007702FB01031CFB0A0230220041062A30FE
:101E5600031D412F3E060319352F7D08031D352F1F
:101E660005304F2F3F0B3A2FFC01FC0A502F7D0BFC
:101E76003E2F04304F2F7B0B332F3C2F3E06031D86
:101E8600462F03304F2F3F0B492F372F7D0B4C2FFB
:101E96004E2F7B0B442F0230FC007C088331EE234F
:101EA6007C080800121510128E1424007530E90102
:101EB600E90AEA01973145278831552AC13F530877
:101EC60086000C3081005308860081173208860090
:101ED600043081003208860081170800A03E860083
:101EE60004308700413F080001302200E600E70188
:101EF60026002D0A2200080029002E08F0000634CC
:101F06002030F001F1000230F2004030F3000334DB
:101F160023009E1C03140030093D22006F050800B3
:101F26007008F100F135F135F135730EF03908001E
:101F3600F001F00AF1000130F200080026002B083B
:101F46002A042904280408004208A03E860003301B
:101F560087000800C101C201C301C30AC401080009
:101F6600553E860003308700810108002200A80143
:101F7600A901AA01AB01080091009F3097007B30B0
:101F8600920008002200B600B701F000F101080037
:101F96007608323E860001340130CC012200AC00C6
:101FA60008007608E43E8600023424007430E90115
:101FB6002100BF000030C001C101C201C301C4013C
:101FC600552288313D008E101211101DEC2F101174
:101FD600E82F2400EA010800F1004E08031D08005E
:101FE60071082500EC0070082200CF002400EB01E8
:101FF600EB0A2200CE01CE0A0800913195299131D3
:10200600AF299131D4299231212A92315E2A923117
:10201600852A8231FC2A83310B2B83311A2B83319B
:102026002D2B8331382B1030F301F201F1000330F0
:10203600F00008002200D501C6012300ED01EE01E3
:102046002400E8012200D00132088600043087010E
:102056008113B2063208860004308113B206530893
:1020660086008113AF01B001B1012300E201E30153
:10207600E40144209031033045278A3155228531C9
:10208600082D2000600E890C0339031D0800610825
:1020960084000D3004020318080087310435D23E4F
:1020A6008200080022000830AF17C7000800D32EB0
:1020B6002D2B56302200AD000130AE002F14B0019A
:1020C600B00AAF170800C22F132E6408693E22001B
:1020D600AD00033060282200AF1720006408693E77
:1020E6008600033087006208810008000230452719
:1020F6008A31552A6608031D8A286508031D8A2821
:102106006408031D8A2802306302031C0034660833
:10211600031D00346508031D0034043063021030CB
:10212600643B031800340230B3279031031DA52801
:102136006808F00067089D2301346808F000670806
:10214600B32301340330B32790310319A028EA01E1
:1021560021006A08EA0AE9004030690203180134DE
:102166006708860001308700E70A0108932190314D
:10217600003A03190134AB28FA002227903186234E
:1021860090317808031DF4287A088600013087000C
:1021960048308400993085002B30F90012001E006B
:1021A600F90BD1287A082B3E8600013087001730BC
:1021B60084009A3085000B30F90012001E00F90BDE
:1021C600E0287A08363E86000130870023308400F6
:1021D6009A3085000830F90012001E00F90BEF282E
:1021E600080007307802031C08007A088727903118
:1021F6007A089C2FFA0022279031862390310630E8
:102206007802031C080006307806031D2B297A087D
:10221600383E860001308700F53081007A08393E65
:1022260086008B3081007A083A3E8600163081009F
:102236007A083B3E8600EA3081007A083E3E8600F8
:1022460081017A083F3E860001308101810A08003B
:102256007A08860001308700033084009A308500B2
:102266001030F90012001E00F90B35297A0887276D
:1022760090317A089C2F4308420441044004031D10
:1022860049294508F8004408FD200134400341046B
:1022960042044304031D54294508F8004408BF209E
:1022A60001340230B8279031031D5E294508F80035
:1022B60044089C2501340330B8279031031D682952
:1022C6004508F8004408BE25013444082227903109
:1022D6008623903104302100400641044204430421
:1022E600031D0134922190313F3E3F3945020318C8
:1022F60001340A30F0009830F1004508FB00063042
:10230600FC01FB35FC0D890B84297B08F0077C0852
:10231600F13D4030F200F3014408E42501346E3407
:10232600E100FF2A0D3021006106031901340A304D
:102336006106031901343A306106031D0034230097
:10234600E801E80A2200B8012400E001E101E20107
:10235600E3012300E7010134E1300B239031003A19
:10236600031DB8292300E80100342200B80A380BFF
:10237600C029210061082200B90002303806031D79
:102386000134390EF039210061072200B90023001B
:10239600E70722001130B80139020318B5290230C7
:1023A600562AE1300B239031003A0319B529220051
:1023B600B80A380BE629210061082400E000E10193
:1023C600E201E301013421006108D900DA01DB01F1
:1023D600DC01240060082100DD00240061082100E2
:1023E600DE00240062082100DF00240063082100CB
:1023F600E0000430DD35DE0DDF0DE00D890BFD2933
:10240600572790312400E30021005B082400E200F6
:1024160021005A082400E100210059082400E000A8
:10242600043022003806031D0134240061086007C9
:102436002300E70722000330B801562AE1300B23B8
:102446009031003A0319B5292200B80A380B2F2A11
:1024560021006108031DB529023022003806031D3C
:102466000134210061082200BB002100610823001D
:10247600E70722000430B8012300E8002200E0301C
:10248600BA01F0000330F100FF30F2001030F30122
:10249600F400F5018623903122003B08031901342C
:1024A6003B0B592A05302300E800013404303B0673
:1024B60003190134B529E1300B239031003A031991
:1024C600B5292200B80A380B6D2A8E279031610E85
:1024D600F0398100023022003806031D0134B801AC
:1024E6008E2790316108810722003A08E03E860077
:1024F60001082300E7072200BA0A3A083906031D35
:102506000134552AE1300B239031003A0319B529DD
:102516002200B80A380B942A2100610EF0392300F4
:10252600E707023022003806031D0134B8012100F6
:1025360061082300E7076708031DB529E8012200A3
:102546003B08031DCE2A26005108240060072100FF
:10255600D900260052082400613D2100DA00260039
:1025660053082400623D2100DB00260054082400A5
:10257600633D2100DC005C08CA005B08C9005A08FC
:10258600C8005908C700E030CB00220039082100F6
:10259600CC00B423013404303B06031DF62A270081
:1025A60061082100D900DA01DB01DC015A08DC00F0
:1025B6005908DB00DA01D901270060082100E00094
:1025C600DF01DE01DD0157272600D40021005B086C
:1025D6002600D30021005A082600D20021005908FF
:1025E6002600D10001343B0B00349E232600D10186
:1025F600D201D301D40101342300680884000630D7
:1026060004020318013490310435003E820001347F
:10261600F0008600303087010102031C0034700888
:10262600860030308102700886000A300102700888
:102636008600031C272B870181127008860007304D
:102646008701810270088600103087010102031C91
:102656000134003422000E30AF172100C600993035
:10266600C500C70145088600460887008101C50ADE
:102676000319C60A0330C70A4702031C352B20304C
:10268600F0004030F1017627903186233D000E1789
:102696002100C80148088F31B32790314808593EB8
:1026A600860004308101C80A4802031C4D2B69309C
:1026B600F0000330F1000330762790318623903105
:1026C6003D000E1328302200B2002030D200D30085
:1026D600200062082200D6005608031D752B103014
:1026E600C700080021005630BF01BF0AC001C10063
:1026F6000130C200C301C30AC4018A315522203009
:102706002200C70008007108F7007008F6000130C3
:10271600F4020030F53B740F932B750A0319080079
:10272600760886007708870072088100F60A031982
:10273600F70A8A2B080031249031A12BAB23903164
:10274600AE23FF302400EC00ED00EE00EF000800A1
:1027560023009D17080021000E168E168831EC28DE
:1027660008004736D8001F30D805C0304705D400CA
:102776004808D5004908D6004A08D700D736D60CEF
:10278600D50CD40C24006F0821005706031DDB2B43
:1027960024006E0821005606031DDB2B24006D085D
:1027A60021005506031DDB2B24006C08210054066E
:1027B6000319EF2B31249031210057082400EF0034
:1027C600210056082400EE00210055082400ED00E3
:1027D600210054082400EC002100CC0A4C10072CE0
:1027E6002030580203180A2CA1279031D000D101BD
:1027F6004D279031D0074E08D13D802790315008A3
:10280600C03F5108BD2790314C08031DF32B2030E3
:102816005806031D08003124903121004C08031985
:10282600080020302400EC070030ED3DEE3DEF3D82
:102836002100D8014C0803190800A1279031D200C5
:10284600D3014D279031D2074E08D33D80279031D2
:102856005208C03F5308BD2790311D2CFF30210080
:10286600C400C500C6014635203E860005308700F7
:10287600403FC200413FC3004208C4054308C505A6
:102886002030C60A4602031C362C440F4D2C450A3E
:10289600031908005A2490312030F0000530F10069
:1028A600FF30F2004030F301F400F501862B893148
:1028B60081219031003A031D642C882590318924AA
:1028C600903124006C0F6F2C6D0A031D6F2C6E0A5D
:1028D60003196F0A031908006F08031D792C6E0887
:1028E600031D792C80306D02031C7D2C0530FD0004
:1028F6002E30A02C6C08FA006D08FB006E08FC0058
:102906007B2590312030FA002030D42C80301C25D5
:1029160090310030F0008030F1000030F2004025A8
:10292600903118301C259031EA30FB00C330FA0094
:10293600FA0B9B2CFB0B9B2C08002100C1000730D7
:10294600FA008030FB00FC017B259031FD037D0FF2
:10295600AD2C080000301C2590312100410886006E
:1029660005308700403FBF00413FC0003F08F000F0
:102976004008F100F201402590312100E030C10A03
:10298600C10A1C2590315E302100C0008030BF0096
:10299600BF0BCB2CC00BCB2C0000F8301C25903184
:1029A600A92CFD007A08FA03FB0002307B02031C07
:1029B600E62C02301C2590312B2790314025903192
:1029C600FD0AFD0AD52C00301C2590312B279031AD
:1029D60040259031E030FD0AFD0A1C2590312F304C
:1029E600FC00BF30FB00FB0BF62CFC0BF62C003278
:1029F600F8301C2D852590319C30F400D730F3003B
:102A0600F30B032DF40B032D4D301C259031433071
:102A16001C25903148301C25903150301C259031B2
:102A26004E30F400EB30F300F30B172DF40B172D9B
:102A36000800F10021000E12F201F11F252D2200DF
:102A46000E16272D22000E128E160330F135F000D9
:102A5600F00B2B2D003222008E120330F000F00B0B
:102A6600322D00320830F20A7202031C202D033088
:102A7600F000F00B3C2D00320800FE30F300FF3072
:102A8600F4007F30F5007008F6007108F700720850
:102A9600F800F635F70DF80D7608F3057708F40516
:102AA6007808F5057308F0007408F1007508F2005F
:102AB60021000E12F901F21F632D22000E16652D5C
:102AC60022000E128E160330F035F10DF20DF300D2
:102AD600F30B6B2D003222008E120330F300F30B42
:102AE600722D00321830F90A7902031808005E2D9B
:102AF60080301C2590317A08F0007B08F1007C08B4
:102B0600F200402D22000C160800992590318D25E3
:102B16009031FD2C0330F000F00B8F2D0032210098
:102B26000E1622008E1221008E12080023009D131D
:102B36000800F90022279031862390317808031D7A
:102B460008007908860001308700F8308100790A8C
:102B56008600FF3081007908023E8600FF30810042
:102B66007908033E8600FF3081007908043E86001E
:102B76000F3081000800FA00222790318623903119
:102B86007808031D08007A08860001308700973010
:102B96008400993085002030F90012001E00F90BE0
:102BA600D02D7A08203E860001308700B730840099
:102BB600993085002030F90012001E00F90BDF2D38
:102BC6000800F600F70072087304013003190A2E94
:102BD600F2020030F33B7708860001308700F70ADF
:102BE6007108F5007008F400F00A0319F10A840070
:102BF600750885000008C03F89080319092EE62DCF
:102C060077088600013087008101F70A0130F20259
:102C16000030F33B720F032E730A03190800032ECC
:102C26002000620B272E60081F39031D272E220065
:102C36000330AF1720006106031D252E2300EC018B
:102C4600EC0A272E2300EC0120006208031D080071
:102C560060081F39023A031D080064080F3903197A
:102C6600080064080F39FC0004307C0203180800D1
:102C7600203022004706031D0800AF172000E41B82
:102C86004A2E7127903161279031593E4F2E7B276E
:102C9600903161279031553E860003308700010848
:102CA6002100C7004718592E48115A2E48152000F2
:102CB600E41B602E71279031622E7B2790318700AE
:102CC600210048088100033020006106031D882E7C
:102CD6002100480886008701811F7F2E2000E41B03
:102CE600782E64080F39593E7B2E64080F39553EFD
:102CF600860003308700811421004808860087017A
:102D06000115480886008117080004302100C8060E
:102D16004808860087014808811F9B2E860081137C
:102D260086000530011739278A31552290319E2EAB
:102D360086008701011704302100C806C718A82E8F
:102D4600480886008701811FBF2E2000E41BAF2E96
:102D560064080F39593EB22E64080F39553E860075
:102D66000330870081102100A727903105303927CD
:102D76008A3155229031C02EA727200064080F39CA
:102D8600983EFC000E30FD01FD3D7C082100C5008B
:102D96007D08C60045088600460887000110080021
:102DA600803020006006031D0800C0302200AF00FE
:102DB600152FF1302200AD009930AE001230B00070
:102DC600B10108006208031DFF2E6208F0000830FA
:102DD600AD279031983069279031F1002D08F00029
:102DE600023E95279031B0002E08F1002D08F00024
:102DF600033E9527B10008002200AF010800043009
:102E060062020318FF2E6208F0000030AD279031F1
:102E1600983069272D0884002E0885000008B00028
:102E2600B101080020006308013A0319DC2E033AB9
:102E36000319E52E013A0319022FFF2E0800F000B0
:102E46000130F1004030F201F301F400F501080011
:102E56007D08860005308700403FFB00413FFC00AF
:102E66007B08F0007C08F100F2010800BF00C001F9
:102E76004808C100FF39031D0030C200C301C30A60
:102E8600C40108002100BF00C001C101C201C30185
:102E9600C4010800CB0A4B0886000108CD00CE010C
:102EA600CE00CD014D0808005D08D9075E08DA3D61
:102EB6005F08DB3D6008DC3D5C0808008700010810
:102EC6002100C800200064080F390800713D850004
:102ED600003F2200AD00013FAE00080064080F3934
:102EE600E43E86000234F201F301F400F501080025
:102EF60064080F39323E86000134CB0A5835203E2D
:102F060086000530870008003E3E860001308700B7
:102F16005530810008003A08E03E860003308700FD
:102F260021000800840071080318710A8500000852
:102F360008003F3E8600AA30810008004B08860044
:102F46000330870001080800480886003B308701E7
:102F560081050800F101F035F10D700784000800C5
:102F660063066404650466040800400641044204DE
:102F760043040800C13FD80ACC03CC030800200054
:102F8600E801E901EB2F2200AF17200068142300A7
:102F96006C0BF62F2000E814F62F2200AF17F62F41
:102FA6002200AF172000E41BDB2F71279031DD2FA5
:102FB6007B27903187000108F00086008701811F7A
:102FC600F62F70088600011DF62F0130E800F62F57
:102FD60060081F390319C62F013A0319D02F033A87
:102FE6000319D32FF62F2200AF1F08006830AD005B
:102FF6000230AE012F14B000080013349A34143492
:103006009934DA349834D7349934783498343C3453
:10301600683474346D346C343E343C34683465340E
:10302600613464343E343C346D3465347434613414
:10303600203468347434743470342D346534713407
:103046007534693476343D342234723465346634EA
:1030560072346534733468342234203463346F3404
:103066006E34743465346E3474343D342234303402
:103076003B34553452344C343D342734683474343C
:103086007434703473343A342F342F3467346934DB
:1030960074346834753462342E3463346F346D346A
:1030A6002F344434663469346E346934743473347A
:1030B6006B3469342F344134543455342D3431341F
:1030C60030342734223420342F343E343C342F34E9
:1030D60068346534613464343E343C342F346834A7
:1030E60074346D346C343E34003409340234623442
:1030F6000034033401340234C03432340934043425
:1031060000340034023408340634503400340734B2
:103116000534813402344034003401340734053434
:103126000134023440340034013408340B340134A1
:1031360002340234023401340034093404340134D4
:1031460000340134023402340134003405342434AA
:103156000034203401340434243402340234053477
:103166002434063401340234053424340134003462
:10317600023407340534823403340A34003402340A
:10318600093404340234003402340A34003400347E
:103196000034073405340334023440340034003438
:1031A60007340534833402344034003400343A346E
:1031B60003344D34003469340034633400347234DB
:1031C60000346F34003463340034683400346934B6
:1031D60000347034003420340034433400346F3407
:1031E60000346D340034703400346F34003473347A
:1031F60000346934003474340034653400342034C7
:103206000034443400346534003476340034693490
:103216000034633400346534003400340034003440
:103226000034343403344D340034693400346334A8
:103236000034723400346F3400346334003468343C
:10324600003469340034703400342034003454348B
:1032560000346534003463340034683400346E342A
:1032660000346F3400346C3400346F340034673407
:1032760000347934003420340034493400346E3458
:103286000034633400342E340034EB343C34903450
:103296004D34533444344F34533435342E3430346F
:1032A600003402340834013400340134103400345C
:1032B60000340034F834013400343F340034FF3431
:1032C6000034013400340034003403341034003444
:1032D6000034003400342934323467349434C4342E
:1032E6000034803404340234203400340034003492
:1032F6004D346934633472346F34633468347034F3
:103306004D346134733473342034533474346F342D
:1033160072346134673465342034203420342034E8
:1033260030343034303431344134543455342D341F
:10333600313430342034503472346F3467340834C6
:10334600003400346034083496344C3496344C34AB
:10335600003400346034083496344C34003400347D
:10336600003400340034003452344534413444349B
:103376004D34453420342034483454344D342034CC
:10338600003400346034083496344C3496344C346B
:10339600003400346034083496344C34023400343B
:1033A6006E340034003400341A34033431340034BB
:1033B6003234003433340034343400343534003499
:1033C6003634003437340034383400343934003479
:1033D6003034003439340034393400341234013492
:1033E60000340234EF34023401340834D83404345F
:1033F60057340034013400340134023403340134C8
:103406000134003401340734FF34E6340134003427
:1034160000340034033410340034003400340034F3
:1034260004340334093404345834503452344534A3
:1034360053345334203420342034203420340034A0
:103446004634413454343134323420342034203438
:02345600003440
:103C4C000230F001F1000800FE0012001E00FE0B15
:103C5C002B2E0034640080010131890B312E00348D
:103C6C00260002306514E601E7006430E401080028
:103C7C00200060081F39013A031D0800600E890CF2
:103C8C000339013A031D080064030319792E02302D
:103C9C006406031D0800792E8B260830B000B10194
:103CAC002F142200AF1708008B269E31572E670861
:103CBC002300E400200066082300E3006030E000ED
:103CCC004E30E5000730E600E21708005D302200B8
:103CDC00AD000330AE000730B000C130B101AF0011
:103CEC0008006208572E6108003A0319522E013A57
:103CFC0003195A2E213A03195D2E013A03196C2E21
:103D0C00033A0319772E8A2E0800B3302200AD0037
:103D1C000430AE0008002300690803199A2E6908C4
:103D2C0086008701811B0800033022004E06031910
:103D3C00CE014E0803190800023A031DB32E0330BE
:103D4C00F001F00AF101F201F3018B31222323007F
:103D5C00E90003302200CE0008004E0B0800413071
:103D6C004F02031CBB2E4030BC2E4F08F900CF0273
:103D7C00A0302500EA007908F80024006B0803192C
:103D8C00CA2ED02EED269E3178080319D32EC82EBC
:103D9C00ED269E317808031DCE2E22004F08031D00
:103DAC00DF2E40307906031DDD2E0230DE2E03306F
:103DBC00CE00A030F001F00AF1000230F2007908D8
:103DCC00F30003308B3122232300E9000800250087
:103DDC006A088600023087006C0884000330850076
:103DEC0000088100EA0AEC0AF803080019279E3142
:103DFC0026000830E101E3002530E201E001DF019B
:103E0C00DE008030DD00FA017A08A03E8600033027
:103E1C00870040308101FA0A7A02031C0A2F220023
:103E2C00C201BD0108004B30E001DF01DE000830AB
:103E3C00DD01E101E201E30022001A30CD01F400C2
:103E4C00023039279E311E30F400033039278F3170
:103E5C0083279E318B3122232200BC002300E901F1
:103E6C002200CE010800F900741D3F2FF0015627E7
:103E7C009E31F41C452FF001F00A79085627790879
:103E8C00983EF5000E30F601F63D7508F700760801
:103E9C00F80077088600780887007408810008000D
:103EAC00F2002030F3007008F100F13572080907B8
:103EBC000907710709070907F307730886008701CB
:103ECC0081137008031D6F2F7208E43E86000230C8
:103EDC00732F7208323E8600013087007308810010
:103EEC0073088600870101137308043E86000117CE
:023EFC000800BC
:020000040001F9
:04000E00E4CFCEFF6E
:00000001FF
