:040000009831232DE3
:1000080070084001AE007108AD007208AC007308BA
:10001800AB007408AA007508A9007608A80077083C
:10002800A7007808A6007908A5007A08A4007B082C
:10003800A3007C08A20080314E018C1E30288C124F
:1000480001304201A4070030A53DA63DA73DC030C0
:1000580040019C00E0309D00400141084201270218
:10006800031D46284001400842012602031D462878
:1000780040013F0842012502031D462840013E0871
:1000880042012402031C13290A304001BE07003034
:10009800BF3DC03DC13D8D1A5328741454287410B7
:1000A8008F18582803145928031074185F28031848
:1000B8005F28741060287414741CAA28400146082C
:1000C800F0004708F1004808F2004908F300E8305A
:1000D800F4000330F500F601F701FF217008420132
:1000E80024074301A20071084201253D4301A300F2
:1000F80072084201263D4301A40073084201273DCE
:100108004301A50040014208F0004308F1004408FB
:10011800F2004508F300E830F4000330F500F6017A
:10012800F701FF217008420124074301A600710866
:100138004201253D4301A70072084201263D4301C3
:10014800A80073084201273D4301A90040018D1A08
:10015800AF280314B0280310031CD028FA3041013B
:100168006F020318B828EF0A6F08193A031DBE2852
:100178004201EE1641016F08FA3A0130031D0030C2
:10018800F100F0014001161AF00A7108F005031990
:10019800CF2842016E17E72841016F08023C013061
:1001A80003180030F10019306F02013003180030D5
:1001B800F0007108F0050319E6284201EE15410127
:1001C800EF01E728EF0140018F18EC280314ED2810
:1001D8000310031CFC28193041016E020318F5288E
:1001E800EE0A6E08143A031DFB284201EE14132987
:1001F80041016E08013C013003180030F1000A305B
:100208006E02013003180030F0007108F005031980
:10021800122942016E154101EE011329EE01400138
:100228002E08F0002D08F1002C08F2002B08F3002E
:100238002A08F4002908F5002808F6002708F7001E
:100248002608F8002508F9002408FA002308FB000E
:060258002208FC00090071
:10025E00400196154230FD00FD0B332900001615A6
:10026E004230FD00FD0B3929000016114230FD0011
:10027E00FD0B3F29000096114230FD00FD0B452974
:04028E000000080064
:10029200F10108307102031866294401C41B542974
:1002A200400116115629400116154230FD00FD0B82
:1002B2005829000096154230FD00FD0B5E29000012
:1002C20096114401C435F10A4A29400116154230FB
:1002D200FD00FD0B6A290000961500300C19013053
:1002E200F2004230FD00FD0B7429000096114230ED
:0E02F200FD00FD0B7A2900007208F0000800E4
:1003000040016F0844014007C3002F2141016A08E2
:100310004401C40049214401C401492144013F086A
:10032000B03EC4004921440143080F3C031C9C29F2
:100330004308C100C201AD294308F200F236F2368B
:10034000F236F2367208C2007208F000F035F0356D
:10035000F035F03570084302C1004108C40049215E
:1003600044014208103EC40049212F2141016A087E
:100370004401C400492140304401C400492108001F
:10038000400116114230FD00FD0BC42900009615F6
:100390004230FD00FD0BCA29000016154230FD0059
:0803A000FD0BD029000008004C
:1003A80040017008F100F0010830FC007108F40CFD
:1003B8000318E229FC0BDB29F10100340310E729BB
:1003C800F40C0318F107F10CF00CFC0BE4290800FD
:0E03D800F201F101F001F801F301003008001C
:1003E6007B15FB1FFD290130F300F201F101F0013D
:0803F600FA0DF20CFF300800C3
:1003FE0040012230FC00F801F901FA01FB01FC0377
:10040E000319342A0310FB0CFA0CF90CF80CF30C3C
:10041E00F20CF10CF00C031C062AFC030319262A1D
:10042E007408F80775080318750FF907760803188E
:10043E00760FFA0777080318770FFB070A2A740856
:10044E00F80775080318750FF90776080318760F65
:0C045E00FA0777080318770FFB07080067
:10046A0044013708BF003808C00080214401BC019C
:10047A003B083C0203186A2A3C083907840000300A
:10048A003A3D850020300002BE00BD0105303D0224
:10049A000318652A3E08F0000530F400D42144010F
:1004AA003D08F0070030F13D003070078400A030AD
:1004BA00713D85000008C40049214401BD0A4B2A48
:0E04CA00C40149214401BC0A3D2AC02108009A
:0C04D8003A30FD00FD0B6E2A0000080009
:1004E4002F2141016A084401C400492140304401DC
:1004F400C40049214401B8013808073C031C942A6C
:100504003808BF00C00180214401B7014401803094
:1005140037020318912AB70AC4014921882A4401E1
:08052400B80A7E2AC02108007C
:08052C00FA1FF2130030080071
:100534002F2141016A084401C4004921803044014B
:10054400C400492144013708C4004921C0210800DE
:100554004001971172224401B701B8013F30B9003C
:100564000130BA001230BB00352202304401B7001A
:10057400B8013230B9000130BA000C30BB0035226A
:1005840002304401B7005430B8006630B90001307D
:10059400BA000330BB0035227A30FB00C130FC00C6
:1005A4008130FD00FD0BD42AFC0BD42AFB0BD42A8A
:1005B400000000008D1AE02A0314E12A0310031C32
:0A05C400E52A0000DC2A9715080064
:1005CE0098304301BE000430BF002D30C000023011
:1005DE00C10041019301940195019601EC309A05F9
:1005EE00133044012D05F000700841019A04C0300B
:1005FE0044012D05F00003191A2BC0302D05F20011
:10060E000630F1007208F00071080319112BF03654
:10061E00FF3E0C2B700852018C008C170C1B192BF3
:10062E000000152B1D2B5201FC308C0541011316B9
:06063E00131593170800DC
:100644002F2141016A084401C4004921403044017A
:10065400C400492144012D08BF002E08C000802198
:100664004401B201310832020318C32B32082F07A8
:1006740084000030303D85000008003A031D442BFF
:10068400B4014D2B32082F0784000030303D850023
:1006940020300002B400B3013308043C031CBB2B1C
:1006A4003408F0000530F400D42144013308F00785
:1006B4000030F13D003070078400A030713D8500AA
:1006C4000008B5002D08023A0319912BB5196C2BBB
:1006D400B6136D2BB617B519712B3613722B36174B
:1006E4003519762BB612772BB61635197B2B3612A5
:1006F4007C2B3616B518802BB611812BB615B51880
:10070400852B3611862B361535188A2BB6108B2B74
:10071400B61435188F2B3610902B3614B12B35198F
:10072400952BB613962BB61735199A2B36139B2B8C
:100734003617B5189F2BB612A02BB616B518A42BD6
:100744003612A52B36163518A92BB611AA2BB615B9
:100754003518AE2B3611AF2B3615B61036103608B9
:10076400C400492144013608C40049214401B30AA4
:100774004E2BC40149214401C40149214401B20A58
:10078400342B2D0ABF002E08C00080214401B20181
:10079400310832020318612C32082F07840000301C
:1007A400303D85000008003A031DDA2BB401E32B29
:1007B40032082F0784000030303D850020300002CD
:1007C400B400B3013308043C031C592C3408F00072
:1007D4000530F400D42144013308F0070030F13D22
:1007E400003070078400A030713D85000008B5001A
:1007F4002D08023A0319272CB51B022CB613032C1F
:10080400B617B51B072C3613082C3617351B0C2CC2
:10081400B6120D2CB616351B112C3612122C3616A8
:10082400B51A162CB611172CB615B51A1B2C361181
:100834001C2C3615351A202CB610212CB614351A5A
:10084400252C3610262C36144F2C351B2B2CB61386
:100854002C2CB617351B302C3613312C3617B51A01
:10086400352CB612362CB616B51A3A2C36123B2C49
:100874003616351A3F2CB611402CB615351A442CB1
:100884003611452C3615B519492CB6104A2CB61418
:10089400B5194E2C36104F2C36143608C400492195
:1008A40044013608C40049214401B30AE42BC401BD
:1008B40049214401C40149214401B20ACA2BC0217F
:0208C40008002A
:1008C6002F2141016A084401C400492140304401F6
:1008D600C40049214401AE012E08033C031C962C9A
:1008E6002E08BF007330C00080214401AD012D08E1
:1008F6000A3C031C942C2E08F0000B30F400D42183
:1009060044012D08F0070030F13D053070078400E2
:100916009F30713D85000008C40049214401AD0A9D
:0A0926007A2CAE0A6F2CC0210800E5
:100930003F3044012D0541019E006C22131400003C
:10094000131CA32CA02C0C08F0000D08F1000800CB
:100950004001F801F9011030FC00710DF80DF90D9E
:100960007408F8027508031C750FF9020318BF2CF0
:100970007408F80775080318750FF9070310F00DD0
:08098000F10DFC0BAD2C080089
:100988002F2141016A084401C40049214401C401DE
:100998004921AE304401C4004921D5304401C40086
:1009A800492180304401C4004921A8304401C400D1
:1009B80049213F304401C4004921D3304401C400D7
:1009C800492141016C084401C400492140304401D7
:1009D800C40049218D304401C40049211430440128
:1009E800C400492181304401C4004921FF30440139
:1009F800C4004921D9304401C4004921F1304401DF
:100A0800C400492120304401C40049210230440176
:100A1800C400492121304401C40049214401C401D2
:100A280049217F304401C40049212E304401C400CB
:100A3800492141016D0803192A2DA0304401C40041
:100A48004921C0304401C4004921322DA13044015C
:100A5800C4004921C8304401C4004921DA304401A6
:100A6800C400492102304401C4004921DB3044015B
:100A7800C400492140304401C4004921A430440144
:100A8800C4004921A6304401C4004921C021722272
:0A0A9800AF304401B7009A220800B5
:040AA200C021080067
:100AA600A1017208031D682D7108F2007008F1009B
:100AB600F001A1157208031D682D7108F200F101FD
:100AC600A111211672080319762D2108F302031DC0
:100AD600031C7A2D0310F21B7E2DF00DF10DF20D85
:100AE600F30B6E2D7A2D0130FC00EC21812D0230A6
:0E0AF600FC00F321812D0430FC009622080044
:100B0400710DF80DF90D7408F8027508031C750FC2
:100B1400F902F00DF10D0F30FC00710DF80DF90D17
:100B24007408701C9B2DF8027508031C750FF902DC
:100B3400A02DF80775080318750FF907F00DF10DCE
:100B4400FC0B8F2D7018AC2D7408F807750803186A
:080B5400750FF907000008000D
:100B5C0040304401AF001F30B000B101B201403051
:100B6C00F0001F30F1000030F2000030F3002D08CF
:100B7C00F4002E08F500F601F701FF21700844017E
:100B8C00AF007108B0007208B1007308B2000030F9
:100B9C007302031DDB2D00307202031DDB2D0230AE
:100BAC007102031DDB2DB23070020318DE2D0D2EE9
:100BBC00B230AF020230B03B0030B13BB23B05303B
:100BCC00F00070080319F02DB236B10CB00CAF0C5C
:100BDC00FF3EE82D2F08F0003008F1003108F2003C
:100BEC003208F3000130AF020030B03BB13BB23BF6
:100BFC00700871047204730403190D2E00000000B8
:100C0C00000000000000000000000000F02D0800B3
:100C1C004001FB01FA01F9018030F800F10CF00CF5
:100C2C00031C212E7408F90775080318750FFA07B1
:100C3C000318FB0A0310F01F292E7408FA07750815
:100C4C000318750FFB07FB0CFA0CF90CF80C031CC2
:100C5C00142E7B08F3007A08F2007908F10078086A
:040C6C00F00008008C
:100C7000FB14FB1F422EFF30F300F200F100F000E6
:080C8000FA0DF20CFF30080030
:100C88007B14FB1F4F2EF201FA1FFF30F200F10018
:0A0C9800F000FA0DF20CFF30080026
:100CA2007408003A031D5E2E7508003A031D5E2E7D
:100CB200FF30F0007F30F100B62E4001FD01F90156
:100CC200F801710870040319003471087506FA00FE
:100CD200FA1BFD09FB01F51F732EF409F509F40A4D
:100CE2000319F50AF11F7A2EF009F109F00A031926
:100CF200F10A71087504FA00FA1B8F2E82257B18FF
:100D0200A22EFD1F0034F009F109F00A0319F10ABD
:100D1200F809F909F80A0319F90A0034F51F9E2E99
:100D2200F11B9A2E7108F9007008F800F101F00128
:100D3200822EF101F001F00A0034F109F009FB0AF8
:100D42007F2EF80A0319F90A74087802031D822E0D
:100D520075087902031D822EF901F801F00A0319C0
:0C0D6200F10AF11F822E0000FF3408008F
:100D6E0043304401AD00E7220230FC000830FD00A4
:100D7E00FD0BBF2EFC0BBF2E000009304401AD0051
:100D8E0098240B30F4000030F5000E267008430155
:080D9E00A0007108A10008008B
:100DA600400116160930FB001E30FC00E430FD0041
:100DB600FD0BDB2EFC0BDB2EFB0BDB2E0000512587
:100DC6006830FC00E430FD00FD0BE72EFC0BE72E3F
:100DD6000000C42442016E1EF42EAA2242016E12A5
:100DE60072224401AD01AE015C30AF000130B000AB
:100DF6000930B1002223632402304401AD00AE0164
:100E06005230AF000130B0000930B1002223440156
:100E1600AD012A30AE003030AF000130B0000130F5
:100E2600B100222302304401AD002A30AE00223048
:100E3600AF000130B0000130B10022230F30420173
:100E4600A0002730A1000F30AE002730AF000F30D2
:100E5600AC002730AD002408A8002508A900260804
:100E6600AA002708AB0024084101E6004201250834
:100E76004101E700420126084101E8004201270836
:100E86004101E9004201EE11EE126E1340014608DF
:100E9600F0004708F1004808F2004908F300E8307E
:100EA600F4000330F500F601F701FF217008420156
:100EB60024074301A20071084201253D4301A30016
:100EC60072084201263D4301A40073084201273DF2
:100ED6004301A50040014208F0004308F100440820
:100EE600F2004508F300E830F4000330F500F6019F
:100EF600F701FF217008420124074301A60071088B
:100F06004201253D4301A70072084201263D4301E7
:0E0F1600A80073084201273D4301A90008000E
:100F24004001FB0173080319CE2F7208FA00F2176F
:100F34008E30F302F31FD12FF309F30A0830730242
:100F4400031CB42FF300F10D7208F100F201083014
:100F54007302031CB42FF300F10DF1017308031D98
:100F64000310BC2F73080319BC2F0310F20CF10CEF
:100F7400F30BB72F7B1B711CC62F031CC62FF10A62
:100F84000319F20AF21BDD2FFA1FE02FF209F1090F
:100F9400F10A0319F20AE02FF201F101E02F7B14A8
:100FA400FB1FE32FF201FA1FE32FFF30F200F100E1
:100FB400FA0DF20CE32F0130FC00E52F0030FC00A9
:100FC400E52FFF30FC00FC080319E92F44267108C3
:080FD400F0007208F1000800B2
:060FDC00FB15FF300800C8
:100FE2004001971116169831002080319715420161
:040FF200EE100800F5
:101000004001FB017308031D770803195628720875
:101010007606FA007708F3077E30031C1328F302E4
:1010200003185B281628F302031C60287208F800D6
:101030007108FC007008FD00F817F6170310F201A4
:10104000F101F0011830A1007D1C30287408F00770
:1010500075080318750FF10776080318760FF20765
:10106000F20CF10CF00CF80CFC0CFD0C0310A10BB5
:101070002428F21B4028F80DF00DF10DF20DF303BA
:101080007B1B701C5228F81F5228F00A0319F10A22
:101090000319F20A031D5228F20CF10CF00CF30AAA
:1010A00003195B28FA1FF2130030642801308031E5
:1010B000EC21883164280230803138268831642858
:0C10C00004308031F3218831000008006A
:1010CC0040017008F8007108F000F101F201F30121
:1010DC00FB01FC019630F300FA01F01F7B28F809A4
:1010EC00F009F80A0319F00AFA177008F1007808E9
:0E10FC00F000F801F201803153258831080020
:10110A007C18BB28FC188C287C19E0288528A101AA
:10111A007208031DAC287108F2007008F100780803
:10112A00F000F801A1157208031DAC287108F2003D
:10113A007008F100F001A11121167208031DAC28F4
:10114A007108F200F101A11572080319CE282108CD
:10115A00F302031D031CD4280310F21BBB28F80D4D
:10116A00F00DF10DF20DF30BB228D4287B1B701C85
:10117A00DA28F81FDA28F00A0319F10A0319F20A21
:10118A00031DDA28F20CF10CF00CF30A0319E0281B
:10119A00DA280130FC008031EC218831E528023060
:1011AA00FC008031F3218831E5280430FC008031CD
:1011BA0096228831E5280830FC00803138268831AB
:0411CA000000080019
:1011CE004401AA0105302A020318F7282A08280725
:1011DE0086000030293D870020308100AA0AE928C8
:1011EE002A08280786000030293D87008101AA03BE
:1011FE002A082807AB000030293DAC000A30F40065
:10120E00F5012608F0002708F1008031A824883166
:10121E007808F0007908F1003030F00744012B080F
:10122E0086002C088700700881000A30F400F50152
:10123E002608F0002708F1008031A82488317008B4
:10124E004401A6007108A70000307106031D312964
:10125E0000307006031D34293629AA03FF28080022
:10126E00FB09FA09F909F809F80A0319F90A031929
:08127E00FA0A0319FB0A08003B
:101286007408F8027508031C750FF9027608031C2A
:10129600760FFA027708031C770FFB02F30D07306F
:1012A600FC00730DF80DF90DFA0DFB0D7408731C97
:1012B6006A29F8027508031C750FF9027608031CE3
:1012C600760FFA027708031C770FFB027729F807D7
:1012D60075080318750FF90776080318760FFA07CD
:1012E60077080318770FFB07F30DFC0B5429720DD3
:1012F600F80DF90DFA0DFB0D7408731C9029F80210
:101306007508031C750FF9027608031C760FFA029E
:101316007708031C770FFB029D29F8077508031849
:10132600750FF90776080318760FFA07770803187A
:10133600770FFB07F20D0730FC00720DF80DF90D63
:10134600FA0DFB0D7408721CB629F8027508031C09
:10135600750FF9027608031C760FFA027708031C4C
:10136600770FFB02C329F80775080318750FF907ED
:1013760076080318760FFA0777080318770FFB0726
:10138600F20DFC0BA029710DF80DF90DFA0DFB0DF0
:101396007408721CDC29F8027508031C750FF90223
:1013A6007608031C760FFA027708031C770FFB02F8
:1013B600E929F80775080318750FF9077608031861
:1013C600760FFA0777080318770FFB07F10D07303A
:1013D600FC00710DF80DF90DFA0DFB0D7408711C6A
:1013E600022AF8027508031C750FF9027608031C19
:1013F600760FFA027708031C770FFB020F2AF8070D
:1014060075080318750FF90776080318760FFA079B
:1014160077080318770FFB07F10DFC0BEC29700D0D
:10142600F80DF90DFA0DFB0D7408711C282AF80247
:101436007508031C750FF9027608031C760FFA026D
:101446007708031C770FFB02352AF807750803187F
:10145600750FF90776080318760FFA077708031849
:10146600770FFB07F00D0730FC00700DF80DF90D36
:10147600FA0DFB0D7408701C4E2AF8027508031C41
:10148600750FF9027608031C760FFA027708031C1B
:10149600770FFB025B2AF80775080318750FF90723
:1014A60076080318760FFA0777080318770FFB07F5
:1014B600F00DFC0B382A70186E2A7408F8077508A8
:1014C6000318750FF90776080318760FFA077708D9
:0814D6000318770FFB07080063
:1014DE0044012618752A40019917772A400199135D
:1014EE004401A6187D2A400119177F2A40011913BD
:1014FE0044012619852A40019916872A400199121E
:10150E004401A6198D2A400119168F2A400119127D
:10151E004401261A952A40019817972A40019813DC
:10152E004401A61A9D2A400118179F2A400118133C
:10153E004401261BA52A40019816A72A400198129D
:10154E0044012718AD2A40019616AF2A4001961283
:10155E004401A718B52A40019A14B72A40019A10DF
:10156E0044012719BD2A40019617BF2A4001961340
:10157E004401A719C52A40011617C72A40011613A0
:10158E004401271ACD2A40011814CF2A4001181001
:10159E004401A71AD52A40019814D72A4001981061
:1015AE004401271BDD2A40011815DF2A40011811BE
:1015BE0044012818E52A40011A10E72A40011A149E
:1015CE009915410164084401AD00410165084401CB
:1015DE00AE008031AE258831400199111A30FD00E0
:1015EE00FD0BF72A00001812410164084401AD00FA
:1015FE00410165084401AE008031AE2588314001BD
:10160E001816410164084401AD004101650844010A
:10161E00AE008031AE25883140019913191399120D
:10162E00191298131813981296129A1096131613DD
:08163E001810981018110800A3
:101646007408003A031D3C2B7508003A031D3C2B19
:101656007608003A031D3C2B7708003A031D3C2B05
:10166600FF30F000FF30F100FF30F2007F30F30072
:10167600D42B4001FC01F71BFC0AFD01FB01FA011A
:10168600F901F80173087204710470040319CF2B71
:1016960073087706A000A01BFD09F71F5D2BF40950
:1016A600F509F609F709F40A0319F50A0319F60A02
:1016B6000319F70AF31F6A2BF009F109F209F30976
:1016C600F00A0319F10A0319F20A0319F30A730857
:1016D6007704A000A01B8B2B4321FC1BA82BFD1F0E
:1016E600CF2BF009F109F209F309F00A0319F10AFF
:1016F6000319F20A0319F30AF809F909FA09FB09A9
:10170600F80A0319F90A0319FA0A0319FB0ACF2B77
:10171600F71FA22BF31B9C2B7308FB007208FA0021
:101726007108F9007008F800F301F201F101F00107
:10173600722BF301F201F101F001F00A0034F30912
:10174600F209F109F009FC176F2BF80A0319F90AD7
:101756000319FA0A0319FB0A74087802031D722B8F
:1017660075087902031D722B76087A02031D722B07
:1017760077087B02031D722BFB01FA01F901F801C0
:10178600F00A0319F10A0319F20A0319F30AF31FFF
:10179600722BA0012016FF34A0017C1CD32B37210D
:0417A600003E0800F9
:1017AA007408003A031DEE2B7508003A031DEE2B50
:1017BA007608003A031DEE2B7708003A031DEE2B3C
:1017CA00FF30F000FF30F1007F30F200FF30F3000D
:1017DA00902C4001770803197C2C73080319812C7B
:1017EA00720876068039FA00F217F617A101720814
:1017FA00F8007108FC007008FD007408FD02750805
:10180A00031C750FFC027608031C760FF802F80118
:10181A00FC01FD01031C182C0310F20CF10CF00C56
:10182A00F80C0130A1007708F302031C222C7E3049
:10183A002107F3070318862C272C7E302107F3078C
:10184A00031C8B2C1830FA07FD0DFC0DF80DF00D5A
:10185A00F10DF20DA10D7408F0027508031C750F45
:10186A00F1027608031C760FF202760DA104211C00
:10187A00402C7D144B2C7408F00775080318750F5B
:10188A00F10776080318760AF2077D10FA031F306B
:10189A007A05031D292C7B1B7D1C722C0310F00D6D
:1018AA00F10DF20DA10D7408F0027508031C750FF5
:1018BA00F1027608031C760FF202760D2104013933
:1018CA00FD070318FC0A0319F80A031D722CF80C09
:1018DA00FC0CFD0CF30A0319862CFA1FF81378087E
:1018EA00F2007C08F1007D08F00000308F2C0130F6
:1018FA008031EE2788318F2C02308031EC218831FB
:10190A008F2C04308031382688318F2C0830803172
:08191A00F321883100000800F0
:10192200400172087606A100F801F90173087702F6
:10193200031CB32C7708FD007308F7007D08F30041
:101942007608FD007208F6007D08F2007508FD00B9
:101952007108F5007D08F1007408FD007008F400BC
:101962007D08F00077080319302D7208FA00F2178B
:10197200F61777087302F7000319E62C083077028E
:10198200031CDC2CF7007408F9007508F4007608D3
:10199200F500F60108307702031CDC2CF70074080E
:1019A200F9007508F400F50108307702031CDC2CFD
:1019B2007A08F200302D77080319E62C0310F60C92
:1019C200F50CF40CF90CF70BDF2CA11FF32CF90921
:1019D200F409F509F609F90A0319F40A0319F50AD3
:1019E2000319F60A7908F80774080318740FF00748
:1019F20075080318750FF10776080318760FF207BA
:101A0200A11B0C2D031C1C2DF20CF10CF00CF80C7C
:101A1200F30F1C2D2A2D0318202DF809F009F109C6
:101A2200F209F80A0319F00A0319F10A0319F20A72
:101A32008030FA06242D0130FC008520322D023040
:101A4200FC008520322D0430FC0080315325883182
:101A5200322D0830FC00803138268831322D00309A
:061A6200FC00000008007A
:101A680043304401AD008031E72288310230FC0068
:101A78000830FD00FD0B3E2DFC0B3E2D00000A300A
:101A88004401AD0080319824883170084301EA0090
:101A98007108EB007108033A031D542DFF307006DE
:101AA800031D722D83304401AD008031E722883157
:101AB8000230FC000830FD00FD0B602DFC0B602D92
:101AC80000000A304401AD00803198248831700844
:101AD8004301EA007108EB00EA35EB0D6B08073AA1
:101AE800031D782DFE306A06031DC92D8031B726E7
:101AF80088314401AD018031E72288310230FC0091
:101B08000830FD00FD0B862DFC0B862D00000830EB
:101B18004401AD0080319824883170084401A40044
:101B28007108A50024084301EA004401250843017F
:101B3800EB000030F4000430F5002008F000210824
:101B4800F100803151268831662070084401A000D8
:101B58007108A1007208A2007308A3002408F0000D
:101B68002508F100662044012008F4002108F5004A
:101B78002208F6002308F7000020803192278831D8
:101B880070084301EA007108EB006A08F0006B086E
:041B9800F100080050
:101B9C008B1340019E134E018C1216167E01CA1235
:101BAC00C91640011612171697151A104F019617E1
:101BBC004301EA016A08003A031DF32D0530FB00CE
:101BCC000F30FC00F130FD00FD0BEA2DFC0BEA2D73
:101BDC00FB0BEA2D7E01CA12630000000530FB00EE
:101BEC000F30FC00F130FD00FD0BFA2DFC0BFA2D33
:101BFC00FB0BFA2D40018D1A052E0314062E031033
:101C0C00031C0B2E4301EA0A0D2E4301EA016A085C
:101C1C00193C0318122E132EE02D4F0196134E0172
:101C2C0016127E01C912CA1240019E178B1742016F
:101C3C006E168031D326883140018D1A272E03145D
:101C4C00282E0310031C2C2E0000222E4201EE1114
:061C5C00EE126E130800F9
:101C62004401A001A10143016A084401A200430109
:101C72006B084401A300803043016B06F000803002
:101C82007002031D462E00306A020318592E0130DD
:101C92004401A0000030A10043016A08003C440155
:101CA200A20043016B08031C013E4401A301A302ED
:101CB20044012208A6002308A70043016C0844013E
:101CC200A80043016D084401A900E7200630430142
:101CD200EE000030EF006F08003C031D722E6E080C
:101CE200003C03188D2E6E086C0786006F086D3D50
:101CF200870001306E02F00000306F3BF100700887
:101D02006C07840071086D3D850000088100013078
:101D1200EE020030EF3B6C2E6C0886006D088700E7
:101D2200203081004401200821040319B52E43010B
:101D3200EE01EF016E086C0784006F086D3D8500AF
:101D42000008203A031DA92EEE0A0319EF0A9B2E62
:101D52000130EE020030EF3B6E086C0786006F0820
:0A1D62006D3D87002D308100080060
:101D6C0043304401AD008031E72288310230FC0061
:101D7C000830FD00FD0BC02EFC0BC02E00000830FF
:101D8C004401AD0080319824883170084301EA0089
:101D9C007108EB007108033A031DD62EFF30700654
:101DAC00031DF42E83304401AD008031E7228831CD
:101DBC000230FC000830FD00FD0BE22EFC0BE22E85
:101DCC00000008304401AD0080319824883170083F
:101DDC004301EA007108EB00EA35EB0D6B08073A9A
:101DEC00031DFA2EFE306A06031D4F2F8031B726D5
:101DFC0088314401AD018031E72288310230FC008A
:101E0C000830FD00FD0B082FFC0B082F00000830DC
:101E1C004401AD0080319824883170084301EA00F8
:101E2C007108EB007108033A031D1E2FFF3070067A
:101E3C00031D222F42016E140030F4000430F50013
:101E4C0043012008F0002108F1008031512688312F
:101E5C00662070084301EC007108ED007208EE007A
:101E6C007308EF006A08F0006B08F100662043016C
:101E7C006C08F4006D08F5006E08F6006F08F700AA
:101E8C00002080319227883170084301EA007108E4
:0C1E9C00EB006A08F0006B08F100080081
:101EA8004001BC01D001BD014401A601A701A80160
:041EB8006F2208008D
:101EBC00003043016306031D652F00306206031DCD
:101ECC00752F4401AD013C30AE005D30AF000030E9
:101EDC00B0000330B100803122238831D52F8030FF
:101EEC0043016306F00080307002031D7F2F0A301F
:101EFC0062020318922F6208EA006308EB00B2300A
:101F0C00EC000130ED00312630304301AA002E30B8
:101F1C00AB003708AC00C82F80306306F00080306F
:101F2C007002031D9B2F643062020318AE2F6208EF
:101F3C00EA006308EB00B230EC000130ED00312612
:101F4C0043013608AA002E30AB003708AC00C82F6E
:101F5C0005306207F0000030633DF1007008E200CC
:101F6C007108E3007008EA007108EB00B230EC0075
:101F7C000130ED00312620304301AA003508AB00BA
:101F8C003608AC004401AD013C30AE00AA30AF00C5
:101F9C000130B0000330B1008031222388310800B9
:101FAC0042016E134001BE01BF01C001C10180316D
:101FBC007222883101304401AD00AE015130AF00C6
:101FCC000030B0000B30B100803122238831523008
:101FDC00FB002B30FC000030FD00FD0BF32FFC0B45
:0C1FEC00F32FFB0BF32F0000CE250800A4
:1020000043016A08F1006B08F200F135F20D710826
:10201000EA007208EB008030023AF000803072066D
:102020007002031D152871084C3C031C1C287830D5
:10203000EA070130EB3DEC288030033AF0008030B5
:102040006B067002031D26286A08723C031C2D28AB
:102050009030EA070130EB3DEC288030053AF00083
:1020600080306B067002031D37286A08213C031C70
:102070003E28DC30EA070130EB3DEC288030073A9F
:10208000F00080306B067002031D48286A086C3C23
:10209000031C4F280230EA070230EB3DEC28803069
:1020A000093AF00080306B067002031D59286A0857
:1020B0006E3C031C60283830EA070230EB3DEC2808
:1020C00080300A3AF00080306B067002031D6A28E7
:1020D0006A08483C031C71288430EA070230EB3D53
:1020E000EC2880300B3AF00080306B067002031D44
:1020F0007B286A087E3C031C8228DC30EA07023019
:10210000EB3DEC2880300C3AF00080306B0670021A
:10211000031D8C286A08A03C031C93281030EA0792
:102120000330EB3DEC2880300C3AF00080306B0639
:102130007002031D9D286A08FC3C031CA428E030A3
:10214000EA070330EB3DEC2880300E3AF000803097
:102150006B067002031DAE286A08883C031CB52874
:10216000E830EA070330EB3DEC288030103AF0000D
:1021700080306B067002031DBF286A08F43C031C04
:10218000C6288830EA070430EB3DEC288030123A4C
:10219000F00080306B067002031DD0286A08C83C2E
:1021A000031CD7285030EA070530EB3DEC2880307F
:1021B000143AF00080306B067002031DE1286A08B3
:1021C000983C031CE8289030EA070530EB3DEC28EA
:1021D0009830EA070530EB3D6A08F0006B08F10023
:0221E0000800F5
:1021E2008831B62690317008E2007108E3000030B1
:1021F200E31BFF30E400E50088313425903170089C
:10220200E6007108E7000030E71BFF30E800E90054
:102212006208EA006308EB000020883166209031F2
:102222000030F4000030F5002030F6008130F70075
:102232008831002090310030F4000030F5007A300F
:10224200F6008830F7008831D5239031F430F4005D
:10225200FD30F5003430F6007F30F7008831D523A9
:1022620090317008F4007108F5007208F6007308E6
:10227200F7008831002090310030F4000030F50082
:102282002030F6008130F7008831D52390310030BC
:10229200F4000030F5000030F6007E30F70088319F
:1022A2009124903180319227903170084201EA00E6
:1022B2007108EB008030F200803071067202031D5B
:1022C20064297008003C0318B8294001161EB5297C
:1022D2004608F0004708F1004808F2004908F300F8
:1022E200E830F4000330F500F601F7018031FF21F8
:1022F20090317008420124074301A2007108420193
:10230200253D4301A30072084201263D4301A4007A
:1023120073084201273D4301A50040014208F00035
:102322004308F1004408F2004508F300E830F400E5
:102332000330F500F601F7018031FF21903170087A
:10234200420124074301A60071084201253D4301D1
:10235200A70072084201263D4301A800730842010A
:10236200273D4301A900B8298031D326903143018A
:1023720080306906F000803065067002031DCB29AB
:1023820064086802031DCB2963086702031DCB2979
:1023920062086602031CD429E730E2000330E3003E
:1023A200E401E5011E2A66086207F0006708633D42
:1023B200F1006808643DF2006908653DF30064308D
:1023C200F400F501F601F7018031FF21903143015C
:1023D2006208F4006308F5006408F6006508F70077
:1023E2006608F4026708F53B6808F63B6908F73BA4
:1023F20088312323903170084301E2007108E30021
:102402007208E4007308E5008030F400803073063F
:102412007402031D162A7208003C031D162A710855
:10242200033C031D162A7008E73C03181E2AE730F6
:10243200E2000330E300E401E50162084201EC003E
:0A244200430163084201ED000800A9
:10244C004001971188315427903102304401AD007E
:10245C00AE016330AF000030B0000930B100803104
:10246C00222390311930FB005A30FC00B130FD00B2
:10247C00FD0B3E2AFC0B3E2AFB0B3E2A0000000003
:10248C0002304401AD00AE01A030AF000030B0000E
:10249C000530B10080312223903102304401AD006F
:1024AC002A30AE00CB30AF000030B0000130B100AC
:1024BC0080312223903102304401AD003C30AE001B
:1024CC00CD30AF000030B0000430B1008031222399
:1024DC0090310D30FB002D30FC00D730FD00FD0B92
:1024EC00752AFC0B752AFB0B752A0000000097154A
:1024FC004201EE116E112408A8002508A900260837
:10250C00AA002708AB0024084101E6004201250877
:10251C004101E700420126084101E8004201270879
:06252C004101E900080076
:10253200F120E8304301BA000330BB00BC01BD0109
:10254200803042016B06F100803040016E0671025C
:10255200031DAE2A6D0842016A02013003180030E1
:10256200F100803040016206F000803042016B06CB
:102572007002031DBF2A6A0840016102013003187C
:102582000030F0007108F0040319FF2A4201EE1D29
:10259200CF2A26224201EC01ED01FF2A6E1FD72A23
:1025A2008831D6279031EC01ED01FF2AF1206A082B
:1025B2004301E20042016B084301E30088315E27D8
:1025C200903143013D08003C031DF12A3C08003CC8
:1025D200031DF12A3B08003C031DF12A3A08003C86
:1025E2000318FA2A0130BA020030BB3BBC3BBD3BA8
:0E25F200FE2A4201EC01ED01FF2AA12A080099
:1026000003304301E1004001D0013C084401A60031
:10261000A70140013D084401A80088316F22903194
:1026200099221430F4000030F50042016C08F000EB
:102630006D08F100803151269031700842016C071D
:102640004301DF00710842016D3D4301E000610874
:10265000DE0043015E081F3C031C8F2B40013C0839
:102660004401A60043015E084401A70040013D0863
:102670004401A80088316F229031992280304201B4
:102680006D06F0008030430160067002031D4B2B85
:102690005F0842016C0203188D2B42011430F400D4
:1026A0000030F5006C08F0006D08F1008031512613
:1026B0009031700842016C074301DF00710842014C
:1026C0006D3D4301E0005E084001D0004301610818
:1026D0004001CF00803042016D06F0008030700272
:1026E000031D742B78306C020318772B8F2B43015A
:1026F00061085E07F1007108DE007108093A031DE8
:10270000842B0830DE008C2B5E08113A031D8C2BC5
:102710001030DE000430E1008E2B8F2B292B40017E
:102720003C084401A600400150084401A7004001B4
:0E2730003D084401A80088316F229031080056
:10273E0040013B084301D80040013B083C07F10033
:10274E0071084301DA0071081F3C0318B02B1F30CB
:10275E00DA0040013C08430158020318BC2B58080C
:10276E0040013C024301DB00BD2BDB015B08400155
:10277E00BC0043015B084401A6004001500844011F
:10278E00A70040013D084401A80088316F22903116
:10279E009922003042016D06031DD72B00306C06C6
:1027AE00031DDA2B6C2C6C084301DC0042016D0812
:1027BE004301DD005B0AD90059085A02031C5D2C47
:1027CE0059084401A600400150084401A7004001E9
:1027DE003D084401A80088316F22903199220030C3
:1027EE0042016D06031DFD2B00306C06031D002CEF
:1027FE006C2C80306D06F000803043015D06700257
:10280E00031D0C2C5C0842016C02031C182C683052
:10281E00FC00E430FD00FD0B122CFC0B122C000012
:10282E009922803042016D06F000803043015D0632
:10283E007002031D252C5C0842016C02031C312C16
:10284E006830FC00E430FD00FD0B2B2CFC0B2B2C18
:10285E0000009922803042016D06F0008030430165
:10286E005D067002031D3E2C5C0842016C020318CB
:10287E00592C42016C084301DC0042016D084301F2
:10288E00DD0059084001BC00803042016D06F000A9
:10289E0080307002031D552C78306C020318582CB2
:1028AE005D2C5A2C5D2C4301D90AE32B40013C08C8
:1028BE004401A600400150084401A70040013D0814
:0C28CE004401A80088316F2290310800FE
:1028DA0003304301DD00D9015D084001BB0003302C
:1028EA004301DA001430F4000030F50042016C08AC
:1028FA00F0006D08F10080315126903170084201D4
:10290A006C074301DB00710842016D3D4301DC00A5
:10291A005D08D800430158081F3C031CFA2C5808CC
:10292A004401A600400150084401A70040013D08A7
:10293A004401A80088316F22903100239922803007
:10294A0042016D06F000803043015C067002031DEF
:10295A00B12C5B0842016C020318F82C42011430B6
:10296A00F4000030F5006C08F0006D08F1008031C9
:10297A0051269031700842016C074301DB0071084F
:10298A0042016D3D4301DC0058084001BC0050087B
:10299A004301D9005D084001BB004F084301DA003A
:1029AA00803042016D06F00080307002031DDF2C7A
:1029BA0078306C020318E22CFA2C43015D085807A0
:1029CA00F1007108D8007108093A031DEF2C08308C
:1029DA00D800F72C5808113A031DF72C1030D800EC
:1029EA000430DD00F92CFA2C8F2C430159084001E0
:1029FA00D0003C084401A600430159084401A7003D
:102A0A0040013D084401A80088316F2290314301FA
:102A1A005A084001CF006830FC00E430FD00FD0B8D
:0A2A2A00142DFC0B142D0000080011
:102A340040014F084301D80040014F085007F100FE
:102A440071084301DA0071081F3C03182B2D1F3055
:102A5400DA0040015008430158020318372D580882
:102A6400400150024301DB00382DDB015B084001CB
:102A7400D0003C084401A60043015B084401A700C0
:102A840040013D084401A80088316F229031992209
:102A9400003042016D06031D512D00306C06031DEC
:102AA400542DE72D6C084301DC0042016D084301FD
:102AB400DD005B0AD90059085A02031CD82D4001D5
:102AC4003C084401A600430159084401A700400101
:102AD4003D084401A80088316F22903199220030CA
:102AE40042016D06031D782D00306C06031D7B2DFD
:102AF400E72D80306D06F000803043015D067002E2
:102B0400031D872D5C0842016C02031C932D683061
:102B1400FC00E430FD00FD0B8D2DFC0B8D2D000021
:102B24009922803042016D06F000803043015D0639
:102B34007002031DA02D5C0842016C02031CAC2D25
:102B44006830FC00E430FD00FD0BA62DFC0BA62D27
:102B540000009922803042016D06F000803043016C
:102B64005D067002031DB92D5C0842016C02031856
:102B7400D42D42016C084301DC0042016D0843017D
:102B8400DD0059084001D000803042016D06F0009C
:102B940080307002031DD02D78306C020318D32DC1
:102BA400D82DD52DD82D4301D90A5D2D40013C08DF
:102BB4004401A600400150084401A70040013D081B
:0C2BC4004401A80088316F229031080005
:102BD000003043015306031DEF2D00305206031D44
:102BE000002E02304401AD003C30AE004A30AF0050
:102BF0000030B0000430B100803122239031232E08
:102C000043015208EA005308EB00B230EC000130F7
:102C1000ED0088313126903143013508AA002E306D
:102C2000AB003608AC003708AD0002304401AD00FF
:102C30003C30AE00AA30AF000130B0000430B1002B
:082C40008031222390310800CD
:102C480080312F21903141016A084401C40080314C
:102C58004921903140304401C400803149219031EC
:102C68000A30F4000030F50043014908F0004A0832
:102C7800F10080315126903170084301C900710874
:102C8800CA0080307106F2008030013A7202031DDA
:102C98004F2E2C3070020318562E2C30C9000130EC
:102CA800CA00662E8030013AF00080304A06700271
:102CB800031D602E4908A43C0318662EA430C900E1
:102CC8000130CA002C304902F30001304A3BF400BD
:102CD8007308C9007408CA000530F2007308F000D0
:102CE8007408F100720803197D2EF035F10DFF3ECE
:102CF800772E7008C9007108CA007830F4000030D7
:102D0800F50080315126903170084301CC0019300C
:102D18007002031C992E18304C02CD000830CE00EA
:102D28000830CF000830D000B72E11304C02031CF9
:102D3800A62ECD0110304C02CE000830CF0008304E
:102D4800D000B72E09304C02031CB22ECD01CE01A3
:102D580008304C02CF000830D000B72ECD01CE018C
:102D6800CF014C08D0008030D10001304D02F00076
:102D7800F1010030F13B7008F1005108F0007108D2
:102D88000319C92EF036FF3EC42E7008FF3CD1004F
:102D9800D10A0330D1044401BF017730C00080312B
:102DA80080219031430151084401C40080314921F8
:102DB8009031430151084401C400803149219031C8
:102DC800430151084401C4008031492190311F302A
:102DD8004301D1044401BF017530C0008031802116
:102DE8009031430151084401C40080314921903198
:102DF800430151084401C400803149219031440104
:102E0800BF017A30C00080318021903143015108E0
:102E18004401C400803149219031430151084401E3
:102E2800C40080314921903180304301D100013004
:102E38004E02F000F1010030F13B7008F10051083A
:102E4800F000710803192B2FF036FF3E262F70086B
:102E5800FF3CD100D10A01304401BF007530C000E9
:102E68008031802190314301CB014B08063C031C83
:102E7800462F51084401C400803149219031430153
:102E8800CB0A392F8030D10001304F02F000F10118
:102E98000030F13B7008F1005108F0007108031987
:102EA800582FF036FF3E532F7008FF3CD100D10A4F
:102EB80002304401BF007530C0008031802190315C
:102EC8004301CB014B08063C031C732F51084401F6
:102ED800C4008031492190314301CB0A662F8030EC
:102EE800D10001305002F000F1010030F13B7008D0
:102EF800F1005108F00071080319852FF036FF3EE4
:102F0800802F7008FF3CD100D10AC030D1040330B3
:102F18004401BF007530C0008031802190314301E9
:102F2800CB014B08063C031CA22F51084401C400E6
:102F38008031492190314301CB0A952F8031C0213E
:042F480090310800BC
:102F4C004001971102304401AD00AE01BC30AF001E
:102F5C000030B0000930B10080312223903198311B
:102F6C000020903102304401AD00AE01C630AF00FC
:102F7C000030B0000430B100803122239031023097
:102F8C004401AD002A30AE00D230AF000030B000AA
:102F9C000130B10080312223903142016C08430191
:102FAC00D20042016D084301D300E8259715420178
:102FBC00EE12EE102408A8002508A9002608AA0085
:102FCC002708AB0024084101E60042012508410115
:102FDC00E700420126084101E800420127084101AF
:042FEC00E9000800F0
:103000006400400119110530FB000F30FC00F13065
:10301000FD00FD0B0928FC0B0928FB0B092890314A
:1030200099229831803042016D06F00080307002A4
:10303000031D1C286E306C0203182128400119154D
:10304000ED298831542798310330FB000830FC000B
:103050007730FD00FD0B2A28FC0B2A28FB0B2A28C1
:10306000903199229831803042016D06F000803015
:103070007002031D3D286E306C0203184228400187
:103080001915ED2942016C084301D20042016D0877
:103090004301D30090316D249831003042016D0618
:1030A000031D542800306C06031D5B28883154270B
:1030B00098311915ED2990319922983180304201CB
:1030C0006D06F00080307002031D682878306C02B5
:1030D00003186D2840011915ED2990319F2398316F
:1030E000003042016D06031D772800306C06031D79
:1030F0007E288831542798311915ED29903199226D
:103100009831803042016D06F00080307002031D5E
:103110008B2878306C020318902840011915ED298E
:1031200090311A259831003042016D06031D9A280E
:1031300000306C06031DA1288831542798311915D9
:10314000ED29903199229831803042016D06F000CE
:1031500080307002031DAE2878306C020318B3284B
:1031600040011915ED29803042016D06F1008030D3
:103170007102031DBD28C8306C02013003180030F5
:10318000F10080306D06F00080304301530670027C
:10319000031DCD28520842016C0242010130031880
:1031A0000030F00070087105F3006C084301520212
:1031B000F10042016D084301533BF2008030F00002
:1031C000803072067002031DE7287108643C0130EC
:1031D00003180030F0007308F0050319F2284001CD
:1031E0001915ED2942016C084301D20042016D0816
:1031F0004301D30040013C084301D400D501400104
:1032000050084301D600D70140013D08013A031D93
:103210000B29BD010D290130BD008831542798319B
:103220003C084401A600400150084401A7004001A9
:103230003D084401A80088316F2298310330FB001B
:103240000830FC007730FD00FD0B2429FC0B2429FD
:10325000FB0B2429903199229831803042016D0670
:10326000F00080307002031D372978306C0203189B
:103270003C2940011915ED2990316D249831003019
:1032800042016D06031D462900306C06031D4D29C1
:103290008831542798311915ED29903199229831A8
:1032A000803042016D06F00080307002031D5A2903
:1032B00078306C0203185F2940011915ED2990310F
:1032C0009F239831003042016D06031D69290030AB
:1032D0006C06031D70298831542798311915ED2982
:1032E000903199229831803042016D06F000803093
:1032F0007002031D7D2978306C0203188229400179
:103300001915ED2990311A259831003042016D06CA
:10331000031D8C2900306C06031D93298831542726
:1033200098311915ED299031992298318030420158
:103330006D06F00080307002031DA02978306C0209
:103340000318A52940011915ED29803043015306C2
:10335000F000803042016D067002031DB2296C0836
:10336000430152020318EA2940013D08013A031DB6
:10337000BB29BD01BD290130BD003C084401A600A8
:10338000400150084401A70040013D084401A80045
:1033900088316F229831430154084001BC00430139
:1033A00056084001D000430154084401A6004301DF
:1033B00056084401A70040013D084401A800883197
:1033C0006F229831430152084201EC004301530837
:0C33D0004201ED006400400119150800E6
:1033DC006430410162024301C30000304101633B90
:1033EC004301C4000330FB000830FC007730FD00C3
:1033FC00FD0BFE29FC0BFE29FB0BFE295830C200ED
:10340C00C501C601E730C7000330C8004201EF0117
:10341C004301420842016F020318422A9031F12005
:10342C009831803043014606F000803042016B0633
:10343C007002031D242A6A08430145020318362A28
:10344C0042016A084301C50042016B084301C600F2
:10345C0042016C084301C70042016D084301C800DA
:10346C000B30FC006230FD00FD0B3A2AFC0B3A2AB3
:10347C0000004201EF0A0E2A8030F0008030430138
:10348C0046067002031D4C2A4508003C0318A02A6E
:10349C004001161E9D2A4608F0004708F100480816
:1034AC00F2004908F300E830F4000330F500F601AF
:1034BC00F7018031FF219831700842012407430144
:1034CC00A20071084201253D4301A300720842018C
:1034DC00263D4301A40073084201273D4301A5008A
:1034EC0040014208F0004308F1004408F20045088E
:1034FC00F300E830F4000330F500F601F7018031F9
:10350C00FF2198317008420124074301A60071087D
:10351C004201253D4301A70072084201263D4301AB
:10352C00A80073084201273D4301A900A02A80315D
:10353C00D3269831460842012D06031DA82A2C08D3
:10354C00430145060319D82A42016E1CBB2A4401CB
:10355C00AD012A30AE00D430AF000030B0000130E5
:10356C00B100803122239831C82A4401AD012A30A0
:10357C00AE00D630AF000030B0000130B100803169
:10358C0022239831430145084201AC00430146080F
:10359C004201AD0043014508E2004608E3008831D2
:1035AC005E279831803043014606F000803070026F
:1035BC00031DE22A0A3045020318E62AC701C80196
:1035CC0042016E1C5B2B03304301C2004208003ADF
:1035DC000319282B02304401AD000630AE00D83060
:1035EC00AF000030B0000930B10080312223983197
:1035FC001530FB004B30FC00BE30FD00FD0B042BE6
:10360C00FC0B042BFB0B042B000002304401AD001F
:10361C00AE01A630AF000030B0000930B1008031EF
:10362C00222398311530FB004B30FC00BE30FD00DE
:10363C00FD0B1E2BFC0B1E2BFB0B1E2B000043014A
:10364C00C203EC2A02304401AD00AE01B030AF0031
:10365C000030B0000930B1008031222398310230A3
:10366C004401AD002A30AE00BA30AF000030B000DB
:10367C000130B10080312223983143014708D20038
:10368C004808D3009031E82598311530FB004B30B9
:10369C00FC00BE30FD00FD0B512BFC0B512BFB0B2A
:1036AC00512B000042016E10762B43014808420159
:1036BC002F06031D642B2E08430147060319762B96
:1036CC00430147084201AE00430148084201AF00E4
:1036DC0043014708D2004808D3009031E8259831BF
:1036EC00803043014606F100803040016E067102C5
:1036FC00031D832B6D084301450201300318003074
:10370C00F100803040016206F00080304301460633
:10371C007002031D942B450840016102013003180F
:10372C000030F0007108F00403199D2B1C2C803024
:10373C0043014806F5008030410163067502031D04
:10374C00AA2B6208430147020130031C0030F5002C
:10375C00803042012F06F30080304301480673028B
:10376C00031DBB2B470842012E02420101300318F6
:10377C000030F3002E0843014702F10042012F08EC
:10378C004301483BF20080304406F0008030720662
:10379C007002031DD32B7108430201300318003053
:1037AC00F00070087305F40080304806F300803098
:1037BC0042012F067302031DE62B2E08430147021C
:1037CC004301013003180030F300470842012E0278
:1037DC00F1004301480842012F3BF20080304301C5
:1037EC004406F000803072067002031DFF2B710836
:1037FC004302013003180030F0007308F005700824
:10380C007404F10042012F08033A031D0F2CE7301A
:10381C002E060130031D0030F0007108F00475080D
:0E382C00F00503191C2C9031A62798310800D6
:10383A008031B7269831210842012106031D282C20
:10384A0020084301200603193A2C430120084201AB
:10385A00A000430121084201A10043012008C90038
:10386A002108CA0090312426983180300E3AF0009F
:10387A008030430121067002031D452C2008743C48
:10388A000318592C4001971117160230FB003830E3
:10389A00FC00AD30FD00FD0B502CFC0B502CFB0B3B
:1038AA00502C97151716892C80300E3AF00080306C
:1038BA00430121067002031D642C2008063C0318EC
:1038CA00782C4001971117120230FB003830FC00A7
:1038DA00AD30FD00FD0B6F2CFC0B6F2CFB0B6F2C1E
:1038EA0097151716892C4001171297150230FB00FD
:1038FA003830FC00AD30FD00FD0B812CFC0B812C17
:10390A00FB0B812C17169715803043012106F00016
:10391A0080300D3A7002031D942C4830200203189F
:10392A00B72C80317222983101304401AD00AE01CA
:10393A002F30AF000030B0000B30B10080312223AD
:10394A0098315230FB002B30FC000030FD00FD0B9B
:10395A00AC2CFC0BAC2CFB0BAC2C000016128831E7
:06396A00CE259831080093
:1039700098304301BE000430BF002D30C00002303B
:10398000C10041019301940195019601EC309A0523
:0839900013161315931708002C
:1039980012001E00F003031DCC2CF103031DCC2CD8
:0239A800080015
:1039AA007E01B801C3014314C3144315CE01E401D7
:1039BA00D90153019013941340018C018D018E019A
:1039CA008F019001960197011030980006309900F6
:1039DA009A019101273092009301940195017E0189
:1039EA003A15BA15DB145B1540019F121F179F1376
:1039FA001E16C0309C00E0309D004E018C12400122
:103A0A009E174E0196161E304F019600FE30970003
:103A1A00473098007F30990077309A00DF309B005A
:103A2A008B170530FB000F30FC00F130FD00FD0B59
:0C3A3A001C2DFC0B1C2DFB0B1C2D080090
:103A46003227D52440011716191542016E1680310A
:103A5600D3269831B82442016E10EE11EE126E1381
:103A66006E11EE1040014608F0004708F1004808C4
:103A7600F2004908F300E830F4000330F500F601DF
:103A8600F7018031FF219831700842012407430174
:103A9600A20071084201253D4301A30072084201BC
:103AA600263D4301A40073084201273D4301A500BA
:103AB60040014208F0004308F1004408F2004508BE
:103AC600F300E830F4000330F500F601F701803129
:103AD600FF2198317008420124074301A6007108AE
:103AE6004201253D4301A70072084201263D4301DC
:103AF600A80073084201273D4301A90042012B0893
:103B06002702031D902D2A082602031D902D290841
:103B16002502031D902D28082402031C9A2DB83077
:103B2600A8070B30A93D0030AA3DAB3D1D2441013D
:103B3600690842012702031DB02D410168084201B0
:103B46002602031DB02D4101670842012502031D0F
:103B5600B02D4101660842012402031CBB2D2C3006
:103B66004101E6070130E73D0030E83DE93DEE2141
:103B76004301250842012702031DD12D43012408D4
:103B860042012602031DD12D4301230842012502CD
:103B9600031DD12D4301220842012402031CD52D09
:103BA600400116124301290842012702031DEB2D8D
:103BB6004301280842012602031DEB2D4301270875
:103BC60042012502031DEB2D430126084201240272
:103BD600031CF02D8831CE259831EE1DFC2D4001B9
:103BE600161EF92D903126229831FC2D8031D326D0
:103BF60098314201EE1E092E4001161E062E903106
:103C0600A6279831092E8031D326983142016E1F9E
:103C1600162E4001161E132E8831D6279831162EE1
:103C26008031D326983142016E1D222E4001161A8C
:103C36001F2E8031D32698319031262298314201A9
:103C4600EE1C322E4001161A2F2E8031F1279831A4
:103C56008031D3269831322E9031A6279831812D86
:023C6600332EFB
:103E6400C73084009E3085003E30F0000130F10000
:103E74002F30860000308700CC24F830840097303F
:103E840085000630F0000130F100A03086000030DB
:103E94008700CC24FC3084008F3085000230F00091
:103EA4000130F1006D30860000308700CC24813071
:103EB40084009E3085004630F0000130F100A630C9
:103EC400860000308700CC240330840080308500D5
:103ED4000130F0000130F1006F30860000308700BF
:103EE400CC24FB308400873085000430F00001309E
:103EF400F100EC30860000308700CC243730840099
:103F04009E3085004A30F0000130F10020308600F8
:083F140001308700CC240800F5
:020006000234C2
:020FF600403485
:020FF8000134C2
:020FFA000034C1
:020FFC000034BF
:041FF8000A34003473
:0C2FF00053345734523420342034003461
:043C6E0000340034EA
:043C72003D340034A9
:083C7600003400340034003476
:083C7E0000340034003400346E
:043C86000F3427349C
:043C8A000F34273498
:043C8E003D3400348D
:103C92002034463457342034563445345234533465
:0A3CA20049344F344E34203400340E
:103CAC002034443445345334493447344E34453449
:103CBC00443420344234593420344E343734443470
:063CCC00443443340034CF
:103CD20053345734523420342034203420342034A6
:043CE2002034003456
:103CE6005034573452342034203420342034203495
:043CF600573400340B
:083CFA0031342E343134003462
:103D02002034203420342034203420342034203411
:043D12002034003425
:103D16005334573452342034203420342034203461
:043D26002034003411
:043D2A003D340034F0
:103D2E00543455344E344534203420342034203429
:043D3E0020340034F9
:0A3D42005334573452342034003457
:043D4C003D340034CE
:0A3D500030342E34303430340034A7
:043D5A003D340034C0
:043D5E003E340034BB
:043D62003D340034B8
:103D66004F345634453452344C344F344134443451
:043D760020340034C1
:043D7A00823400345B
:043D7E0005340034D4
:083D8200003400340034003469
:043D8A007834003455
:103D8E00203420344C344F345734203442344134B0
:083D9E00543454342034003485
:023DA6000034E7
:023DA8000034E5
:023DAA000034E3
:083DAC0000340034003400343F
:083DB400083407340034003428
:083DBC002C3401340034003402
:0A3DC40030342E3430343034003433
:023DCE000034BF
:023DD0000034BD
:103DD200203450344F3457344534523420344F3425
:083DE20046344634203400345D
:083DEA0030342E343034003473
:043DF20096340034CF
:103DF600523445345334453454342034203420343A
:043E06002034003430
:103E0A00F834F8341F341F340334033403341F34B2
:103E1A001F34F834F834FF34FF34003400340034EB
:103E2A000034003400340034FF34FF34FF34FF34EC
:103E3A000034003400340034003400340034FF34D9
:103E4A00FF34FF34FF34C034C034C034C034C0340B
:083E5A00C034C034FF34FF3412
:1040000000340034003400340034003400345F34B1
:1040100000340034003407340034073400341434DE
:104020007F3414347F34143424342A347F342A34D3
:10403000123423341334083464346234363449344B
:104040005534223450340034053403340034003401
:1040500000341C34223441340034003441342234DE
:104060001C34003408342A341C342A34083408340C
:1040700008343E34083408340034503430340034CA
:104080000034083408340834083408340034303438
:104090003034003400342034103408340434023412
:1040A0003E345134493445343E34003442347F3454
:1040B000403400344234613451344934463421347C
:1040C000413445344B3431341834143412347F3491
:1040D0001034273445344534453439343C344A347B
:1040E00049344934303401347134093405340334EB
:1040F0003634493449344934363406344934493441
:1041000029341E340034363436340034003400345C
:104110005634363400340034003408341434223435
:1041200041341434143414341434143441342234E7
:104130001434083400340234013451340934063460
:1041400032344934793441343E347E3411341134BC
:1041500011347E347F3449344934493436343E3462
:1041600041344134413422347F34413441342234A7
:104170001C347F3449344934493441347F34093460
:104180000934013401343E34413441345134323441
:104190007F340834083408347F34003441347F34A9
:1041A000413400342034403441343F3401347F34CE
:1041B00008341434223441347F34403440344034A1
:1041C00040347F340234043402347F347F34043486
:1041D000083410347F343E344134413441343E3469
:1041E0007F3409340934093406343E3441345134BF
:1041F00021345E347F34093419342934463446344A
:104200004934493449343134013401347F34013480
:1042100001343F344034403440343F341F34203480
:10422000403420341F347F342034183420347F3419
:104230006334143408341434633403340434783469
:104240000434033461345134493445344334003444
:1042500000347F344134413402340434083410349F
:104260002034413441347F34003400340434023487
:104270000134023404344034403440344034403457
:1042800000340134023404340034203454345434BF
:10429000543478347F3448344434443438343834F3
:1042A000443444344434203438344434443448347A
:1042B0007F343834543454345434183408347E340D
:1042C00009340134023408341434543454343C3442
:1042D0007F340834043404347834003444347D3476
:1042E000403400342034403444343D34003400340D
:1042F0007F34103428344434003441347F34403423
:1043000000347C3404341834043478347C34083475
:104310000434043478343834443444344434383441
:104320007C341434143414340834083414341434FD
:1043300018347C347C34083404340434083448346D
:10434000543454345434203404343F3444344034EA
:1043500020343C344034403420347C341C34203409
:10436000403420341C343C344034303440343C3409
:10437000443428341034283444340C345034503409
:1043800050343C344434643454344C344434003475
:104390000834363441340034003400347F3400347F
:1043A00000340034413436340834003408340834DE
:1043B0002A341C34083408341C342A3408340834B1
:020000040001F9
:0A000E000429213E1F3F03300300C8
:00000001FF
