:0400000098314F2EB6
:1000080070084001AE007108AD007208AC007308BA
:10001800AB007408AA007508A9007608A80077083C
:10002800A7007808A6007908A5007A08A4007B082C
:10003800A3007C08A20080314E018C1E11298C126D
:1000480001304201C4070030C53DC63DC73DC03040
:1000580040019C00E0309D004101560842014702E2
:10006800031D46284101550842014602031D462842
:100078004101540842014502031D46284101530825
:1000880042014402031C11290A304101D307003000
:10009800D43DD53DD63D40018D1A542874145528B9
:1000A80074108F18592803145A28031074186028DC
:1000B80003186028741061287414741CA328420162
:1000C8002A08F0002B08F1002C08F2002D08F30094
:1000D800E830F4000330F500F601F701B4217008A8
:1000E80042014407EB007108453DEC007208463DAB
:1000F800ED007308473DEE002E08F0002F08F100D0
:100108003008F2003108F300E830F4000330F5005D
:10011800F601F701B4217008420144074301AA001F
:1001280071084201453D4301AB0072084201463D5A
:100138004301AC0073084201473D4301AD00400153
:100148008D1AA8280314A9280310031CC728FA30FD
:10015800420167020318B128E70A6708193A031D24
:10016800B628EA156708FA3A0130031D0030F10095
:10017800F0014001161AF00A7108F0050319C628A3
:100188004201EA14DC2842016708023C01300318E6
:100198000030F10019306702013003180030F00018
:1001A8007108F0050319DB286A17E701DC28E70165
:1001B80040018F18E1280314E2280310031CFA28D1
:1001C800400119306F020318EA28EF0A6F08143A41
:1001D8000130031D0030F100F0010F19F00A710819
:1001E800F0050319F92842016A15112940016F0821
:1001F800013C013003180030F1000A306F02013071
:1002080003180030F0007108F005031910294201A5
:10021800EA164001EF011129EF0140012E08F00014
:100228002D08F1002C08F2002B08F3002A08F4002E
:100238002908F5002808F6002708F7002608F8001E
:100248002508F9002408FA002308FB002208FC000E
:0202580009009B
:10025A004001F801F9011030FC00710DF80DF90D9B
:10026A007408F8027508031C750FF902031844296B
:10027A007408F80775080318750FF9070310F00DCD
:08028A00F10DFC0B3229080004
:10029200400196154230FD00FD0B4D290000161558
:1002A2004230FD00FD0B5329000016114230FD00C3
:1002B200FD0B5929000096114230FD00FD0B5F290C
:0402C2000000080030
:1002C600F10108307102031880294401B81B6E2918
:1002D600400116117029400116154230FD00FD0B34
:1002E6007229000096154230FD00FD0B78290000AA
:1002F60096114401B835F10A6429400116154230B9
:10030600FD00FD0B84290000961500300C19013004
:10031600F2004230FD00FD0B8E290000961142309E
:0E032600FD00FD0B942900007208F000080095
:10033400400116114230FD00FD0B9E290000961568
:100344004230FD00FD0BA429000016154230FD00CB
:08035400FD0BAA2900000800BE
:0C035C003A30FD00FD0BB0290000080045
:1003680040012230FC00F801F901FA01FB01FC030D
:100378000319E9290310FB0CFA0CF90CF80CF30C1F
:10038800F20CF10CF00C031CBB29FC030319DB294C
:100398007408F80775080318750FF9077608031825
:1003A800760FFA0777080318770FFB07BF29740839
:1003B800F80775080318750FF90776080318760FFC
:0C03C800FA0777080318770FFB070800FE
:1003D4004401B501053035020318FA2935083307FD
:1003E40086000030343D870020308100B50AEC29B6
:1003F4003508330786000030343D87008101B5039A
:1004040035083307B6000030343DB7000A30F40035
:10041400F5013108F0003208F1002D217808F000D0
:100424007908F1003030F0074401360886003708B7
:100434008700700881000A30F400F5013108F000EB
:100444003208F1002D2170084401B1007108B20096
:1004540000307106031D302A00307006031D332A54
:08046400352AB503022A080045
:10046C0040017008F100F0010830FC007108F40C38
:10047C000318442AFC0B3D2AF10100340310492ACD
:10048C00F40C0318F107F10CF00CFC0B462A0800D5
:10049C004101580844013207B5004921410159086E
:1004AC004401B80063214401B801632144013108BF
:1004BC00B03EB8006321440135080F3C031C6A2A86
:1004CC003508B300B4017B2A3508F200F236F23657
:1004DC00F236F2367208B4007208F000F035F035DE
:1004EC00F035F03570083502B3003308B8006321DD
:1004FC0044013408103EB8006321492141015908D8
:10050C004401B800632140304401B8006321080065
:10051C0040304401A9001F30AA00AB01AC014030AF
:10052C00F0001F30F1000030F2000030F30027081B
:10053C00F4002808F500F601F701B4217008440115
:10054C00A9007108AA007208AB007308AC00003057
:10055C007302031DBB2A00307202031DBB2A02303A
:10056C007102031DBB2AB23070020318BE2AED2A99
:10057C00B230A9020230AA3B0030AB3BAC3B053099
:10058C00F00070080319D02AAC36AB0CAA0CA90CDD
:10059C00FF3EC82A2908F0002A08F1002B08F200B7
:1005AC002C08F3000130A9020030AA3BAB3BAC3B5A
:1005BC0070087104720473040319ED2A0000000022
:1005CC00000000000000000000000000D02A08001D
:1005DC007B15FB1FF82A0130F300F201F101F00149
:0805EC00FA0DF20CFF300800CB
:1005F4003F304401270541019E00AE211314000041
:10060400131C052B022B0C08F0000D08F100080048
:08061400FA1FF2130030080088
:0E061C00F201F101F001F801F30100300800D5
:10062A00FB14FB1F1F2BFF30F300F200F100F00058
:08063A00FA0DF20CFF3008007C
:100642004921410159084401B80063214030440165
:10065200B80063214401A8012808073C031C432B6E
:100662002808B100B2014E224401A70144018030A2
:1006720027020318402BA70AB8016321372B440134
:08068200A80A2D2B9A210800A3
:10068A004401AD01AE012708AF002808B000803050
:10069A002806F00080307002031D552B0030270217
:1006AA000318632B0130AD000030AE002708003C70
:1006BA00AF002808031C013EB001B0022F08B100A8
:1006CA003008B2002908B3002A08B400EA2106302B
:1006DA00AB000030AC002C08003C031D762B2B0825
:1006EA00003C0318912B2B08290786002C082A3D69
:1006FA00870001302B02F00000302C3BF10070081B
:10070A002907840071082A3D85000008810001300C
:10071A00AB020030AC3B702B290886002A08870000
:10072A00203081002D082E040319B72BAB01AC0130
:10073A002B08290784002C082A3D85000008203A46
:10074A00031DAB2BAB0A0319AC0A9D2B0130AB027C
:10075A000030AC3B2B08290786002C082A3D87006D
:06076A002D3081000800A3
:100770004001FB01FA01F9018030F800F10CF00CA6
:10078000031CCB2B7408F90775080318750FFA07BB
:100790000318FB0A0310F01FD32B7408FA0775081F
:1007A0000318750FFB07FB0CFA0CF90CF80C031C73
:1007B000BE2B7B08F3007A08F2007908F100780874
:0407C000F00008003D
:1007C400FA304301A4000230A5002730A60002300D
:1007D400A70041019301940195019601EC309A051B
:1007E400133044012705F000700841019A04C03019
:1007F40044012705F0000319152CC0302705F20029
:100804000630F1007208F000710803190C2CF03660
:10081400FF3E072C700852018C008C170C1B142C03
:100824000000102C182C5201FC308C0541011316C9
:06083400131593170800E4
:10083A004921410159084401B8006321403044016B
:10084A00B800632144012708B1002808B2004E22EB
:10085A004401AC012B082C020318BE2C2C082907D2
:10086A00840000302A3D85000008003A031D3F2C11
:10087A00AE01482C2C082907840000302A3D850047
:10088A0020300002AE00AD012D08043C031CB62C3A
:10089A002E08F0000530F400362244012D08F00736
:1008AA000030F13D003070078400A030713D8500B2
:1008BA000008AF002708023A03198C2CAF19672CDD
:1008CA00B013682CB017AF196C2C30136D2C30177D
:1008DA002F19712CB012722CB0162F19762C3012D7
:1008EA00772C3016AF187B2CB0117C2CB015AF18B2
:1008FA00802C3011812C30152F18852CB010862CA5
:10090A00B0142F188A2C30108B2C3014AC2C2F19C1
:10091A00902CB013912CB0172F19952C3013962CBC
:10092A003017AF189A2CB0129B2CB016AF189F2C08
:10093A003012A02C30162F18A42CB011A52CB015EB
:10094A002F18A92C3011AA2C3015B01030103008ED
:10095A00B800632144013008B80063214401AD0A9C
:10096A00492CB80163214401B80163214401AC0A4E
:10097A002F2C270AB1002808B2004E224401AC01EC
:10098A002B082C0203185C2D2C0829078400003040
:10099A002A3D85000008003A031DD52CAE01DE2C45
:1009AA002C082907840000302A3D850020300002E7
:1009BA00AE00AD012D08043C031C542D2E08F00096
:1009CA000530F400362244012D08F0070030F13DCD
:1009DA00003070078400A030713D85000008AF0028
:1009EA002708023A0319222DAF1BFD2CB013FE2C47
:1009FA00B017AF1B022D3013032D30172F1B072DF5
:100A0A00B012082DB0162F1B0C2D30120D2D3016DA
:100A1A00AF1A112DB011122DB015AF1A162D3011B3
:100A2A00172D30152F1A1B2DB0101C2DB0142F1A8C
:100A3A00202D3010212D30144A2D2F1B262DB013B6
:100A4A00272DB0172F1B2B2D30132C2D3017AF1A33
:100A5A00302DB012312DB016AF1A352D3012362D79
:100A6A0030162F1A3A2DB0113B2DB0152F1A3F2DE3
:100A7A003011402D3015AF19442DB010452DB0144A
:100A8A00AF19492D30104A2D30143008B8006321AF
:100A9A0044013008B80063214401AD0ADF2CB801D3
:100AAA0063214401B80163214401AC0AC52C9A218F
:020ABA00080032
:100ABC0044012708B1002808B2004E224401AC01C1
:100ACC002B082C020318932D2C08290784000030C6
:100ADC002A3D850020300002AE00AD0105302D020C
:100AEC0003188E2D2E08F0000530F4003622440138
:100AFC002D08F0070030F13D003070078400A03065
:100B0C00713D85000008B80063214401AD0A742DC5
:0E0B1C00B80163214401AC0A662D9A2108003D
:100B2A004921410159084401B80063218030440138
:100B3A00B800632144012708B80063219A210800FC
:100B4A00A1017208031DBA2D7108F2007008F100A4
:100B5A00F001A1157208031DBA2D7108F200F10106
:100B6A00A111211672080319C82D2108F302031DC9
:100B7A00031CCC2D0310F21BD02DF00DF10DF20D3C
:100B8A00F30BC02DCC2D0130FC000E23D32D0230E7
:0E0B9A00FC00EE22D32D0430FC000A230800DC
:100BA8007408F8027508031C750FF9027608031C0F
:100BB800760FFA027708031C770FFB02F30D073054
:100BC800FC00730DF80DF90DFA0DFB0D7408731C7C
:100BD800FB2DF8027508031C750FF9027608031C33
:100BE800760FFA027708031C770FFB02082EF80726
:100BF80075080318750FF90776080318760FFA07B2
:100C080077080318770FFB07F30DFC0BE52D720D22
:100C1800F80DF90DFA0DFB0D7408731C212EF8025E
:100C28007508031C750FF9027608031C760FFA0283
:100C38007708031C770FFB022E2EF8077508031898
:100C4800750FF90776080318760FFA07770803185F
:100C5800770FFB07F20D0730FC00720DF80DF90D48
:100C6800FA0DFB0D7408721C472EF8027508031C58
:100C7800750FF9027608031C760FFA027708031C31
:100C8800770FFB02542EF80775080318750FF9073C
:100C980076080318760FFA0777080318770FFB070B
:100CA800F20DFC0B312E710DF80DF90DFA0DFB0D3F
:100CB8007408721C6D2EF8027508031C750FF90272
:100CC8007608031C760FFA027708031C770FFB02DD
:100CD8007A2EF80775080318750FF90776080318B0
:100CE800760FFA0777080318770FFB07F10D07301F
:100CF800FC00710DF80DF90DFA0DFB0D7408711C4F
:100D0800932EF8027508031C750FF9027608031C68
:100D1800760FFA027708031C770FFB02A02EF8075C
:100D280075080318750FF90776080318760FFA0780
:100D380077080318770FFB07F10DFC0B7D2E700D5C
:100D4800F80DF90DFA0DFB0D7408711CB92EF80297
:100D58007508031C750FF9027608031C760FFA0252
:100D68007708031C770FFB02C62EF80775080318CF
:100D7800750FF90776080318760FFA07770803182E
:100D8800770FFB07F00D0730FC00700DF80DF90D1B
:100D9800FA0DFB0D7408701CDF2EF8027508031C91
:100DA800750FF9027608031C760FFA027708031C00
:100DB800770FFB02EC2EF80775080318750FF90773
:100DC80076080318760FFA0777080318770FFB07DA
:100DD800F00DFC0BC92E7018FF2E7408F807750863
:100DE8000318750FF90776080318760FFA077708BE
:080DF8000318770FFB07080048
:100E0000FB09FA09F909F809F80A0319F90A03199B
:080E1000FA0A0319FB0A0800AD
:100E18004921410159084401B80063214030440187
:100E2800B80063214401A5012508033C031C3F2F9A
:100E38002508B1007330B2004E224401A4012408F1
:100E48000A3C031C3D2F2508F0000B30F400362225
:100E580044012408F0070030F13DB13070078400E8
:100E68009F30713D85000008B80063214401A40A41
:0A0E7800232FA50A182F9A21080065
:100E8200003044012506031D482F00302406031DAF
:100E9200562F0230A7003C30A8003F30A900013095
:100EA200AA000430AB001D24752F44012408A700BA
:100EB2002508A800B030A9000130AA00452343014B
:100EC2003308B8002E30B9003408BA003508BB0028
:100ED20002304401A7003C30A800B830A90001301C
:0A0EE200AA000430AB001D24080034
:100EEC007C18AC2FFC187D2F7C19CB2F762FA101F1
:100EFC007208031D9D2F7108F2007008F10078082C
:100F0C00F000F801A1157208031D9D2F7108F20065
:100F1C007008F100F001A11121167208031D9D2F1C
:100F2C007108F200F101A11572080319BF2F2108F5
:100F3C00F302031D031CC32F0310F21BAC2FF80D7F
:100F4C00F00DF10DF20DF30BA32FC32F7B1B701CB7
:100F5C00C72FF81FC72FF00A0319F10A0319F20A59
:100F6C00031DC72FF20CF10CF00CF30A0319CB2F55
:100F7C00C72F0130FC000E23CE2F0230FC00EE22D6
:100F8C00CE2F0430FC000A23CE2F0830FC00152392
:040F9C000000080049
:100FA0007B14FB1FDB2FF201FA1FFF30F200F10070
:0A0FB000F000FA0DF20CFF3008000B
:060FBA00FB15FF300800EA
:040FC0009A2108006A
:100FC4004001DF010130E000DE014401A4010130F1
:0C0FD400A500A601883100208031080033
:100FE00012001E00F003031DF02FF103031DF02F6C
:020FF0000800F7
:101000004401241806284001991708284001991323
:101010004401A4180E284001191710284001191383
:1010200044012419162840019916182840019912E4
:101030004401A4191E284001191620284001191244
:101040004401241A262840019817282840019813A3
:101050004401A41A2E284001181730284001181303
:101060004401241B36284001981638284001981264
:10107000440125183E28400196164028400196124A
:101080004401A518462840019A14482840019A10A6
:10109000440125194E284001961750284001961307
:1010A0004401A51956284001161758284001161367
:1010B0004401251A5E2840011814602840011810C8
:1010C0004401A51A66284001981468284001981028
:1010D0004401251B6E284001181570284001181185
:1010E00044012618762840011A10782840011A1465
:1010F0009915430120084401A70043012108440138
:10110000A80080318E228831400199111A30FD00EB
:10111000FD0B882800001812430120084401A70095
:10112000430121084401A80080318E22883140010A
:101130001816430120084401A70043012108440177
:10114000A80080318E228831400199131913991219
:10115000191298131813981296129A1096131613C0
:0A1160001810981018111A1008005A
:10116A004401A4010A3024020318DE2880314921EF
:10117A008831410159084401B8008031632188311E
:10118A007008003A031DCA28DE2880319A21883166
:10119A000D30FB002D30FC00D730FD00FD0BD328AD
:1011AA00FC0BD328FB0BD328000000004401A40A3F
:1011BA00B7284401B801803163218831AE30440137
:1011CA00B800803163218831D5304401B8008031BC
:1011DA006321883180304401B8008031632188312D
:1011EA00A8304401B8008031632188313F3044017E
:1011FA00B800803163218831D3304401B80080318E
:10120A006321883141015B084401B80080316321C0
:10121A00883140304401B8008031632188318D30F3
:10122A004401B80080316321883114304401B80088
:10123A0080316321883181304401B80080316321D3
:10124A008831FF304401B800803163218831D930B8
:10125A004401B800803163218831F1304401B8007B
:10126A0080316321883120304401B8008031632104
:10127A00883102304401B80080316321883121303D
:10128A004401B8008031632188314401B8018031BA
:10129A00632188317F304401B8008031632188316D
:1012AA002E304401B800803163218831410157084A
:1012BA0003196C29A0304401B800803163218831B8
:1012CA00C0304401B8008031632188317829A130C7
:1012DA004401B800803163218831C8304401B80024
:1012EA00803163218831DA304401B80080316321CA
:1012FA00883102304401B800803163218831DB3003
:10130A004401B80080316321883140304401B8007B
:10131A00803163218831A4304401B80080316321CF
:10132A008831A6304401B800803163218831803188
:10133A009A218831803121238831AF304401A700B6
:08134A0080319525883108006F
:101352004001971180312123883101304401A700D7
:10136200A801A030A9000030AA001230AB008031E1
:101372005E25883103304401A700A8015130A9003D
:101382000030AA000C30AB0080315E25883103307A
:101392004401A7005430A8004730A9000030AA0039
:1013A2000330AB0080315E2588317A30FB00C130DA
:1013B200FC008130FD00FD0BDC29FC0BDC29FB0B62
:1013C200DC29000000008D1AE8290314E929031022
:0C13D200031CED290000E4299715080019
:1013DE0043304401A7008031E22388310230FC0003
:1013EE000830FD00FD0BF929FC0BF929000009302E
:1013FE004401A7008031FA2288310B30F40000300E
:10140E00F5008031B823883170084301A2007108BD
:04141E00A30008001F
:10142200400116160930FB001E30FC00E430FD00BE
:10143200FD0B192AFC0B192AFB0B192A000080311B
:10144200E02788316830FC00E430FD00FD0B272ADC
:10145200FC0B272A0000B52042016A1C362AA9216A
:1014620042016A108031212388314401A701A80179
:101472003D30A9000030AA000930AB0080311D24A4
:10148200883180310C27883102304401A700A8013D
:101492002F30A9000030AA000930AB0080311D2492
:1014A20088314401A7012A30A8003930A900003050
:1014B200AA000130AB0080311D2488310230440182
:1014C200A7002A30A8003B30A9000030AA00013052
:1014D200AB0080311D2488310F30CB002730CC0087
:1014E20064304201E8000030E9000F304001CD00D5
:1014F2002730CE00CF01D0014401A401A5018031E3
:1015020041278831013042014407CC000030453D7B
:10151200CD000030463DCE000030473DCF004408AC
:10152200C8004508C9004608CA004708CB006A132C
:10153200EA11EA10EA126A112A08F0002B08F100F7
:101542002C08F2002D08F300E830F4000330F50017
:10155200F601F7018031B421883170084201440755
:10156200EB007108453DEC007208463DED00730842
:10157200473DEE002E08F0002F08F1003008F2007F
:101582003108F300E830F4000330F500F601F7010A
:101592008031B42188317008420144074301AA0016
:1015A20071084201453D4301AB0072084201463DCC
:1015B2004301AC0073084201473D4301AD000800FE
:1015C20040017008F8007108F000F101F201F30126
:1015D200FB01FC019630F300FA01F01FF62AF8092C
:1015E200F009F80A0319F00AFA177008F1007808EE
:0E15F200F000F801F2018031A52588310800D3
:101600004001FB01730803193C2B7208FA00F21722
:101610008E30F302F31F3F2BF309F30A08307302F5
:10162000031C222BF300F10D7208F100F2010830C7
:101630007302031C222BF300F10DF1017308031D4B
:1016400003102A2B730803192A2B0310F20CF10C38
:10165000F30B252B7B1B711C342B031C342BF10A41
:101660000319F20AF21B4B2BFA1F4E2BF209F10958
:10167000F10A0319F20A4E2BF201F1014E2B7B14F1
:10168000FB1F512BF201FA1F512BFF30F200F1002A
:10169000FA0DF20C512B0130FC00532B0030FC00F2
:1016A000532BFF30FC00FC080319592B8031D02745
:0C16B00088317108F0007208F100080099
:1016BC0043016E08F1006F08F200F135F20D71086C
:1016CC00EE007208EF008030023AF00080307206B3
:1016DC007002031D732B71081F3C031C7A2B003006
:1016EC00EE070130EF3DE42B8030033AF000803000
:1016FC006F067002031D842B6E08173C031C8B2B8A
:10170C001230EE070130EF3DE42B8030043AF0004C
:10171C0080306F067002031D952B6E08C93C031CAC
:10172C009C2B2030EE070130EF3DE42B8030073A44
:10173C00F00080306F067002031DA62B6E08C73CAC
:10174C00031CAD2B1E30EE070130EF3DE42B803037
:10175C000A3AF00080306F067002031DB72B6E083A
:10176C00CE3C031CBE2B2030EE070130EF3DE42BAA
:10177C0080300F3AF00080306F067002031DC82BCA
:10178C006E08823C031CCF2B0430EE070130EF3D7A
:10179C00E42B8030133AF00080306F067002031D8A
:1017AC00D92B6E08EC3C031CE02BFA30EE07003012
:1017BC00EF3DE42BF030EE070030EF3D6E08F0000B
:0617CC006F08F1000800A7
:1017D20043304401A7008031E22388310230FC000B
:1017E2000830FD00FD0BF32BFC0BF32B00000A303D
:1017F2004401A7008031FA22883170084301EE00CB
:101802007108EF007108033A031D092CFF307006BE
:10181200031D272C83304401A7008031E223883145
:101822000230FC000830FD00FD0B152CFC0B152CC2
:1018320000000A304401A7008031FA228831700882
:101842004301EE007108EF00EE35EF0D6F08073A25
:10185200031D2D2CFE306E06031D7D2C4401A701B5
:101862008031E22388310230FC000830FD00FD0B9C
:10187200382CFC0B382C00000A304401A7008031C0
:10188200FA22883170084301EE007108EF007108F6
:10189200033A031D4E2CFF307006031D522C4201E9
:1018A2006A16EF216E08F4006F08F500F601F701E1
:1018B2002208F0002308F1000030F11BFF30F20093
:1018C200F3008031B42188310A30F8007008F40046
:1018D2007108F5007208F6007308F700780803191A
:1018E200782CF736F60CF50CF40CFF3E702C7408CD
:1018F2004301EE007508EF006E08F0006F08F1007A
:021902000800DB
:101904007408003A031D9B2C7508003A031D9B2C98
:101914007608003A031D9B2C7708003A031D9B2C84
:10192400FF30F000FF30F1007F30F200FF30F300B1
:101934003D2D400177080319292D730803192E2D15
:10194400720876068039FA00F217F617A1017208B8
:10195400F8007108FC007008FD007408FD027508A9
:10196400031C750FFC027608031C760FF802F801BD
:10197400FC01FD01031CC52C0310F20CF10CF00C4E
:10198400F80C0130A1007708F302031CCF2C7E3041
:101994002107F3070318332DD42C7E302107F307D6
:1019A400031C382D1830FA07FD0DFC0DF80DF00D51
:1019B400F10DF20DA10D7408F0027508031C750FEA
:1019C400F1027608031C760FF202760DA104211CA5
:1019D400ED2C7D14F82C7408F00775080318750FA6
:1019E400F10776080318760AF2077D10FA031F3010
:1019F4007A05031DD62C7B1B7D1C1F2D0310F00DB7
:101A0400F10DF20DA10D7408F0027508031C750F99
:101A1400F1027608031C760FF202760D21040139D7
:101A2400FD070318FC0A0319F80A031D1F2DF80CFF
:101A3400FC0CFD0CF30A0319332DFA1FF813780874
:101A4400F2007C08F1007D08F00000303C2D0130EC
:101A54008031DD2788313C2D023080310E238831DE
:101A64003C2D04308031152388313C2D08308031E1
:081A7400EE2288310000080099
:101A7C007408003A031D572D7508003A031D572DA5
:101A8C007608003A031D572D7708003A031D572D91
:101A9C00FF30F000FF30F100FF30F2007F30F30038
:101AAC00F32D4001FC01F71BFC0AFD01FB01FA01BF
:101ABC00F901F80173087204710470040319EC2D18
:101ACC0073087706A000A01BFD09F71F782DF409F9
:101ADC00F509F609F709F40A0319F50A0319F60AC8
:101AEC000319F70AF31F852DF009F109F209F3091F
:101AFC00F00A0319F10A0319F20A0319F30A73081D
:101B0C007704A000A01BA82D8031D4258831FC1BA4
:101B1C00C52DFD1FEC2DF009F109F209F309F00AAE
:101B2C000319F10A0319F20A0319F30AF809F9095E
:101B3C00FA09FB09F80A0319F90A0319FA0A031935
:101B4C00FB0AEC2DF71FBF2DF31BB92D7308FB00FF
:101B5C007208FA007108F9007008F800F301F2013C
:101B6C00F101F0018F2DF301F201F101F001F00A06
:101B7C000034F309F209F109F009FC178A2DF80A6F
:101B8C000319F90A0319FA0A0319FB0A74087802F3
:101B9C00031D8F2D75087902031D8F2D76087A028F
:101BAC00031D8F2D77087B02031D8F2DFB01FA017E
:101BBC00F901F801F00A0319F10A0319F20A0319E1
:101BCC00F30AF31F8F2DA0012016FF34A0017C1CFB
:0C1BDC00F22D803100278831003E080007
:101BE8004001FB017308031D770803194A2E720888
:101BF8007606FA007708F3077E30031C072EF302F7
:101C080003184F2E0A2EF302031C542E7208F800F4
:101C18007108FC007008FD00F817F6170310F201B0
:101C2800F101F0011830A1007D1C242E7408F00782
:101C380075080318750FF10776080318760FF20771
:101C4800F20CF10CF00CF80CFC0CFD0C0310A10BC1
:101C5800182EF21B342EF80DF00DF10DF20DF303D2
:101C68007B1B701C462EF81F462EF00A0319F10A3A
:101C78000319F20A031D462EF20CF10CF00CF30ABC
:101C880003194F2EFA1FF2130030582E01308031FD
:101C98000E238831582E0230803115238831582E72
:0C1CA80004308031EE228831000008007A
:101CB40043304401A7008031E22388310230FC0024
:101CC4000830FD00FD0B642EFC0B642E0000083070
:101CD4004401A7008031FA22883170084301EE00E4
:101CE4007108EF007108033A031D7A2EFF30700665
:101CF400031D982E83304401A7008031E2238831EC
:101D04000230FC000830FD00FD0B862EFC0B862EF5
:101D1400000008304401A7008031FA22883170089D
:101D24004301EE007108EF00EE35EF0D6F08073A3E
:101D3400031D9E2EFE306E06031DEE2E4401A701E8
:101D44008031E22388310230FC000830FD00FD0BB5
:101D5400A92EFC0BA92E000008304401A7008031F5
:101D6400FA22883170084301EE007108EF0071080F
:101D7400033A031DBF2EFF307006031DC32E42011C
:101D84006A16EF216E08F4006F08F500F601F701FA
:101D94002208F0002308F1000030F11BFF30F200AC
:101DA400F3008031B42188310A30F8007008F4005F
:101DB4007108F5007208F6007308F7007808031933
:101DC400E92EF736F60CF50CF40CFF3EE12E740800
:101DD4004301EE007508EF006E08F0006F08F10093
:021DE4000800F5
:101DE600400172087606A100F801F901730877022E
:101DF600031C152F7708FD007308F7007D08F30014
:101E06007608FD007208F6007D08F2007508FD00F0
:101E16007108F5007D08F1007408FD007008F400F3
:101E26007D08F00077080319962F7208FA00F2175A
:101E3600F61777087302F7000319482F0830770260
:101E4600031C3E2FF7007408F9007508F4007608A5
:101E5600F500F60108307702031C3E2FF7007408E0
:101E6600F9007508F400F50108307702031C3E2FCF
:101E76007A08F200962F77080319482F0310F60CFC
:101E8600F50CF40CF90CF70B412FA11F552FF9098E
:101E9600F409F509F609F90A0319F40A0319F50A0A
:101EA6000319F60A7908F80774080318740FF0077F
:101EB60075080318750FF10776080318760FF207F1
:101EC600A11B6E2F031C7E2FF20CF10CF00CF80CEC
:101ED600F30F7E2F902F0318842FF809F009F109CC
:101EE600F209F80A0319F00A0319F10A0319F20AAA
:101EF6008030FA068A2F0130FC008031762788313F
:101F0600982F0230FC00803176278831982F0430D4
:101F1600FC008031A5258831982F0830FC008031DF
:0E1F260015238831982F0030FC0000000800C1
:101F3400710DF80DF90D7408F8027508031C750F7E
:101F4400F902F00DF10D0F30FC00710DF80DF90DD3
:101F54007408701CB32FF8027508031C750FF9027E
:101F6400B82FF80775080318750FF907F00DF10D70
:101F7400FC0BA72F7018C42F7408F80775080318F2
:081F8400750FF90700000800C9
:101F8C004001F8010830FC00700DF80D7408F802DF
:101F9C000318D22FF8070310F00DFC0BCA2F080002
:101FAC0040015F086002031CE22F90312823883126
:101FBC009031BA248831E82F9031BA24883190318D
:061FCC0028238831080003
:101FD200FA304301A4000230A5002730A6000230E7
:101FE200A70041019301940195019601EC309A05F5
:081FF2001316131593170800E4
:10200000400197118031E227903102304401A7004E
:10201000A8015830A9000130AA000930AB00803176
:102020001D2490311930FB005A30FC00B130FD0006
:10203000FD0B1828FC0B1828FB0B182800000000CB
:1020400002304401A700A8015030A9000130AA00C5
:102050000530AB0080311D24903102304401A700CF
:102060002A30A8005630A9000130AA000130AB0088
:1020700080311D24903102304401A7003C30A8007B
:102080006230A9000130AA000430AB0080311D2469
:10209000903164304201E8000030E9000D30FB006F
:1020A0002D30FC00D730FD00FD0B5428FC0B5428CC
:1020B000FB0B5428000000004001971542016A13F1
:1020C000EA12E7014408CC004508CD004608CE00DE
:1020D0004708CF004408C8004508C9004608CA00A0
:0620E0004708CB000800D8
:1020E600003043016B06031D7A2800306A06031D83
:1020F6008A284401A7013C30A800EA30A900003034
:10210600AA000330AB0080311D249031F128003045
:1021160043016B02031D91280A306A020318A9289D
:102126006A084401A70043016B084401A800B030C7
:10213600A9000130AA008031452390313030430197
:10214600B8002E30B9003508BA00E42800306B021A
:10215600031DAF2864306A020318C7286A084401C1
:10216600A70043016B084401A800B030A900013064
:10217600AA0080314523903143013408B8002E303F
:10218600B9003508BA00E42805306A07F0000030C7
:102196006B3DF1007008EA007108EB00700844011D
:1021A600A7007108A800B030A9000130AA0080314C
:1021B6004523903120304301B8003308B900340874
:1021C600BA004401A7013C30A800B830A90001308C
:0E21D600AA000330AB0080311D2490310800B8
:1021E40088315A2690317008EA007108EB000030FB
:1021F400EB1BFF30EC00ED008831E92390317008CF
:102204004401A0007108A1000030A11BFF30A2000E
:10221400A30043016A08EE006B08EF0088315E23D7
:1022240090318831E12290310030F4000030F50023
:102234002030F6008130F7008831F42590310030E9
:10224400F4000030F5007A30F6008830F700883169
:1022540082249031F430F400FD30F5003430F6007F
:102264007F30F7008831822490317008F4007108BF
:10227400F5007208F6007308F7008831F4259031F0
:102284000030F4000030F5002030F6008130F70013
:102294008831822490310030F4000030F5000030A1
:1022A400F6007E30F7008831F32690318831002320
:1022B400903170084301AE007108AF008030F20025
:1022C400803071067202031D69297008003C0318EE
:1022D400B6294001161EB32942012A08F0002B0832
:1022E400F1002C08F2002D08F300E830F40003306C
:1022F400F500F601F7018031B421903170084201F4
:102304004407EB007108453DEC007208463DED00C2
:102314007308473DEE002E08F0002F08F100300846
:10232400F2003108F300E830F4000330F500F60160
:10233400F7018031B4219031700842014407430110
:10234400AA0071084201453D4301AB0072084201F5
:10235400463D4301AC0073084201473D4301AD00D3
:10236400B629883111229031803044012306F000CF
:10237400803043016D067002031DCF296C084401AF
:102384002202031DCF2943016B0844012102031DCE
:10239400CF2943016A0844012002031CD929E730EC
:1023A4004301EA000330EB00EC01ED012D2A440166
:1023B400200843016A07F0004401210843016B3DF2
:1023C400F1004401220843016C3DF200440123085A
:1023D40043016D3DF3006430F400F501F601F701AB
:1023E4008031B421903143016A08F4006B08F50090
:1023F4006C08F6006D08F70044012008F402210877
:10240400F53B2208F63B2308F73B88313E25903103
:1024140070084301EA007108EB007208EC007308CD
:10242400ED008030F400803073067402031D242A0A
:102434007208003C031D242A7108033C031D242A4E
:102444007008E73C03182D2A4301E730EA00033003
:10245400EB00EC01ED0143016A08A8006B08A90038
:0224640008006E
:102466007408003A031D402A7508003A031D402AE5
:10247600FF30F0007F30F1009A2A4001FD01F9019A
:10248600F801710870040319003471087506FA0022
:10249600FA1BFD09FB01F51F552AF409F509F40A93
:1024A6000319F50AF11F5C2AF009F109F00A03196C
:1024B600F10A71087504FA00FA1B712A88319A2705
:1024C60090317B18862AFD1F0034F009F109F00AC5
:1024D6000319F10AF809F909F80A0319F90A003487
:1024E600F51F822AF11B7E2A7108F9007008F80090
:1024F600F101F001662AF101F001F00A0034F10958
:10250600F009FB0A632AF80A0319F90A7408780223
:10251600031D662A75087902031D662AF901F8016A
:10252600F00A0319F10AF11F662A0000FF340800B9
:102536002C304301E4000130E5002C30E600013088
:10254600E700E801E901F22080302F06F000803034
:10255600420137067002031DB32A360843012E02D4
:10256600031CC52A803041016F06F000803043010C
:102576002F067002031DC22A2E0841016E02031C9B
:10258600C52A272B42016A1FCD2A00204301A80134
:10259600A901272B4201EA1CD42A4301A801A9015B
:1025A600272BF2206508003C031DDB2A6408003C4B
:1025B6000318EE2A0130E4020030E53B2F086902D9
:1025C600031DE72A2E0868020318ED2A2E08E800E4
:1025D6002F08E900262B690840014E06031DF62A3E
:1025E6004D08430168060319FE2A43016808EA00FC
:1025F6006908EB007320430168084001CD004301E0
:1026060069084001CE004301E801E9012C30E400ED
:102616000130E5006708003C031D132B6608003CEB
:1026260003181A2B0130E6020030E73B1D2BA801E8
:10263600A901272B0B30FC006230FD00FD0B212B7E
:0A264600FC0B212B0000A72A08005E
:10265000400160084301E3000A30F40040016008D3
:10266000F0008831C627903170084301E2007008FD
:10267000003A031D3D2B0130E2009B224301280854
:10268000E0002908E100620840016007F0007008DE
:10269000E0005F084401A4007008A50040015E0846
:1026A0004401A6008831002090313430FC00F13024
:1026B000FD00FD0B592BFC0B592B000000009B2249
:1026C000803043016106F000803029067002031D4E
:1026D0006B2B28086002031CD22B2808E000290875
:1026E000E100400160084301E30062084001E007A7
:1026F000430162087F3CF100F2010030F23B803080
:102700007206F00080307002031D892B40016008C2
:102710007102031CD12B40015F084401A400400159
:1027200060084401A50040015E084401A60088310C
:10273000002090313430FC00F130FD00FD0B9E2B69
:10274000FC0B9E2B000000009B22803043016106A1
:10275000F000803029067002031DB02B28086002AB
:10276000031CCC2B400160084301E3002808E00073
:102770002908E1000A30F40040016008F0008831C7
:10278000C627903170084301E2007008003A031D2B
:10279000CB2B0130E200CD2BD12B62084001E007AA
:1027A000782B252C43012808E0002908E100620865
:1027B0004001E0024301620840016002031C252C35
:1027C0005F084401A400400160084401A5004001E5
:1027D0005E084401A6008831002090313430FC00AE
:1027E000F130FD00FD0BF22BFC0BF22B0000000082
:1027F0009B22803043016106F00080302906700280
:10280000031D042C28086002031C202C40016008D2
:102810004301E3002808E0002908E1000A30F40041
:1028200040016008F0008831C627903170084301EC
:10283000E2007008003A031D1F2C0130E200212C39
:10284000252C62084001E002DA2B430163084001B5
:10285000E0005F084401A400430163084401A500AF
:1028600040015E084401A6008831002090313430D8
:10287000FC00F130FD00FD0B3B2CFC0B3B2C000061
:04288000000008004C
:102884004301E2019B220A30F4000030F5004301C9
:102894002808F0002908F100332270084301E00001
:1028A4007108E10001304001DF0040305F0203188D
:1028B4009C2C5F084401A400400160084401A50069
:1028C40040015E084401A600883100209031343074
:1028D400FC00F130FD00FD0B6D2CFC0B6D2C000099
:1028E40000009B220A30F4000030F5004301280860
:1028F400F0002908F100332270084301A800710890
:10290400A90080306106F200803071067202031D56
:102914008D2C70086002031C982C40015F08430151
:10292400E2002808E0002908E100992C9C2C4001D1
:10293400DF35572C430162084001DF004301620880
:102944004401A400400160084401A50040015E0860
:102954004401A6008831002090313430FC00F1306D
:10296400FD00FD0BB32CFC0BB32C00000000080091
:1029740040015F084301E3000A30F40040015F08AE
:10298400F0008831C627903170084301E2007008D6
:10299400003A031DCF2C0130E2009B22430128089A
:1029A400E0002908E100620840015F07F0007008B8
:1029B400DF0070084401A400400160084401A50040
:1029C40040015E084401A600883100209031343073
:1029D400FC00F130FD00FD0BED2CFC0BED2C000098
:1029E40000009B22803043016106F00080302906FC
:1029F4007002031DFF2C28086002031C662D2808A2
:102A0400E0002908E10040015F084301E300620897
:102A14004001DF07430162087F3CF100F20100300E
:102A2400F23B80307206F00080307002031D1D2DD1
:102A340040015F087102031C652D40015F084401D9
:102A4400A400400160084401A50040015E0844015F
:102A5400A6008831002090313430FC00F130FD00B4
:102A6400FD0B322DFC0B322D000000009B22803028
:102A740043016106F000803029067002031D442DD5
:102A840028086002031C602D40015F084301E30035
:102A94002808E0002908E1000A30F40040015F083A
:102AA400F0008831C627903170084301E2007008B5
:102AB400003A031D5F2D0130E200612D652D62088F
:102AC4004001DF070C2DB92D43012808E000290837
:102AD400E10062084001DF024301620840015F0235
:102AE400031CB92D5F084401A4004001600844019F
:102AF400A50040015E084401A60088310020903101
:102B04003430FC00F130FD00FD0B862DFC0B862DCE
:102B1400000000009B22803043016106F0008030F9
:102B240029067002031D982D28086002031CB42D89
:102B340040015F084301E3002808E0002908E100A0
:102B44000A30F40040015F08F0008831C627903154
:102B540070084301E2007008003A031DB32D0130F0
:102B6400E200B52DB92D62084001DF026E2D43014C
:102B740063084001DF00430163084401A4004001ED
:102B840060084401A50040015E084401A6008831A4
:102B9400002090313430FC00F130FD00FD0BD02DCD
:0A2BA400FC0BD02D0000000008001B
:102BAE004301E2019B220A30F4000030F50043019C
:102BBE002808F0002908F100332270084301E000D4
:102BCE007108E10001304001DF0040305F02031860
:102BDE00312E5F084401A40040015F084401A500A6
:102BEE0040015E084401A600883100209031343047
:102BFE00FC00F130FD00FD0B022EFC0B022E00003E
:102C0E0000009B220A30F4000030F5004301280832
:102C1E00F0002908F100332270084301A800710862
:102C2E00A90080306106F200803071067202031D29
:102C3E00222E70086002031C2D2E40015F084301F6
:102C4E00E2002808E0002908E1002E2E312E400176
:102C5E00DF35EC2D430162084001DF0043016208BD
:102C6E004001E000430162084401A40043016208F0
:102C7E004401A50040015E084401A60088310020F1
:102C8E0090313430FC00F130FD00FD0B4C2EFC0B6E
:082C9E004C2E000000000800AC
:102CA6004301E2019B220A30F4000030F5004301A3
:102CB6002808F0002908F100332270084301E000DB
:102CC6007108E10001304001E00040306002031865
:102CD600AD2E5F084401A400400160084401A50030
:102CE60040015E084401A60088310020903134304E
:102CF600FC00F130FD00FD0B7E2EFC0B7E2E00004D
:102D060000009B220A30F4000030F5004301280839
:102D1600F0002908F100332270084301A800710869
:102D2600A90080306106F200803071067202031D30
:102D36009E2E70086002031CA92E40016008430104
:102D4600E2002808E0002908E100AA2EAD2E400185
:102D5600E035682E430162084001E0005F08440147
:102D6600A400430162084401A50040015E08440135
:102D7600A6008831002090313430FC00F130FD008F
:0E2D8600FD0BC32EFC0BC32E00000000080046
:102D94004001E001DF014401A401A50140015E08F6
:102DA4004401A6008831002090310330FB00083034
:102DB400FC007730FD00FD0BDD2EFC0BDD2EFB0B44
:102DC400DD2E9B228030F000803043012906700202
:102DD400031DEE2E2808783C031CF12E052F983194
:102DE400002090319B228030F0008030430129067E
:102DF4007002031DFF2E2808783C031C022F052FA8
:082E04008831D6279031080047
:102E0C00CA269B228030F0008030430129067002D4
:102E1C00031D122F2808783C031C152F752F28082A
:102E2C00D0002908D100400160084301D2004001C4
:102E3C005F084301D30040015E08013A031D282FAF
:102E4C00DE012A2F0130DE00CA269B22803043018E
:102E5C005106F000803029067002031D372F280818
:102E6C0050020318642F40015E08013A031D402FE5
:102E7C00DE01422F0130DE00430152084001E00028
:102E8C00430153084001DF00430153084401A400EF
:102E9C00430152084401A50040015E084401A6000C
:102EAC008831002090313430FC00F130FD00FD0BF6
:102EBC005D2FFC0B5D2F000000009B228030F0008A
:102ECC008030430129067002031D6E2F2808783CC0
:102EDC00031C712F752F8831D62790319B22080047
:102EEC004001971102304401A700A8012030A9002D
:102EFC000130AA000930AB0080311D24903119112A
:102F0C009B228030F0008030430129067002031DA3
:102F1C00912F2808633C0318C92F06274301280862
:102F2C004001CF00430129084001D000430128088B
:102F3C004201E800430129084201E9000230440142
:102F4C00A700A8013830A9000130AA000430AB005A
:102F5C0080311D24903102304401A7002A30A80092
:102F6C003D30A9000130AA000130AB0080311D2496
:102F7C0090314F084401A400400150084401A500C1
:102F8C008031412790314001191597154201EA1102
:102F9C006A11E7014408CC004508CD004608CE0074
:102FAC004708CF004408C8004508C9004608CA00B5
:062FBC004708CB000800ED
:1030000010304301DA002730DB001030DC002730BD
:10301000DD001030DE002730DF009031532698317C
:1030200090314224983190319B2298318030F000C9
:103030008030430129067002031D20282808783CAF
:10304000031C232838292808DA002908DB0040015E
:103050005F084301D400400160084301D5004001EE
:103060006008023C0130031C0030F1005F08023CA4
:103070000130031C0030F0007108F00503197828B6
:10308000E001DF014401A401A50140015E08440103
:10309000A6008831002098313430FC00F130FD006A
:1030A000FD0B5028FC0B50280000000090314224FA
:1030B000983190315326983190319B22983180304D
:1030C000F0008030430129067002031D692828089A
:1030D000783C031C6C2838292808DC002908DD000E
:1030E00040015F084301D600400160084301D7005A
:1030F00040016008023C0130031C0030F1005F0811
:10310000023C0130031C0030F0007108F005031987
:10311000BE28E001DF014401A401A50140015E08D1
:103120004401A6008831002098313430FC00F13091
:10313000FD00FD0B9928FC0B992800000000903140
:10314000D725983190319B2298318030F000803023
:10315000430129067002031DAF282808783C031C90
:10316000B22838292808DE002908DF0040015F085E
:103170004301D800400160084301D9004301803079
:103180005D06F10080305B067102031DC9285A08F4
:103190005C020130031C0030F10080305F06F0005B
:1031A00080305B067002031DD7285A085E0201308A
:1031B000031C0030F0007108F0050319E7285508DA
:1031C0004001E000430154084001DF00382980300D
:1031D00043015B06F10080305D067102031DF22899
:1031E0005C085A020130031C0030F10080305F0699
:1031F000F00080305D067002031D00295C085E024D
:103200000130031C0030F0007108F005031910298B
:1032100057084001E000430156084001DF0038290B
:10322000803043015B06F10080305F067102031DB0
:103230001B295E085A020130031C0030F100803067
:103240005D06F00080305F067002031D29295E08CC
:103250005C020130031C0030F0007108F005031916
:10326000382959084001E000430158084001DF00B7
:02327000080054
:10327200803149219831410159084401B800803117
:103282006321983140304401B80080316321983184
:103292000A30F4000030F50043014708F000480806
:1032A200F10090313322983170084301C700710850
:1032B200C80080307106F2008030013A7202031DAC
:1032C20064292C30700203186B292C30C70001309E
:1032D200C8007B298030013AF00080304806700235
:1032E200031D75294708A43C03187B29A430C70095
:1032F2000130C8002C304702F3000130483BF40093
:103302007308C7007408C8000530F2007308F000A3
:103312007408F100720803199229F035F10DFF3E8D
:103322008C297008C7007108C8007830F40000309A
:10333200F50090313322983170084301CA001930E8
:103342007002031CAE2918304A02CB000830CC00B0
:103352000830CD000830CE00CC2911304A02031CBF
:10336200BB29CB0110304A02CC000830CD00083016
:10337200CE00CC2909304A02031CC729CB01CC015B
:1033820008304A02CD000830CE00CC29CB01CC0156
:10339200CD014A08CE008030CF0001304B02F00050
:1033A200F1010030F13B7008F1004F08F0007108A4
:1033B2000319DE29F036FF3ED9297008FF3CCF0001
:1033C200CF0A0330CF044401B1017730B20080311B
:1033D2004E22983143014F084401B80080316321E5
:1033E200983143014F084401B8008031632198317C
:1033F20043014F084401B8008031632198311F30E6
:103402004301CF044401B1017530B20080314E2234
:10341200983143014F084401B8008031632198314B
:1034220043014F084401B8008031632198314401BF
:10343200B1017A30B20080314E22983143014F08F7
:103442004401B80080316321983143014F0844019F
:10345200B80080316321983180304301CF000130C0
:103462004C02F000F1010030F13B7008F1004F080E
:10347200F00071080319402AF036FF3E3B2A70081B
:10348200FF3CCF00CF0A01304401B1007530B200D9
:1034920080314E2298314301C9014908063C031C80
:1034A2005B2A4F084401B8008031632198314301FF
:1034B200C90A4E2A8030CF0001304D02F000F101DE
:1034C2000030F13B7008F1004F08F0007108031959
:1034D2006D2AF036FF3E682A7008FF3CCF00CF0A03
:1034E20002304401B1007530B20080314E22983171
:1034F2004301C9014908063C031C882A4F084401BC
:10350200B8008031632198314301C90A7B2A803097
:10351200CF0001304E02F000F1010030F13B7008A3
:10352200F1004F08F000710803199A2AF036FF3EA5
:10353200952A7008FF3CCF00CF0AC030CF04033079
:103542004401B1007530B20080314E2298314301FE
:10355200C9014908063C031CB72A4F084401B800B8
:103562008031632198314301C90AAA2A80319A2104
:043572009831080084
:103576008B1340019E134E018C1216167E01CA1241
:10358600C91640011612171697154301C7014708B9
:10359600003A031DDD2A0530FB000F30FC00F13038
:1035A600FD00FD0BD42AFC0BD42AFB0BD42A7E018A
:1035B600CA12630000000530FB000F30FC00F1303A
:1035C600FD00FD0BE42AFC0BE42AFB0BE42A400178
:1035D6008D1AEF2A0314F02A0310031CF52A43015F
:1035E600C70AF72A4301C70147080F3C0318FC2AFC
:1035F600FD2ACA2A4E0116127E01C912CA124001BC
:103606009E178B1742016A148831112298314001A6
:103616008D1A0F2B0314102B0310031C142B000000
:0E3626000A2B4201E70144084301C7000800D7
:1036340080312123983101304401A700A801DE30F4
:10364400A9000030AA000B30AB0080311D24983152
:103654005230FB002B30FC000030FD00FD0B302B02
:0E366400FC0B302BFB0B302B0000BB220800B0
:10367200400197111616191190319B229831803012
:10368200F0008030430129067002031D4A2B2808EE
:10369200633C03184F2B90310627983140011915CE
:1036A200430128084001CF00430129084001D0000E
:0836B200971542016A1108009E
:1036BA006430420132024301C10000304201333B0F
:1036CA004301C2000330FB000830FC007730FD00E4
:1036DA00FD0B6D2BFC0B6D2BFB0B6D2B5830C000BB
:1036EA00C301C401C501C6014201EF0143014008FB
:1036FA0042016F020318A42B9031F22098318030D6
:10370A004406F00080302F067002031D8E2B2E080F
:10371A0043020318982B2E08C3002F08C400280858
:10372A00C5002908C6000B30FC006230FD00FD0B05
:10373A009C2BFC0B9C2B00004201EF0A7B2B803058
:10374A00F0008030430144067002031DAE2B43088B
:10375A00003C0318FB2B4001161EF82B42012A08D5
:10376A00F0002B08F1002C08F2002D08F300E830D5
:10377A00F4000330F500F601F7018031B4219831E5
:10378A00700842014407EB007108453DEC007208DD
:10379A00463DED007308473DEE002E08F0002F0865
:1037AA00F1003008F2003108F300E830F400033089
:1037BA00F500F601F7018031B42198317008420111
:1037CA0044074301AA0071084201453D4301AB0089
:1037DA0072084201463D4301AC0073084201473D6D
:1037EA004301AD00FB2B8831112298314408400176
:1037FA004E06031D032C4D08430143060319332CBF
:10380A0042016A1E162C4401A7012A30A80034304E
:10381A00A9000130AA000130AB0080311D24983183
:10382A00232C4401A7012A30A800DC30A90000306B
:10383A00AA000130AB0080311D24983143014308AE
:10384A004001CD00430144084001CE004301430832
:10385A00EA004408EB009031732098318030F00080
:10386A008030430146067002031D3D2C4508633C27
:10387A000318762C460840015006031D472C4F08B2
:10388A00430145060319762C430145084001CF0040
:10389A00430146084001D000803043014406F0004D
:1038AA0080307002031D5B2C0A30430203186B2C14
:1038BA00C501C60140014F084401A4004001500857
:1038CA004401A500803141279831492D40014F0814
:1038DA004401A400400150084401A5008031412759
:1038EA00983142016A1EEE2C03304301C0004008A1
:1038FA00003A0319B82C02304401A7000630A80088
:10390A00B530A9000030AA000930AB0080311D246F
:10391A0098311530FB004B30FC00BE30FD00FD0B2A
:10392A00942CFC0B942CFB0B942C000002304401C9
:10393A00A700A801BF30A9000030AA000930AB00D7
:10394A0080311D2498311530FB004B30FC00BE300D
:10395A00FD00FD0BAE2CFC0BAE2CFB0BAE2C0000BD
:10396A004301C0037C2C02304401A700A801C930DE
:10397A00A9000030AA000930AB0080311D2498311B
:10398A0002304401A7002A30A800B330A900003051
:10399A00AA000130AB0080311D249831430145084B
:1039AA004401A400430146084401A500803141278F
:1039BA0098311530FB004B30FC00BE30FD00FD0B8A
:1039CA00E42CFC0BE42CFB0BE42C000042016A12F1
:1039DA00492D803043014406F00080304201370609
:1039EA007002031DFB2C360843014302031C492DB8
:1039FA00430180304406F000803041016F067002B6
:103A0A00031D0A2D6E08430143020318492D430181
:103A1A008030F000803046067002031D162D4508DE
:103A2A00633C0318492D4201680843014502F1002D
:103A3A00420169084301463BF20080304206F00029
:103A4A00803072067002031D2C2D71084102031C7E
:103A5A00452D450842016802F1004301460842012A
:103A6A00693BF200803043014206F0008030720662
:103A7A007002031D422D71084102031C452D492D78
:0A3A8A00903176279831492D08008D
:103A94007E01B801C3014314C3144315CE01E401EC
:103AA400D90153019013941340018C018D018E01AF
:103AB4008F0190019601970110309800063099000B
:103AC4009A019101273092009301940195017E019E
:103AD4003A15BA15DB145B1540019F121F179F138B
:103AE4001E16C0309C00E0309D004E018C12400137
:103AF4009E174E0196161E304F019600FE30970019
:103B0400473098007F30990077309A00DF309B006F
:103B14008B170530FB000F30FC00F130FD00FD0B6E
:0C3B2400912DFC0B912DFB0B912D080046
:103B30008831EF219831230840014C06031DA32D45
:103B40004B08430122060319D32D430122084001EB
:103B5000CB00430123084001CC0043012208C700E9
:103B60002308C800392180300E3AF000803043012C
:103B700023067002031DBE2D2208D83C031CCB2D4A
:103B80000130400161074301A00000304001623D67
:103B90004301A100D32D400161084301A000400171
:103BA00062084301A100430180300E3AF0008030EA
:103BB00023067002031DDE2D2208743C0318F22D2B
:103BC0004001971117160230FB003830FC00AD3071
:103BD000FD00FD0BE92DFC0BE92DFB0BE92D9715E5
:103BE0001716222E80300E3AF00080304301230653
:103BF0007002031DFD2D2208063C0318112E400102
:103C0000971117120230FB003830FC00AD30FD0078
:103C1000FD0B082EFC0B082EFB0B082E9715171614
:103C2000222E4001171297150230FB003830FC009D
:103C3000AD30FD00FD0B1A2EFC0B1A2EFB0B1A2EBD
:103C400017169715803043012306F00080300D3A97
:103C50007002031D2D2E4830220203184E2E803193
:103C60002123983101304401A700A8016330A90045
:103C70000030AA000B30AB0080311D249831523047
:103C8000FB002B30FC000030FD00FD0B452EFC0B33
:0E3C9000452EFB0B452E00001612BB2208002D
:103C9E00A031282298314A254001171619154201E4
:103CAE006A148831112298318831E92798314201FE
:103CBE006A122A08F0002B08F1002C08F2002D08D9
:103CCE00F300E830F4000330F500F601F70180311F
:103CDE00B4219831700842014407EB007108453D4C
:103CEE00EC007208463DED007308473DEE002E08CD
:103CFE00F0002F08F1003008F2003108F300E83030
:103D0E00F4000330F500F601F7018031B42198314B
:103D1E007008420144074301AA0071084201453D63
:103D2E004301AB0072084201463D4301AC007308EB
:103D3E004201473D4301AD00400161084301A0002F
:103D4E00400162084301A10042014F084702031DD2
:103D5E00BA2E4E084602031DBA2E4D084502031D0B
:103D6E00BA2E4C084402031CC42EB830CC070B30BC
:103D7E00CD3D0030CE3DCF3D982542014B08470248
:103D8E00031DD32E4A084602031DD32E49084502B1
:103D9E00031DD32E48084402031CDD2E2C30C80709
:103DAE000130C93D0030CA3DCB3D5D2342016E0856
:103DBE004702031DEC2E6D084602031DEC2E6C0807
:103DCE004502031DEC2E6B084402031CF02E40012D
:103DDE00161243012D0842014702031D062F43010F
:103DEE002C0842014602031D062F43012B084201F7
:103DFE004502031D062F43012A0842014402031CFB
:103E0E00092FBB2242016A1F162F4001161E132FC7
:103E1E00903100209831162F8831112298314201AD
:103E2E00EA1D232F4001161E202F90317627983140
:103E3E00232F8831112298314201EA1C2E2F400186
:103E4E00161E2B2F1A232E2F883111229831420144
:103E5E00EA1E3A2F4001161A372F88311122983157
:103E6E009031002098316A1D472F4001161A442FB9
:103E7E003923883111229831472F90317627983186
:043E8E00AB2E482FE0
:10445000823084009F3085002F30F0000130F10061
:104460002F308600003087008031F027A031DD300A
:1044700084009F3085001330F0000130F100A0303F
:104480008600003087008031F027A031163084008C
:10449000A23085001130F0000130F1005E3086005E
:1044A000003087008031F027A031E0308400A13057
:1044B00085002430F0000130F100B3308600003078
:1044C00087008031F027A0310330840080308500E0
:1044D0000130F0000130F1006F30860000308700BD
:1044E0008031F027A031E13084009730850017300B
:1044F000F0000130F100D7308600003087008031B5
:10450000F027A03104308400A23085001230F00082
:104510000130F10020308600013087008031F02723
:10452000A031F9308400873085000230F00001307E
:10453000F100EE308600003087008031F027A03196
:104540004A3084009F3085003830F0000130F1009F
:1045500032308600013087008031F027A03108001A
:020006000034C4
:040FF20096340034FD
:022FC2000134D8
:022FC4000234D5
:042FC6007834003427
:022FCA00403491
:042FCC003D3400345C
:102FD000203450344F3457344534523420344F3435
:082FE00046344634203400346D
:082FE80030342E343034003483
:043E94008234003440
:043E98003E34003480
:043E9C000A340034B0
:0A3EA00053345734523420340034F8
:043EAA003D3400346F
:0A3EAE0030342E3430343034003448
:083EB800003400340034003432
:083EC00000340034003400342A
:083EC800003400340034003422
:0C3ED00053345734523420342034003472
:043EDC003D3400343D
:103EE000523445345334453454342034203420344F
:043EF0002034003446
:0A3EF40030342E3430343034003402
:023EFE0000348E
:043F000064340034F1
:103F04005334573452342034203420342034203471
:043F14002034003421
:043F18003D34003400
:043F1C003D340034FC
:103F20005034573452342034203420342034203458
:043F300057340034CE
:083F340031342E343534003421
:043F3C000034003419
:043F40000F342734DF
:043F44000034003411
:103F480020344634573420345634453452345334AC
:0A3F580049344F344E342034003455
:103F6200F834F8341F341F340334033403341F3459
:103F72001F34F834F834FF34FF3400340034003492
:103F82000034003400340034FF34FF34FF34FF3493
:103F92000034003400340034003400340034FF3480
:103FA200FF34FF34FF34C034C034C034C034C034B2
:083FB200C034C034FF34FF34B9
:103FBA002034443445345334493447344E34453438
:103FCA00443420344234593420344E34373444345F
:063FDA00443443340034BE
:1040000000340034003400340034003400345F34B1
:1040100000340034003407340034073400341434DE
:104020007F3414347F34143424342A347F342A34D3
:10403000123423341334083464346234363449344B
:104040005534223450340034053403340034003401
:1040500000341C34223441340034003441342234DE
:104060001C34003408342A341C342A34083408340C
:1040700008343E34083408340034503430340034CA
:104080000034083408340834083408340034303438
:104090003034003400342034103408340434023412
:1040A0003E345134493445343E34003442347F3454
:1040B000403400344234613451344934463421347C
:1040C000413445344B3431341834143412347F3491
:1040D0001034273445344534453439343C344A347B
:1040E00049344934303401347134093405340334EB
:1040F0003634493449344934363406344934493441
:1041000029341E340034363436340034003400345C
:104110005634363400340034003408341434223435
:1041200041341434143414341434143441342234E7
:104130001434083400340234013451340934063460
:1041400032344934793441343E347E3411341134BC
:1041500011347E347F3449344934493436343E3462
:1041600041344134413422347F34413441342234A7
:104170001C347F3449344934493441347F34093460
:104180000934013401343E34413441345134323441
:104190007F340834083408347F34003441347F34A9
:1041A000413400342034403441343F3401347F34CE
:1041B00008341434223441347F34403440344034A1
:1041C00040347F340234043402347F347F34043486
:1041D000083410347F343E344134413441343E3469
:1041E0007F3409340934093406343E3441345134BF
:1041F00021345E347F34093419342934463446344A
:104200004934493449343134013401347F34013480
:1042100001343F344034403440343F341F34203480
:10422000403420341F347F342034183420347F3419
:104230006334143408341434633403340434783469
:104240000434033461345134493445344334003444
:1042500000347F344134413402340434083410349F
:104260002034413441347F34003400340434023487
:104270000134023404344034403440344034403457
:1042800000340134023404340034203454345434BF
:10429000543478347F3448344434443438343834F3
:1042A000443444344434203438344434443448347A
:1042B0007F343834543454345434183408347E340D
:1042C00009340134023408341434543454343C3442
:1042D0007F340834043404347834003444347D3476
:1042E000403400342034403444343D34003400340D
:1042F0007F34103428344434003441347F34403423
:1043000000347C3404341834043478347C34083475
:104310000434043478343834443444344434383441
:104320007C341434143414340834083414341434FD
:1043300018347C347C34083404340434083448346D
:10434000543454345434203404343F3444344034EA
:1043500020343C344034403420347C341C34203409
:10436000403420341C343C344034303440343C3409
:10437000443428341034283444340C345034503409
:1043800050343C344434643454344C344434003475
:104390000834363441340034003400347F3400347F
:1043A00000340034413436340834003408340834DE
:1043B0002A341C34083408341C342A3408340834B1
:0443C0003D34003454
:1043C4004F345634453452344C344F3441344434ED
:0443D400203400345D
:1043D8002034203420342034203420342034203435
:0443E8002034003449
:1043EC005334573452342034203420342034203485
:0443FC002034003435
:084400000034003400340034E4
:10440800543455344E344534203420342034203448
:044418002034003418
:08441C002C340134003400349B
:084424000834073400340034B1
:02442C0000345A
:02442E00003458
:02443000003456
:044432000834003416
:10443600203420344C344F34573420344234413401
:084446005434543420340034D6
:020000040001F9
:0A000E000429213E1F3F03300300C8
:00000001FF
