:040000009831F82C0F
:1000080070084001AE007108AD007208AC007308BA
:10001800AB007408AA007508A9007608A80077083C
:10002800A7007808A6007908A5007A08A4007B082C
:10003800A3007C08A20080314E018C1E30288C124F
:1000480001304201CC070030CD3DCE3DCF3DC03020
:1000580040019C00E0309D0042013E084F02031D14
:100068003F283D084E02031D3F283C084D02031D52
:100078003F283B084C02031C0E290A30BB070030FE
:10008800BC3DBD3DBE3D40018D1A4C2874144D2821
:1000980074108F1851280314522803107418582804
:1000A80003185828741059287414741C9C2840018B
:1000B8005308F0005408F1005508F2005608F30000
:1000C800E830F4000330F500F601F701BE217008AE
:1000D80042014C074301BD00710842014D3D4301F7
:1000E800BE00720842014E3D4301BF007308420141
:1000F8004F3D4301C00040015708F0005808F10087
:100108005908F2005A08F300E830F4000330F5000B
:10011800F601F701BE21700842014C07EC00710896
:100128004D3DED0072084E3DEE0073084F3DEF0067
:1001380040018D1AA1280314A2280310031CC1280A
:100148004001FA3064020318AA28E40A6408193A3C
:10015800031DB0284301A01640016408FA3A013093
:10016800031D0030F100F001161AF00A7108F005BD
:100178000319C02843012016D82840016408023C0E
:10018800013003180030F1001930640201300318FF
:100198000030F0007108F0050319D7284301201733
:1001A8004001E401D828E40140018F18DD28031438
:1001B800DE280310031CF7281930410146020318F2
:1001C800E628C60A4608143A0130031D0030F1003B
:1001D800F00140010F19F00A7108F0050319F6281B
:1001E8004301A0140E2941014608013C01300318BF
:1001F8000030F1000A304602013003180030F000E8
:100208007108F00503190D29430120144101C601A5
:100218000E29C60140012E08F0002D08F1002C0817
:10022800F2002B08F3002A08F4002908F500280832
:10023800F6002708F7002608F8002508F900240822
:0C024800FA002308FB002208FC0009005B
:10025400F10108307102031849294401B41B3529FE
:10026400400116113729400116152730FD00FD0BFA
:1002740039290000000096152730FD00FD0B4029A8
:100284000000000096114401B435F10A2B29400105
:1002940016152730FD00FD0B4D29000000009615B2
:1002A40000300C190130F2002730FD00FD0B5829F5
:1002B4000000000096112730FD00FD0B5F290000AF
:0802C40000007208F0000800C0
:1002CC004001F801F9011030FC00710DF80DF90D29
:1002DC007408F8027508031C750FF90203187D29C0
:1002EC007408F80775080318750FF9070310F00D5B
:0802FC00F10DFC0B6B29080059
:10030400400196152730FD00FD0B862900000000F2
:1003140016152730FD00FD0B8D2900000000161175
:100324002730FD00FD0B94290000000096112730B2
:0C033400FD00FD0B9B29000000000800EC
:0C0340003A30FD00FD0BA229000008006F
:10034C0040017008F100F0010830FC007108F40C59
:10035C000318B429FC0BAD29F10100340310B929A1
:10036C00F40C0318F107F10CF00CFC0BB629080087
:10037C0040012230FC00F801F901FA01FB01FC03F9
:10038C000319F3290310FB0CFA0CF90CF80CF30C01
:10039C00F20CF10CF00C031CC529FC030319E52924
:1003AC007408F80775080318750FF9077608031811
:1003BC00760FFA0777080318770FFB07C92974081B
:1003CC00F80775080318750FF90776080318760FE8
:0C03DC00FA0777080318770FFB070800EA
:1003E800400116112730FD00FD0BF8290000000020
:1003F80096152730FD00FD0BFF290000000016159B
:0E0408002730FD00FD0B062A00000000080052
:1004160040016F0844012E07B100822141014708BF
:100426004401B4002A214401B4012A2144012D08C3
:10043600B03EB4002A21440131080F3C031C272A90
:100446003108AF00B001382A3108F200F236F23630
:10045600F236F2367208B0007208F000F035F03568
:10046600F035F03570083102AF002F08B4002A21AC
:1004760044013008103EB4002A2182214101470878
:100486004401B4002A2140304401B4002A21080066
:100496004401B1010530310203185B2A31082F07E8
:1004A60086000030303D870020308100B10A4D2A99
:1004B60031082F0786000030303D87008101B103E7
:1004C60031082F07B2000030303DB3000A30F40087
:1004D600F5012D08F0002E08F10066217808F000DD
:1004E6007908F1003030F0074401320886003308FD
:1004F6008700700881000A30F400F5012D08F0002D
:100506002E08F100662170084401AD007108AE00A6
:1005160000307106031D912A00307006031D942ACF
:08052600962AB103632A0800C4
:10052E006C304301A1000330A2002330A30002303F
:10053E00A40041019301940195019601EC309A05B6
:10054E00133044012305F000700841019A04C030B5
:10055E0044012305F0000319CA2AC0302305F20016
:10056E000630F1007208F00071080319C12AF03646
:10057E00FF3EBC2A700852018C008C170C1BC92A36
:10058E000000C52ACD2A5201FC308C0541011316FC
:06059E001315931708007D
:1005A4004001FB01FA01F9018030F800F10CF00C74
:1005B400031CE52A7408F90775080318750FFA0770
:1005C4000318FB0A0310F01FED2A7408FA077508D4
:1005D4000318750FFB07FB0CFA0CF90CF80C031C41
:1005E400D82A7B08F3007A08F2007908F100780829
:0405F400F00008000B
:0805F800FA1FF21300300800A5
:1006000040304401A5001F30A600A701A8014030DA
:10061000F0001F30F1000030F2000030F30023083A
:10062000F4002408F500F601F701BE21700844012A
:10063000A5007108A6007208A7007308A800003082
:100640007302031D2D2B00307202031D2D2B02306F
:100650007102031D2D2BB23070020318302B5F2B5B
:10066000B230A5020230A63B0030A73BA83B0530C4
:10067000F00070080319422BA836A70CA60CA50C95
:10068000FF3E3A2B2508F0002608F1002708F2006B
:100690002808F3000130A5020030A63BA73BA83B89
:1006A000700871047204730403195F2B00000000CA
:1006B000000000000000000000000000422B0800C5
:1006C0007B15FB1F6A2B0130F300F201F101F001F1
:0806D000FA0DF20CFF300800E6
:1006D8003F304401230541019E00A021131400006E
:1006E800131C772B742B0C08F0000D08F100080080
:1006F80044012308AD002408AE000B224401A801E0
:10070800270828020318B12B280825078400003081
:10071800263D850020300002AA00A90105302902E3
:100728000318AC2B2A08F0000530F400A621440178
:100738002908F0070030F13DFF30700784009D3034
:10074800713D85000008B4002A214401A90A922BB2
:0E075800B4012A214401A80A842BF4210800D0
:100766004401A901AA012308AB002408AC0080308B
:100776002406F00080307002031DC32B00302302D4
:100786000318D12B0130A9000030AA002308003C31
:10079600AB002408031C013EAC01AC022B08AD00E3
:1007A6002C08AE002508AF002608B0004B22063004
:1007B600A7000030A8002808003C031DE42B2708EA
:1007C600003C0318FF2B2708250786002808263D2E
:1007D600870001302702F0000030283BF100700846
:1007E600250784007108263D850000088100013038
:1007F600A7020030A83BDE2B2508860026088700C6
:100806002030810029082A040319252CA701A801F4
:100816002708250784002808263D85000008203A79
:10082600031D192CA70A0319A80A0B2C0130A702CD
:100836000030A83B2708250786002808263D8700A4
:060846002D3081000800C6
:0E084C00F201F101F001F801F30100300800A3
:10085A008221410147084401B4002A218030440121
:10086A00B4002A2144012308B4002A21F4210800F3
:10087A00FB14FB1F472CFF30F300F200F100F000DD
:08088A00FA0DF20CFF3008002A
:100892008221410147084401B4002A214030440129
:1008A200B4002A214401A4012408073C031C6B2C38
:1008B2002408AD00AE010B224401A30144018030A3
:1008C20023020318682CA30AB4012A215F2C4401D5
:0808D200A40A552CF4210800D2
:1008DA008221410147084401B4002A2140304401E1
:1008EA00B4002A2144012308AD002408AE000B22DB
:1008FA004401A8012708280203180E2D28082507F5
:10090A0084000030263D85000008003A031D8F2C24
:10091A00AA01982C2808250784000030263D850066
:10092A0020300002AA00A9012908043C031C062D54
:10093A002A08F0000530F400A62144012908F0072E
:10094A000030F13DFF30700784009D30713D850015
:10095A000008AB002308023A0319DC2CAB19B72CA8
:10096A00AC13B82CAC17AB19BC2C2C13BD2C2C1700
:10097A002B19C12CAC12C22CAC162B19C62C2C125A
:10098A00C72C2C16AB18CB2CAC11CC2CAC15AB1835
:10099A00D02C2C11D12C2C152B18D52CAC10D62CD4
:1009AA00AC142B18DA2C2C10DB2C2C14FC2C2B1945
:1009BA00E02CAC13E12CAC172B19E52C2C13E62CEC
:1009CA002C17AB18EA2CAC12EB2CAC16AB18EF2C8C
:1009DA002C12F02C2C162B18F42CAC11F52CAC156F
:1009EA002B18F92C2C11FA2C2C15AC102C102C08C5
:1009FA00B4002A2144012C08B4002A214401A90A7E
:100A0A00992CB4012A214401B4012A214401A80ADB
:100A1A007F2C230AAD002408AE000B224401A80152
:100A2A00270828020318AC2D28082507840000305F
:100A3A00263D85000008003A031D252DAA012E2D0A
:100A4A002808250784000030263D85002030000252
:100A5A00AA00A9012908043C031CA42D2A08F000B5
:100A6A000530F400A62144012908F0070030F13DC1
:100A7A00FF30700784009D30713D85000008AB008F
:100A8A002308023A0319722DAB1B4D2DAC134E2DC0
:100A9A00AC17AB1B522D2C13532D2C172B1B572D78
:100AAA00AC12582DAC162B1B5C2D2C125D2D2C165E
:100ABA00AB1A612DAC11622DAC15AB1A662D2C1137
:100ACA00672D2C152B1A6B2DAC106C2DAC142B1A10
:100ADA00702D2C10712D2C149A2D2B1B762DAC13E6
:100AEA00772DAC172B1B7B2D2C137C2D2C17AB1AB7
:100AFA00802DAC12812DAC16AB1A852D2C12862DA9
:100B0A002C162B1A8A2DAC118B2DAC152B1A8F2D66
:100B1A002C11902D2C15AB19942DAC10952DAC14CD
:100B2A00AB19992D2C109A2D2C142C08B4002A21BB
:100B3A0044012C08B4002A214401A90A2F2DB4012A
:100B4A002A214401B4012A214401A80A152DF421BD
:020B5A00080091
:100B5C0040019711492401304401A300A401333012
:100B6C00A5000030A6001230A7007C2303304401FE
:100B7C00A300A4014630A5000030A6000C30A7004D
:100B8C007C2303304401A3005430A4005B30A50047
:100B9C000030A6000330A7007C237A30FB00C13064
:100BAC00FC008130FD00FD0BD92DFC0BD92DFB0B6E
:100BBC00D92D000000008D1AE52D0314E62D03102D
:0C0BCC00031CEA2D0000E12D9715080025
:100BD8008221410147084401B4002A2140304401E0
:100BE800B4002A214401A1012108033C031C1F2E43
:100BF8002108AD007330AE000B224401A00120088B
:100C08000A3C031C1D2E2108F0000B30F400A6211D
:100C180044012008F0070030F13D2D3070078400B2
:100C2800A030713D85000008B4002A214401A00AC3
:0A0C3800032EA10AF82DF421080094
:100C420044012018272E40019917292E400199139B
:100C52004401A0182F2E40011917312E40011913FB
:100C620044012019372E40019916392E400199125C
:100C72004401A0193F2E40011916412E40011912BC
:100C82004401201A472E40019817492E400198131B
:100C92004401A01A4F2E40011817512E400118137B
:100CA2004401201B572E40019816592E40019812DC
:100CB200440121185F2E40019616612E40019612C2
:100CC2004401A118672E40019A14692E40019A101E
:100CD200440121196F2E40019617712E400196137F
:100CE2004401A119772E40011617792E40011613DF
:100CF2004401211A7F2E40011814812E4001181040
:100D02004401A11A872E40019814892E400198109F
:100D12004401211B8F2E40011815912E40011811FC
:100D220044012218972E40011A10992E40011A14DC
:100D32009915430125084401A300430126084401F3
:100D4200A4000023400199111A30FD00FD0BA72ECB
:100D520000001812430125084401A300430126089C
:100D62004401A40000234001181643012508440150
:100D7200A300430126084401A40000234001991363
:100D820019139912191298131813981296129A108D
:0E0D9200961316131810981018111A10080056
:040DA000F421080032
:100DA400003044012106031DD92E00302006031D06
:100DB400E72E0230A3003C30A4002A30A500013005
:100DC400A6000430A7006D24062F44012008A300C8
:100DD4002108A400AB30A5000130A600B3234301D1
:100DE4002E08B3002E30B4002F08B5003008B6002A
:100DF40002304401A3003C30A400B330A50001300C
:0A0E0400A6000430A7006D240800CA
:100E0E0043304401A30097220230FC000830FD005D
:100E1E00FD0B0F2FFC0B0F2F000009304401A30018
:100E2E006C230B30F4000030F500D2227008430121
:080E3E00A9007108AA000800D8
:060E4600FB15FF3008005F
:100E4C007C185C2FFC182D2F7C197B2F262FA101D1
:100E5C007208031D4D2F7108F2007008F10078081C
:100E6C00F000F801A1157208031D4D2F7108F20056
:100E7C007008F100F001A11121167208031D4D2F0D
:100E8C007108F200F101A115720803196F2F2108E6
:100E9C00F302031D031C732F0310F21B5C2FF80DC0
:100EAC00F00DF10DF20DF30B532F732F7B1B701CF8
:100EBC00772FF81F772FF00A0319F10A0319F20A9A
:100ECC00031D772FF20CF10CF00CF30A03197B2F96
:100EDC00772F0130FC0026247E2F0230FC0060238B
:100EEC007E2F0430FC00FC227E2F0830FC003D24B9
:040EFC0000000800EA
:100F00007B14FB1F8B2FF201FA1FFF30F200F10060
:0A0F1000F000FA0DF20CFF300800AB
:100F1A00FB09FA09F909F809F80A0319F90A031980
:080F2A00FA0A0319FB0A080092
:100F3200A1017208031DAE2F7108F2007008F100C2
:100F4200F001A1157208031DAE2F7108F200F10124
:100F5200A111211672080319BC2F2108F302031DE7
:100F6200031CC02F0310F21BC42FF00DF10DF20D64
:100F7200F30BB42FC02F0130FC002624C72F023000
:0E0F8200FC006023C72F0430FC00FC22080096
:100F90004201BF014101EF01EE014401A001A101A5
:060FA000A2012126080059
:100FA60040017008F8007108F000F101F201F30148
:100FB600FB01FC019630F300FA01F01FE82FF80957
:100FC600F009F80A0319F00AFA177008F100780810
:0A0FD600F000F801F201992708006D
:100FE00012001E00F003031DF02FF103031DF02F6C
:020FF0000800F7
:101000007408F8027508031C750FF9027608031CB2
:10101000760FFA027708031C770FFB02F30D0730F7
:10102000FC00730DF80DF90DFA0DFB0D7408731C1F
:101030002728F8027508031C750FF9027608031CAF
:10104000760FFA027708031C770FFB023428F807A3
:1010500075080318750FF90776080318760FFA0755
:1010600077080318770FFB07F30DFC0B1128720D9F
:10107000F80DF90DFA0DFB0D7408731C4D28F802DC
:101080007508031C750FF9027608031C760FFA0227
:101090007708031C770FFB025A28F8077508031816
:1010A000750FF90776080318760FFA077708031803
:1010B000770FFB07F20D0730FC00720DF80DF90DEC
:1010C000FA0DFB0D7408721C7328F8027508031CD6
:1010D000750FF9027608031C760FFA027708031CD5
:1010E000770FFB028028F80775080318750FF907BA
:1010F00076080318760FFA0777080318770FFB07AF
:10110000F20DFC0B5D28710DF80DF90DFA0DFB0DBC
:101110007408721C9928F8027508031C750FF902EF
:101120007608031C760FFA027708031C770FFB0280
:10113000A628F80775080318750FF907760803182D
:10114000760FFA0777080318770FFB07F10D0730C2
:10115000FC00710DF80DF90DFA0DFB0D7408711CF2
:10116000BF28F8027508031C750FF9027608031CE6
:10117000760FFA027708031C770FFB02CC28F807DA
:1011800075080318750FF90776080318760FFA0724
:1011900077080318770FFB07F10DFC0BA928700DDA
:1011A000F80DF90DFA0DFB0D7408711CE528F80215
:1011B0007508031C750FF9027608031C760FFA02F6
:1011C0007708031C770FFB02F228F807750803184D
:1011D000750FF90776080318760FFA0777080318D2
:1011E000770FFB07F00D0730FC00700DF80DF90DBF
:1011F000FA0DFB0D7408701C0B29F8027508031C0E
:10120000750FF9027608031C760FFA027708031CA3
:10121000770FFB021829F80775080318750FF907EF
:1012200076080318760FFA0777080318770FFB077D
:10123000F00DFC0BF52870182B297408F8077508B9
:101240000318750FF90776080318760FFA07770861
:081250000318770FFB070800EB
:101258004401A0010A302002031855298031822157
:101268008831410147084401B40080312A2188317E
:101278007008003A031D412955298031F42188312D
:101288000D30FB002D30FC00D730FD00FD0B4A2946
:10129800FC0B4A29FB0B4A29000000004401A00A64
:1012A8002E294401B40180312A218831AE3044010D
:1012B800B40080312A218831D5304401B40080310E
:1012C8002A21883180304401B40080312A218831B4
:1012D800A8304401B40080312A2188313F304401CC
:1012E800B40080312A218831D3304401B4008031E0
:1012F8002A218831410149084401B40080312A215A
:10130800883140304401B40080312A2188318D3041
:101318004401B40080312A21883114304401B400DA
:1013280080312A21883181304401B40080312A215A
:101338008831FF304401B40080312A218831D93006
:101348004401B40080312A218831F1304401B400CD
:1013580080312A21883120304401B40080312A218B
:10136800883102304401B40080312A21883121308B
:101378004401B40080312A2188314401B40180310C
:101388002A2188317F304401B40080312A218831F4
:101398002E304401B40080312A21883141014A08A5
:1013A8000319E329A0304401B40080312A2188318F
:1013B800C0304401B40080312A218831EF29A1309E
:1013C8004401B40080312A218831C8304401B40076
:1013D80080312A218831DA304401B40080312A2151
:1013E800883102304401B40080312A218831DB3051
:1013F8004401B40080312A21883140304401B400CE
:1014080080312A218831A4304401B40080312A2156
:101418008831A6304401B40080312A2188318031D6
:10142800F4218831803149248831AF304401A30048
:0814380080312D2488310800E9
:101440007408003A031D392A7508003A031D392A29
:101450007608003A031D392A7708003A031D392A15
:10146000FF30F000FF30F100FF30F2007F30F3007A
:10147000D32A4001FC01F71BFC0AFD01FB01FA0124
:10148000F901F80173087204710470040319CC2A7D
:1014900073087706A000A01BFD09F71F5A2AF4095C
:1014A000F509F609F709F40A0319F50A0319F60A0A
:1014B0000319F70AF31F672AF009F109F209F30982
:1014C000F00A0319F10A0319F20A0319F30A73085F
:1014D0007704A000A01B882A0020FC1BA52AFD1F62
:1014E000CC2AF009F109F209F309F00A0319F10A0B
:1014F0000319F20A0319F30AF809F909FA09FB09B1
:10150000F80A0319F90A0319FA0A0319FB0ACC2A83
:10151000F71F9F2AF31B992A7308FB007208FA0031
:101520007108F9007008F800F301F201F101F0010F
:101530006F2AF301F201F101F001F00A0034F3091E
:10154000F209F109F009FC176C2AF80A0319F90AE3
:101550000319FA0A0319FB0A74087802031D6F2A9B
:1015600075087902031D6F2A76087A02031D6F2A17
:1015700077087B02031D6F2AFB01FA01F901F801CC
:10158000F00A0319F10A0319F20A0319F30AF31F07
:101590006F2AA0012016FF34A0017C1CD22A8031C2
:0815A0008D278831003E080090
:1015A800400116160930FB001E30FC00E430FD0037
:1015B800FD0BDC2AFC0BDC2AFB0BDC2A000080314B
:1015C800D02688316830FC00E430FD00FD0BEA2AA3
:1015D800FC0BEA2A00002C214301A01DFB2A8031C4
:1015E800AE2588314301A011803149248831440156
:1015F800A301A4016030A5000130A6000930A700AE
:1016080080316D2488318031EC25883102304401E5
:10161800A300A4015630A5000130A6000930A70098
:1016280080316D2488314401A3012A30A40054304C
:10163800A5000130A6000130A70080316D24883153
:1016480002304401A3002A30A4006A30A50001300A
:10165800A6000130A70080316D2488310F30420187
:10166800C8002730C9006430CA000030CB000F30F2
:10167800C6002730C700C001C1014401A001A10173
:101688008031D2268831013042014C07C200003037
:101698004D3DC30000304E3DC40000304F3DC500F5
:1016A8004C08D0004D08D1004E08D2004F08D30096
:1016B80043012013A012201240015308F0005408DF
:1016C800F1005508F2005608F300E830F400033042
:1016D800F500F601F7018031BE218831700842011A
:1016E8004C074301BD00710842014D3D4301BE0056
:1016F800720842014E3D4301BF00730842014F3D4D
:101708004301C00040015708F0005808F10059088B
:10171800F2005A08F300E830F4000330F500F6014F
:10172800F7018031BE218831700842014C07EC0076
:1017380071084D3DED0072084E3DEE0073084F3DB7
:04174800EF000800A6
:10174C004001FB0173080319E22B7208FA00F2172F
:10175C008E30F302F31FE52BF309F30A0830730202
:10176C00031CC82BF300F10D7208F100F2010830D4
:10177C007302031CC82BF300F10DF1017308031D58
:10178C000310D02B73080319D02B0310F20CF10C9F
:10179C00F30BCB2B7B1B711CDA2B031CDA2BF10A02
:1017AC000319F20AF21BF12BFA1FF42BF209F109BF
:1017BC00F10A0319F20AF42BF201F101F42B7B1458
:1017CC00FB1FF72BF201FA1FF72BFF30F200F10091
:1017DC00FA0DF20CF72B0130FC00F92B0030FC0059
:1017EC00F92BFF30FC00FC080319FF2B80318027FC
:0C17FC0088317108F0007208F10008004C
:10180800400172087606A100F801F9017308770211
:10181800031C262C7708FD007308F7007D08F300E9
:101828007608FD007208F6007D08F2007508FD00D4
:101838007108F5007D08F1007408FD007008F400D7
:101848007D08F00077080319A72C7208FA00F21730
:10185800F61777087302F7000319592C0830770236
:10186800031C4F2CF7007408F9007508F40076087B
:10187800F500F60108307702031C4F2CF7007408B6
:10188800F9007508F400F50108307702031C4F2CA5
:101898007A08F200A72C77080319592C0310F60CC4
:1018A800F50CF40CF90CF70B522CA11F662CF90956
:1018B800F409F509F609F90A0319F40A0319F50AEE
:1018C8000319F60A7908F80774080318740FF00763
:1018D80075080318750FF10776080318760FF207D5
:1018E800A11B7F2C031C8F2CF20CF10CF00CF80CB4
:1018F800F30F8F2CA12C0318952CF809F009F10986
:10190800F209F80A0319F00A0319F10A0319F20A8D
:101918008030FA069B2C0130FC0080312627883164
:10192800A92C0230FC00803126278831A92C0430EC
:10193800FC00803199278831A92C0830FC008031BF
:0E1948003D248831A92C0030FC00000008006E
:1019560043304401A3008031972288310230FC00D5
:101966000830FD00FD0BB52CFC0BB52C0000083033
:101976004401A30080316C23883170084301EE00D6
:101986007108EF007108033A031DCB2CFF30700677
:10199600031DE92C83304401A3008031972288314E
:1019A6000230FC000830FD00FD0BD72CFC0BD72CB9
:1019B600000008304401A30080316C238831700890
:1019C6004301EE007108EF00EE35EF0D6F08073AA0
:1019D600031DEF2CFE306E06031D402D4401A301AE
:1019E6008031972288310230FC000830FD00FD0B63
:1019F600FA2CFC0BFA2C000008304401A3008031BD
:101A06006C23883170084301EE007108EF007108FD
:101A1600033A031D102DFF307006031D132D2015EC
:101A26008031072788316E08F4006F08F500F6014B
:101A3600F7012908F0002A08F1000030F11BFF30F9
:101A4600F200F3008031BE2188310A30F8007008B8
:101A5600F4007108F5007208F6007308F7007808BC
:101A660003193B2DF736F60CF50CF40CFF3E332D1F
:101A760074084301EE007508EF006E08F0006F0869
:041A8600F100080063
:101A8A004001FB017308031D770803199B2D720897
:101A9A007606FA007708F3077E30031C582DF30206
:101AAA000318A02D5B2DF302031CA52D7208F80064
:101ABA007108FC007008FD00F817F6170310F20110
:101ACA00F101F0011830A1007D1C752D7408F00792
:101ADA0075080318750FF10776080318760FF207D1
:101AEA00F20CF10CF00CF80CFC0CFD0C0310A10B21
:101AFA00692DF21B852DF80DF00DF10DF20DF30392
:101B0A007B1B701C972DF81F972DF00A0319F10AF9
:101B1A000319F20A031D972DF20CF10CF00CF30ACB
:101B2A000319A02DFA1FF2130030A92D01308031BC
:101B3A0026248831A92D023080313D248831A92DEF
:0C1B4A0004308031602388310000080066
:101B56007408003A031DC42D7508003A031DC42DF0
:101B66007608003A031DC42D7708003A031DC42DDC
:101B7600FF30F000FF30F1007F30F200FF30F3005D
:101B8600662E400177080319522E73080319572E43
:101B9600720876068039FA00F217F617A101720864
:101BA600F8007108FC007008FD007408FD02750855
:101BB600031C750FFC027608031C760FF802F80169
:101BC600FC01FD01031CEE2D0310F20CF10CF00CD0
:101BD600F80C0130A1007708F302031CF82D7E30C3
:101BE6002107F30703185C2EFD2D7E302107F3072E
:101BF600031C612E1830FA07FD0DFC0DF80DF00DD3
:101C0600F10DF20DA10D7408F0027508031C750F95
:101C1600F1027608031C760FF202760DA104211C50
:101C2600162E7D14212E7408F00775080318750FFB
:101C3600F10776080318760AF2077D10FA031F30BB
:101C46007A05031DFF2D7B1B7D1C482E0310F00D0E
:101C5600F10DF20DA10D7408F0027508031C750F45
:101C6600F1027608031C760FF202760D2104013983
:101C7600FD070318FC0A0319F80A031D482EF80C81
:101C8600FC0CFD0CF30A03195C2EFA1FF8137808F6
:101C9600F2007C08F1007D08F0000030652E01306E
:101CA600803123278831652E023080312624883101
:101CB600652E043080313D248831652E0830803110
:081CC6006023883100000800D2
:101CCE0043304401A3008031972288310230FC005A
:101CDE000830FD00FD0B712EFC0B712E00000A303A
:101CEE004401A30080316C23883170084301EE005B
:101CFE007108EF007108033A031D872EFF3070063E
:101D0E00031DA52E83304401A30080319722883114
:101D1E000230FC000830FD00FD0B932EFC0B932EC1
:101D2E0000000A304401A30080316C238831700812
:101D3E004301EE007108EF00EE35EF0D6F08073A24
:101D4E00031DAB2EFE306E06031DFC2E4401A301B7
:101D5E008031972288310230FC000830FD00FD0BE7
:101D6E00B62EFC0BB62E00000A304401A3008031C3
:101D7E006C23883170084301EE007108EF00710882
:101D8E00033A031DCC2EFF307006031DCF2E2015F7
:101D9E008031072788316E08F4006F08F500F601D0
:101DAE00F7012908F0002A08F1000030F11BFF307E
:101DBE00F200F3008031BE2188310A30F80070083D
:101DCE00F4007108F5007208F6007308F700780841
:101DDE000319F72EF736F60CF50CF40CFF3EEF2E2A
:101DEE0074084301EE007508EF006E08F0006F08EE
:041DFE00F1000800E8
:101E020043016E08F1006F08F200F135F20D71081E
:101E1200EE007208EF008030023AF0008030720665
:101E22007002031D162F71081F3C031C1D2F00306A
:101E3200EE070130EF3D872F8030033AF00080300B
:101E42006F067002031D272F6E08173C031C2E2FEE
:101E52001230EE070130EF3D872F8030043AF00058
:101E620080306F067002031D382F6E08C93C031CB8
:101E72003F2F2030EE070130EF3D872F8030073AA9
:101E8200F00080306F067002031D492F6E08C73CB8
:101E9200031C502F1E30EE070130EF3D872F80309C
:101EA2000A3AF00080306F067002031D5A2F6E0846
:101EB200CE3C031C612F2030EE070130EF3D872F0F
:101EC20080300F3AF00080306F067002031D6B2FD6
:101ED2006E08823C031C722F0430EE070130EF3D86
:101EE200872F8030133AF00080306F067002031D96
:101EF2007C2F6E08EC3C031C832FFA30EE07003077
:101F0200EF3D872FF030EE070030EF3D6E08F00016
:061F12006F08F100080059
:101F1800710DF80DF90D7408F8027508031C750F9A
:101F2800F902F00DF10D0F30FC00710DF80DF90DEF
:101F38007408701CA52FF8027508031C750FF902A8
:101F4800AA2FF80775080318750FF907F00DF10D9A
:101F5800FC0B992F7018B62F7408F807750803182A
:081F6800750FF90700000800E5
:101F7000430120124201BB01BC01BD01BE01803101
:101F80004924883101304401A300A4012F30A50069
:101F90000130A6000B30A70080316D24883152300B
:101FA000FB002B30FC000030FD00FD0BD52FFC0B9F
:101FB000D52FFB0BD52F00009831822188310800E6
:101FC00040019711161690319D25883143013B0839
:101FD0004201C00043013C084201C1004001971585
:061FE0004301A0100800FF
:10200000400197118031C827903102304401A3006C
:10201000A4016530A5000030A6000930A70080317A
:102020006D2490311930FB005A30FC00B130FD00B6
:10203000FD0B1828FC0B1828FB0B182800000000CB
:1020400002304401A300A401A030A5000030A60086
:102050000530A70080316D24903102304401A30087
:102060002A30A400A630A5000030A6000130A70049
:1020700080316D24903102304401A3003C30A40033
:102080005F30A5000030A6000430A70080316D2429
:10209000903164304201CA000030CB000D30FB00AB
:1020A0002D30FC00D730FD00FD0B5428FC0B5428CC
:1020B000FB0B54280000000040019715430120133A
:1020C00020104001E40142014C08C2004D08C30049
:1020D0004E08C4004F08C5004C08D0004D08D10080
:0A20E0004E08D2004F08D30008009C
:1020EA00003043016706031D7C2800306606031D85
:1020FA008C284401A3013C30A4002F30A5000030F5
:10210A00A6000330A70080316D249031F3280030F7
:10211A0043016702031D93280A3066020318AB289D
:10212A0066084401A300430167084401A400AB30D8
:10213A00A5000130A6008031B3239031303043012D
:10214A00B3002E30B4003008B500E628003067022C
:10215A00031DB128643066020318C92866084401C1
:10216A00A300430167084401A400AB30A500013075
:10217A00A6008031B323903143012F08B3002E30DB
:10218A00B4003008B500E62805306607F0000030D4
:10219A00673DF1007008E6007108E7007008440125
:1021AA00A3007108A400AB30A5000130A60080315D
:1021BA00B323903120304301B3002E08B4002F0816
:1021CA00B5004401A3013C30A400B330A50001309E
:0E21DA00A6000330A70080316D24903108006C
:1021E8008831AB2490317008E6007108E7000030B0
:1021F800E71BFF30E800E900883167269031700856
:10220800EA007108EB000030EB1BFF30EC00ED003A
:102218006608EE006708EF008831012790318031A9
:10222800D32790310030F4000030F5002030F6005C
:102238008130F7008831452590310030F4000030B6
:10224800F5007A30F6008830F7008831AB259031F8
:10225800F430F400FD30F5003430F6007F30F7003C
:102268008831AB2590317008F4007108F5007208C8
:10227800F6007308F7008831452590310030F400E6
:102288000030F5002030F6008130F7008831AB25AA
:1022980090310030F4000030F5000030F6007E3058
:1022A800F7008831042490318831A62390317008D2
:1022B8004301A7007108A8008030F2008030710641
:1022C8007202031D69297008003C0318B6294001F1
:1022D800161EB3295308F0005408F1005508F200FF
:1022E8005608F300E830F4000330F500F601F70172
:1022F8008031BE219031700842014C074301BD0076
:10230800710842014D3D4301BE00720842014E3D35
:102318004301BF00730842014F3D4301C000400123
:102328005708F0005808F1005908F2005A08F3005D
:10233800E830F4000330F500F601F7018031BE21E2
:102348009031700842014C07EC0071084D3DED00DA
:1023580072084E3DEE0073084F3DEF00B6298831F4
:10236800D4229031803043016D06F0008030690638
:102378007002031DC92968086C02031DC929670872
:102388006B02031DC92966086A02031CD229E730BB
:10239800E6000330E700E801E9011C2A6A0866073D
:1023A800F0006B08673DF1006C08683DF2006D08AD
:1023B800693DF3006430F400F501F601F70180315E
:1023C800BE21903143016608F4006708F5006808EB
:1023D800F6006908F7006A08F4026B08F53B6C0818
:1023E800F63B6D08F73B8831202290317008430195
:1023F800E6007108E7007208E8007308E900803019
:10240800F400803073067402031D142A7208003C1D
:10241800031D142A7108033C031D142A7008E73CA5
:1024280003181C2AE730E6000330E700E801E90159
:0A2438006608BB006708BC0008003E
:102442002C304301E2000130E300E401E501F42015
:1024520080302806F0008030410143067002031DDF
:10246200352A420843012702031C472A80304101D2
:102472002906F0008030430128067002031D442A19
:10248200270841012802031C472A842A4301201FEE
:102492004F2A00204301BB01BC01842A201E542A7A
:1024A200BB01BC01842AF4206308003C031D5B2AA3
:1024B2006208003C03186E2A0130E2020030E33B5E
:1024C20028086502031D672A2708640203186D2A7B
:1024D2002708E4002808E500832A6408E600650866
:1024E200E70075204301E401E5012C30E2000130F0
:1024F200E3000B30FC006230FD00FD0B7E2AFC0B7A
:082502007E2A0000292A0800CE
:10250A007408003A031D922A7508003A031D922A9C
:10251A00FF30F0007F30F100EC2A4001FD01F901A3
:10252A00F801710870040319003471087506FA007D
:10253A00FA1BFD09FB01F51FA72AF409F509F40A9C
:10254A000319F50AF11FAE2AF009F109F00A031975
:10255A00F10A71087504FA00FA1BC32A88318C271C
:10256A0090317B18D82AFD1F0034F009F109F00ACE
:10257A000319F10AF809F909F80A0319F90A0034E2
:10258A00F51FD42AF11BD02A7108F9007008F80047
:10259A00F101F001B82AF101F001F00A0034F10961
:1025AA00F009FB0AB52AF80A0319F90A740878022D
:1025BA00031DB82A75087902031DB82AF901F80122
:1025CA00F00A0319F10AF11FB82A0000FF340800C3
:1025DA0003304301E1004101EF0142013F08440198
:1025EA00A000A10141016E084401A2008031212608
:1025FA00903121221430F4000030F50043013B08E9
:10260A00F0003C08F1008522700843013B07DF0017
:10261A0071083C3DE0006108DE005E081F3C031CB7
:10262A006E2B42013F084401A00043015E084401A9
:10263A00A10041016E084401A20080312126903197
:10264A002122803043013C06F0008030600670028F
:10265A00031D312B5F083B0203186C2B1430F40066
:10266A000030F5003B08F0003C08F10085227008B4
:10267A0043013B07DF0071083C3DE0005E08410171
:10268A00EF00430161084101ED00803043013C063F
:10269A00F00080307002031D542B78303B0203187F
:1026AA00572B6E2B61085E07F1007108DE00710876
:1026BA00093A031D632B0830DE006B2B5E08113AC2
:1026CA00031D6B2B1030DE000430E1006D2B6E2BE6
:1026DA00122B42013F084401A00041016F08440146
:1026EA00A10041016E084401A200803121269031E7
:0226FA000800D6
:1026FC0041016D084301D80041016D086F07F100DD
:10270C0071084301DA0071081F3C03188F2B1F302E
:10271C00DA0041016F084301580203189B2B58083B
:10272C0041016F024301DB009C2BDB015B08410183
:10273C00EF0042013F084401A00043015B08440143
:10274C00A10041016E084401A20080312126903184
:10275C002122003043013C06031DB62B00303B0602
:10276C00031DB92B3E2C3B08DC003C08DD005B0A4A
:10277C00D90059085A02031C2F2C42013F0844016E
:10278C00A000430159084401A10041016E08440115
:10279C00A2008031212690312122003043013C06D9
:1027AC00031DDA2B00303B06031DDD2B3E2C803045
:1027BC003C06F00080305D067002031DE72B5C08C0
:1027CC003B02031CF32B6830FC00E430FD00FD0BD6
:1027DC00ED2BFC0BED2B00002122803043013C063D
:1027EC00F00080305D067002031DFE2B5C083B027E
:1027FC00031C0A2C6830FC00E430FD00FD0B042C9B
:10280C00FC0B042C00002122803043013C06F0001C
:10281C0080305D067002031D152C5C083B0203180A
:10282C002C2C3B08DC003C08DD0059084101EF0072
:10283C00803043013C06F00080307002031D282CD0
:10284C0078303B0203182B2C2F2C2D2C2F2CD90A33
:10285C00BF2B42013F084401A00041016F08440115
:10286C00A10041016E084401A20080312126903163
:02287C00080052
:10287E0003304301DD00D9015D084101EC00033056
:10288E004301DA001430F4000030F5003B08F0008C
:10289E003C08F1008522700843013B07DB007108FC
:1028AE003C3DDC005D08D80058081F3C031CBC2CC6
:1028BE0058084401A00041016F084401A1004101E4
:1028CE006E084401A200803121269031ED22212292
:1028DE00803043013C06F00080305C067002031D20
:1028EE007A2C5B083B020318BA2C1430F40000302B
:1028FE00F5003B08F0003C08F1008522700843010A
:10290E003B07DB0071083C3DDC0058084201BF006C
:10291E0041016F084301D9005D084101EC006D08CB
:10292E004301DA0080303C06F00080307002031D57
:10293E00A22C78303B020318A52CBC2C5D0858073E
:10294E00F1007108D8007108093A031DB12C083046
:10295E00D800B92C5808113A031DB92C1030D800E4
:10296E000430DD00BB2CBC2C5B2C59084101EF0060
:10297E0042013F084401A000430159084401A1004F
:10298E0041016E084401A20080312126903143019D
:10299E005A084101ED006830FC00E430FD00FD0BEB
:0A29AE00D62CFC0BD62C000008000C
:1029B80041016C084301D80041016C0842013F07FE
:1029C800F10071084301DA0071081F3C0318EE2C6E
:1029D8001F30DA0042013F08430158020318FA2C5D
:1029E800580842013F024301DB00FB2CDB015B0876
:1029F8004201BF0043015B084401A00041016F0888
:102A08004401A10041016E084401A2008031212641
:102A180090312122003043013C06031D152D003062
:102A28003B06031D182D9C2D3B08DC003C08DD00EF
:102A38005B0AD90059085A02031C8D2D5908440114
:102A4800A00041016F084401A10041016E08440142
:102A5800A2008031212690312122003043013C061A
:102A6800031D382D00303B06031D3B2D9C2D803067
:102A78003C06F00080305D067002031D452D5C08A1
:102A88003B02031C512D6830FC00E430FD00FD0BB7
:102A98004B2DFC0B4B2D00002122803043013C06BE
:102AA800F00080305D067002031D5C2D5C083B025F
:102AB800031C682D6830FC00E430FD00FD0B622D1E
:102AC800FC0B622D00002122803043013C06F000FF
:102AD80080305D067002031D732D5C083B020318ED
:102AE8008A2D3B08DC003C08DD0059084201BF0084
:102AF800803043013C06F00080307002031D862DB3
:102B080078303B020318892D8D2D8B2D8D2DD90AF8
:102B18001E2D42013F084401A00041016F084401F5
:102B2800A10041016E084401A200803121269031A4
:022B3800080093
:102B3A006400400119110530FB000F30FC00F13030
:102B4A00FD00FD0BA62DFC0BA62DFB0BA62D2122AD
:102B5A00803043013C06F00080307002031DB72D1F
:102B6A006E303B020318BC2D400119154A2F8031E3
:102B7A00C82790310330FB000830FC007730FD0095
:102B8A00FD0BC52DFC0BC52DFB0BC52D212280305D
:102B9A0043013C06F00080307002031DD62D6E30D2
:102BAA003B020318DB2D400119154A2F43013B084C
:102BBA00D2003C08D3003F24003043013C06031DE9
:102BCA00E82D00303B06031DEF2D8031C8279031D8
:102BDA0019154A2F2122803043013C06F00080302B
:102BEA007002031DFA2D78303B020318FF2D4001B5
:102BFA0019154A2FDC24003043013C06031D072E19
:102C0A0000303B06031D0E2E8031C827903119155E
:102C1A004A2F2122803043013C06F00080307002A6
:102C2A00031D192E78303B0203181E2E4001191578
:102C3A004A2F7E23003043013C06031D262E003016
:102C4A003B06031D2D2E8031C827903119154A2FB6
:102C5A002122803043013C06F00080307002031DBF
:102C6A00382E78303B0203183D2E400119154A2FA1
:102C7A00803043013C06F10080307102031D472E6B
:102C8A00C8303B02013003180030F10080303C06A6
:102C9A00F000803053067002031D552E52083B0285
:102CAA00013003180030F00070087105F3003B088A
:102CBA005202F1003C08533BF2008030F0008030B1
:102CCA0072067002031D6B2E7108643C01300318F2
:102CDA000030F0007308F0050319762E400119152B
:102CEA004A2F43013B08D2003C08D30042013F0867
:102CFA004301D400D50141016F084301D600D70131
:102D0A0041016E08013A031D8C2EEE018E2E013010
:102D1A00EE008031C827903142013F084401A000EB
:102D2A0041016F084401A10041016E084401A2005B
:102D3A008031212690310330FB000830FC007730C7
:102D4A00FD00FD0BA62EFC0BA62EFB0BA62E2122A8
:102D5A00803043013C06F00080307002031DB72E1C
:102D6A0078303B020318BC2E400119154A2F3F2424
:102D7A00003043013C06031DC42E00303B06031DF0
:102D8A00CB2E8031C827903119154A2F2122803045
:102D9A0043013C06F00080307002031DD62E7830C5
:102DAA003B020318DB2E400119154A2FDC240030A0
:102DBA0043013C06031DE32E00303B06031DEA2EA9
:102DCA008031C827903119154A2F212280304301BA
:102DDA003C06F00080307002031DF52E78303B026D
:102DEA000318FA2E400119154A2F7E230030430199
:102DFA003C06031D022F00303B06031D092F8031BC
:102E0A00C827903119154A2F2122803043013C06E8
:102E1A00F00080307002031D142F78303B02031833
:102E2A00192F400119154A2F803043015306F0002B
:102E3A0080303C067002031D242F3B0852020318FF
:102E4A00462F41016E08013A031D2D2FEE012F2F47
:102E5A000130EE00430154084201BF004301560805
:102E6A004101EF00430154084401A0004301560800
:102E7A004401A10041016E084401A20080312126CB
:0C2E8A009031640021224001191508005D
:102E96004001971102304401A300A401D530A500DA
:102EA6000030A6000930A70080316D2490319D25A1
:102EB60043013B084201C00043013C084201C100F6
:102EC60043013B084201CA0043013C084201CB00D2
:102ED60002304401A300A401DF30A5000030A600A3
:102EE6000430A70080316D24903102304401A300E4
:102EF6002A30A400E430A5000030A6000130A70067
:102F060080316D249031420140084401A000420105
:102F160041084401A1008031D22690319715430122
:102F2600A012A0104001E40142014C08C2004D0865
:102F3600C3004E08C4004F08C5004C08D0004D0819
:0C2F4600D1004E08D2004F08D300080054
:102F52006C304301A1000330A2002330A3000230F1
:102F6200A40041019301940195019601EC309A0568
:082F7200131613159317080054
:10300000803182219831410147084401B400803168
:103010002A21983140304401B40080312A2198316E
:103020000A30F4000030F50043014908F0004A0876
:10303000F10090318522983170084301C900710870
:10304000CA0080307106F2008030013A7202031D1E
:103050002B282C307002031832282C30C900013084
:10306000CA0042288030013AF00080304A067002DF
:10307000031D3C284908A43C03184228A430C90079
:103080000130CA002C304902F30001304A3BF40001
:103090007308C9007408CA000530F2007308F00014
:1030A0007408F100720803195928F035F10DFF3E3C
:1030B00053287008C9007108CA007830F400003045
:1030C000F50090318522983170084301CC00193009
:1030D0007002031C752818304C02CD000830CE0059
:1030E0000830CF000830D000932811304C02031C68
:1030F0008228CD0110304C02CE000830CF000830BD
:10310000D000932809304C02031C8E28CD01CE013B
:1031100008304C02CF000830D0009328CD01CE01FA
:10312000CF014C08D0008030D10001304D02F000BA
:10313000F1010030F13B7008F1005108F000710816
:103140000319A528F036FF3EA0287008FF3CD100E7
:10315000D10A0330D1044401AD017730AE00803193
:103160000B229831430151084401B40080312A21D7
:103170009831430151084401B40080312A2198312B
:10318000430151084401B40080312A2198311F3095
:103190004301D1044401AD017530AE0080310B22F2
:1031A0009831430151084401B40080312A219831FB
:1031B000430151084401B40080312A21983144016F
:1031C000AD017A30AE0080310B22983143015108B5
:1031D0004401B40080312A2198314301510844014F
:1031E000B40080312A21983180304301D100013070
:1031F0004E02F000F1010030F13B7008F10051087F
:10320000F000710803190729F036FF3E0229700803
:10321000FF3CD100D10A01304401AD007530AE0051
:1032200080310B2298314301CB014B08063C031C33
:10323000222951084401B40080312A2198314301E8
:10324000CB0A15298030D10001304F02F000F10186
:103250000030F13B7008F1005108F00071080319CB
:103260003429F036FF3E2F297008FF3CD100D10AE7
:1032700002304401AD007530AE0080310B22983130
:103280004301CB014B08063C031C4F295108440164
:10329000B40080312A2198314301CB0A4229803081
:1032A000D10001305002F000F1010030F13B700814
:1032B000F1005108F000710803196129F036FF3E52
:1032C0005C297008FF3CD100D10AC030D104033022
:1032D0004401AD007530AE0080310B2298314301BE
:1032E000CB014B08063C031C7E2951084401B40065
:1032F00080312A2198314301CB0A71298031F42190
:0433000098310800F8
:103304008B1340019E134E018C1216167E01CA12B5
:10331400C91640011612171697151A104F01961761
:103324004301C9014908003A031DA7290530FB00E0
:103334000F30FC00F130FD00FD0B9E29FC0B9E2993
:10334400FB0B9E297E01CA12630000000530FB00BE
:103354000F30FC00F130FD00FD0BAE29FC0BAE2953
:10336400FB0BAE2940018D1AB9290314BA290310A5
:10337400031CBF294301C90AC1294301C9014908E2
:103384000F3C0318C629C72994294F0196134E01EF
:1033940016127E01C912CA1240019E178B174301EF
:1033A400A0158831D422983140018D1ADB290314E9
:1033B400DC290310031CE0290000D6294301201353
:1033C400A0122012A0104001E40142014C08430164
:0433D400C900080024
:1033D800643041016A024301C300003041016B3B84
:1033E8004301C4000330FB000830FC007730FD00C7
:1033F800FD0BFC29FC0BFC29FB0BFC295830C200F7
:10340800C501C601C701C801C1014208410203182C
:103418002F2A9031F420983180304606F000803011
:1034280028067002031D1A2A270845020318242AB1
:103438002708C5002808C6003B08C7003C08C80084
:103448000B30FC006230FD00FD0B282AFC0B282AFB
:103458000000C10A092A8030F00080304606700258
:10346800031D382A4508003C0318852A4001161E0A
:10347800822A5308F0005408F1005508F200560853
:10348800F300E830F4000330F500F601F70180316D
:10349800BE219831700842014C074301BD007108F4
:1034A80042014D3D4301BE00720842014E3D4301B9
:1034B800BF00730842014F3D4301C0004001570857
:1034C800F0005808F1005908F2005A08F300E830F3
:1034D800F4000330F500F601F7018031BE21983180
:1034E800700842014C07EC0071084D3DED00720870
:1034F8004E3DEE0073084F3DEF00852A8831D422F7
:1035080098314301460842014706031D8E2A4608A2
:10351800430145060319BE2A4301201DA12A44017F
:10352800A3012A30A400E630A5000030A60001302F
:10353800A70080316D249831AE2A4401A3012A30B6
:10354800A400E830A5000030A6000130A7008031B3
:103558006D249831430145084201C60043014608DD
:103568004201C70043014508E6004608E7009031DC
:1035780075209831803043014606F0008030700293
:10358800031DC82A0A3045020318D82AC701C801F2
:10359800420140084401A000420141084401A10041
:1035A8008031D2269831122C4301201D4F2B033035
:1035B800C2004208003A0319192B02304401A30043
:1035C8000630A4002030A5000130A6000930A7006D
:1035D80080316D2498311530FB004B30FC00BE3033
:1035E800FD00FD0BF52AFC0BF52AFB0BF52A000064
:1035F80002304401A300A401CB30A5000030A6008E
:103608000930A70080316D2498311530FB004B300C
:10361800FC00BE30FD00FD0B0F2BFC0B0F2BFB0B32
:103628000F2B00004301C203DD2A02304401A3002E
:10363800A401B630A5000030A6000930A7008031EB
:103648006D24983102304401A3002A30A400C03010
:10365800A5000030A6000130A70080316D24983104
:10366800430147084401A000430148084401A10060
:103678008031D22698311530FB004B30FC00BE302B
:10368800FD00FD0B452BFC0B452BFB0B452B0000D0
:1036980043012011E92B80304606F00080304101BB
:1036A80043067002031D5B2B420843014502031CBD
:1036B8007C2B430180304606F0008030410129060A
:1036C8007002031D6A2B28084301450203187C2B4E
:1036D800430180304806F000803041016B067002DB
:1036E800031D792B6A0843014702031C7C2B8A2B94
:1036F80043018030033AF000803048067002031D11
:10370800872B4708843C031C8A2BE92B8030420115
:103718004B06F0008030430148067002031D972BCA
:10372800470842014A020318B02B42014A084301E4
:103738004702F10042014B084301483BF200803048
:103748004406F000803072067002031DAD2B71082C
:1037580043020318B02BE52B430180304806F000E4
:10376800803042014B067002031DBD2B4A084301FD
:1037780047020318D72B4301470842014A02F100C8
:103788004301480842014B3BF200803043014406A4
:10379800F000803072067002031DD42B71084302BA
:1037A8000318D72BE52B43018030033AF000803013
:1037B80048067002031DE22B4708843C031CE52BD6
:1037C800E92B90314B279831122C8030F000803053
:1037D800430148067002031DF32B4708633C031896
:1037E800122C480842014106031DFD2B40084301E5
:1037F80047060319122C430147084201C000430140
:1038080048084201C100430147084401A0004301A0
:0E38180048084401A1008031D22698310800F2
:103826008031072798312A0842014906031D1E2CBC
:1038360048084301290603192E2C43012908420191
:10384600C80043012A084201C90043012908C900EA
:103856002A08CA00002080300E3AF000803043016A
:103866002A067002031D392C2908743C03184D2CB6
:103876004001971117160230FB003830FC00AD30BE
:10388600FD00FD0B442CFC0B442CFB0B442C971524
:1038960017167D2C80300E3AF000803043012A0640
:1038A6007002031D582C2908063C03186C2C400195
:1038B600971117120230FB003830FC00AD30FD00C6
:1038C600FD0B632CFC0B632CFB0B632C9715171657
:1038D6007D2C4001171297150230FB003830FC0092
:1038E600AD30FD00FD0B752CFC0B752CFB0B752C00
:1038F60017169715803043012A06F00080300D3ADE
:103906007002031D882C483029020318A92C803127
:103916004924983101304401A300A401AA30A5002E
:103926000030A6000B30A70080316D24983152304C
:10393600FB002B30FC000030FD00FD0BA02CFC0B27
:0E394600A02CFB0BA02C000016128221080002
:103954007E01B801C3014314C3144315CE01E4012D
:10396400D90153019013941340018C018D018E01F0
:103974008F0190019601970110309800063099004C
:103984009A019101273092009301940195017E01DF
:103994003A15BA15DB145B1540019F121F179F13CC
:1039A4001E16C0309C00E0309D004E018C12400178
:1039B4009E174E0196161E304F019600FE3097005A
:1039C400473098007F30990077309A00DF309B00B1
:1039D4008B170530FB000F30FC00F130FD00FD0BB0
:0C39E400F12CFC0BF12CFB0BF12C08006B
:1039F000A031A4209831AA244001171619154301BB
:103A0000A0158831D42298319031A92798314301EB
:103A100020112013A01220122010A01040015308E2
:103A2000F0005408F1005508F2005608F300E830A1
:103A3000F4000330F500F601F7018031BE21983122
:103A4000700842014C074301BD00710842014D3D21
:103A50004301BE00720842014E3D4301BF0073089E
:103A600042014F3D4301C00040015708F000580893
:103A7000F1005908F2005A08F300E830F40003306E
:103A8000F500F601F7018031BE219831700842013E
:103A90004C07EC0071084D3DED0072084E3DEE0004
:103AA00073084F3DEF00410144084301A500410167
:103AB00045084301A600420145084F02031D6A2D37
:103AC00044084E02031D6A2D43084D02031D6A2D52
:103AD00042084C02031C742DB830C2070B30C33DA2
:103AE0000030C43DC53D1324420153084F02031D5D
:103AF000832D52084E02031D832D51084D02031DD4
:103B0000832D50084C02031C8D2D2C30D007013022
:103B1000D13D0030D23DD33DEC214301400842016C
:103B20004F02031DA32D43013F0842014E02031D16
:103B3000A32D43013E0842014D02031DA32D430165
:103B40003D0842014C02031CA72D40011612420100
:103B50006F084F02031DB62D6E084E02031DB62DD1
:103B60006D084D02031DB62D6C084C02031CB92DC7
:103B700082214301201FC62D4001161EC32D903106
:103B800000209831C62D8831D42298314301A01EDF
:103B9000D32D4001161ED02D90314B279831D32DB7
:103BA0008831D42298314301201EE02D4001161E99
:103BB000DD2D8831B8279831E02D8831D422983115
:103BC0004301201CEC2D4001161AE92D8831D42226
:103BD00098319031002098314301A01CFC2D400108
:103BE000161AF92D8831E02798318831D42298317E
:0C3BF000FC2D90314B2798315B2DFD2DF2
:10414800BD308400973085004030F0000130F10028
:104158002F308600003087008031F027A031593099
:104168008400A03085002630F0000130F100A03036
:104178008600003087008031F027A03103308400AA
:10418800803085000130F0000130F1006F3086008A
:10419800003087008031F027A0317F308400A030C4
:1041A80085002430F0000130F100C6308600003070
:1041B80087008031F027A031DF3084009F308500F0
:1041C8000A30F0000130F10020308600013087000D
:1041D8008031F027A031FD3084009730850002300F
:1041E800F0000130F100EA308600003087008031AD
:1041F800F027A031F9308400873085000530F000C1
:104208000130F1002A308600013087008031F02724
:10421800A031FF308400973085000130F000013074
:10422800F100EC308600003087008031F027A031A3
:10423800F33084008F3085000C30F0000130F1003D
:104248002F308600013087008031F027A031FF3001
:1042580084008F3085000130F0000130F100ED302E
:104268008600003087008031F027A031E9308400D3
:104278009F3085000430F0000130F1003B308600AB
:10428800013087008031F027A031FE30840087306C
:1042980085000230F0000130F100EE308600003079
:1042A80087008031F027A03100308400A0308500DD
:1042B8002D30F0000130F1003F30860001308700DA
:0842C8008031F027A03108004D
:020006000234C2
:0A0FF20030342E3430343034003433
:020FFC000034BF
:020FFE000034BD
:101FE600203450344F3457344534523420344F342F
:081FF600463446342034003467
:021FFE000034AD
:082F7A0030342E3430340034F1
:102F82002034443445345334493447344E34453480
:102F9200443420344234593420344E3437344434A7
:062FA20044344334003406
:102FA800203446345734203456344534523453345C
:0A2FB80049344F344E342034003405
:082FC2002C340134003400340A
:082FCA00083407340034003420
:082FD20031342E343334003495
:0A2FDA0030342E343034303400342B
:022FE4000034B7
:102FE6005234453453344534543420342034203458
:042FF600203400344F
:042FFA0082340034E9
:022FFE0000349D
:103BFE0000340034003400340034003400345F34B8
:103C0E0000340034003407340034073400341434E4
:103C1E007F3414347F34143424342A347F342A34D9
:103C2E001234233413340834643462343634493451
:103C3E005534223450340034053403340034003407
:103C4E0000341C34223441340034003441342234E4
:103C5E001C34003408342A341C342A340834083412
:103C6E0008343E34083408340034503430340034D0
:103C7E00003408340834083408340834003430343E
:103C8E003034003400342034103408340434023418
:103C9E003E345134493445343E34003442347F345A
:103CAE004034003442346134513449344634213482
:103CBE00413445344B3431341834143412347F3497
:103CCE001034273445344534453439343C344A3481
:103CDE0049344934303401347134093405340334F1
:103CEE003634493449344934363406344934493447
:103CFE0029341E3400343634363400340034003463
:103D0E00563436340034003400340834143422343B
:103D1E0041341434143414341434143441342234ED
:103D2E001434083400340234013451340934063466
:103D3E0032344934793441343E347E3411341134C2
:103D4E0011347E347F3449344934493436343E3468
:103D5E0041344134413422347F34413441342234AD
:103D6E001C347F3449344934493441347F34093466
:103D7E000934013401343E34413441345134323447
:103D8E007F340834083408347F34003441347F34AF
:103D9E00413400342034403441343F3401347F34D4
:103DAE0008341434223441347F34403440344034A7
:103DBE0040347F340234043402347F347F3404348C
:103DCE00083410347F343E344134413441343E346F
:103DDE007F3409340934093406343E3441345134C5
:103DEE0021345E347F340934193429344634463450
:103DFE004934493449343134013401347F34013487
:103E0E0001343F344034403440343F341F34203486
:103E1E00403420341F347F342034183420347F341F
:103E2E00633414340834143463340334043478346F
:103E3E00043403346134513449344534433400344A
:103E4E0000347F34413441340234043408341034A5
:103E5E002034413441347F3400340034043402348D
:103E6E00013402340434403440344034403440345D
:103E7E0000340134023404340034203454345434C5
:103E8E00543478347F3448344434443438343834F9
:103E9E004434443444342034383444344434483480
:103EAE007F343834543454345434183408347E3413
:103EBE0009340134023408341434543454343C3448
:103ECE007F340834043404347834003444347D347C
:103EDE00403400342034403444343D340034003413
:103EEE007F34103428344434003441347F34403429
:103EFE0000347C3404341834043478347C3408347C
:103F0E000434043478343834443444344434383447
:103F1E007C34143414341434083408341434143403
:103F2E0018347C347C340834043404340834483473
:103F3E00543454345434203404343F3444344034F0
:103F4E0020343C344034403420347C341C3420340F
:103F5E00403420341C343C344034303440343C340F
:103F6E00443428341034283444340C34503450340F
:103F7E0050343C344434643454344C34443400347B
:103F8E000834363441340034003400347F34003485
:103F9E0000340034413436340834003408340834E4
:103FAE002A341C34083408341C342A3408340834B7
:103FBE004F345634453452344C344F3441344434F7
:043FCE002034003467
:083FD200003400340034003417
:0240000000348A
:044002000034003452
:084006000034003400340034E2
:04400E000F34273410
:044012000034003442
:0440160064340034DA
:08401A000034003400340034CE
:084022000034003400340034C6
:04402A003D340034ED
:10402E005334573452342034203420342034203446
:04403E0020340034F6
:104042005034573452342034203420342034203435
:0440520057340034AB
:044056003D340034C1
:10405A00F834F8341F341F340334033403341F3460
:10406A001F34F834F834FF34FF3400340034003499
:10407A000034003400340034FF34FF34FF34FF349A
:10408A000034003400340034003400340034FF3487
:10409A00FF34FF34FF34C034C034C034C034C034B9
:0840AA00C034C034FF34FF34C0
:0C40B2005334573452342034203400348E
:0440BE003D34003459
:0440C20096340034FC
:1040C600203420344C344F34573420344234413475
:0840D60054345434203400344A
:1040DE005334573452342034203420342034203496
:0440EE002034003446
:0440F2003D34003425
:0440F6000A34003454
:0440FA000734003453
:0240FE0000348C
:0441000078340034DB
:02410400403445
:02410600013482
:104108002034203420342034203420342034203407
:04411800203400341B
:10411C00543455344E344534203420342034203437
:04412C002034003407
:0A4130005334573452342034003465
:04413A003D340034DC
:04413E003E340034D7
:044142003D340034D4
:020000040001F9
:0A000E000429213E1F3F03300300C8
:00000001FF
