:0400000098312F2DD7
:1000080070084001AE007108AD007208AC007308BA
:10001800AB007408AA007508A9007608A80077083C
:10002800A7007808A6007908A5007A08A4007B082C
:10003800A3007C08A20080314E018C1E30288C124F
:1000480001304201BB070030BC3DBD3DBE3DC03064
:1000580040019C00E0309D00420139083E02031D2A
:100068003F2838083D02031D3F2837083C02031D7E
:100078003F2836083B02031C13290A30B607003014
:10008800B73DB83DB93D40018D1A4C2874144D2830
:1000980074108F1851280314522803107418582804
:1000A80003185828741059287414741CA328400184
:1000B8006308F0006408F1006508F2006608F300C0
:1000C800E830F4000330F500F601F70199217008D3
:1000D80042013B074301A000710842013C3D430136
:1000E800A100720842013D3D4301A200730842018C
:1000F8003E3D4301A30040015F08F0006008F100A5
:100108006108F2006208F300E830F4000330F500FB
:10011800F601F7019921700842013B074301A40049
:10012800710842013C3D4301A500720842013D3D72
:100138004301A600730842013E3D4301A700400168
:100148008D1AA8280314A9280310031CC8284001E5
:10015800FA306D020318B128ED0A6D08193A031D2B
:10016800B72842016E1440016D08FA3A0130031DA8
:100178000030F100F001161AF00A7108F0050319B1
:10018800C7284201EE15DF2840016D08023C013006
:1001980003180030F10019306D02013003180030E7
:1001A800F0007108F0050319DE2842016E174001BE
:1001B800ED01DF28ED0140018F18E4280314E5283C
:1001C8000310031CFC2819306E020318EC28EE0AF1
:1001D8006E08143A0130031D0030F100F0010F19C8
:1001E800F00A7108F0050319FB284201EE141329DF
:1001F80040016E08013C013003180030F1000A305C
:100208006E02013003180030F0007108F005031980
:1002180012294201EE164001EE011329EE014001B8
:100228002E08F0002D08F1002C08F2002B08F3002E
:100238002A08F4002908F5002808F6002708F7001E
:100248002608F8002508F9002408FA002308FB000E
:060258002208FC00090071
:10025E00F1010830710203184E294401BF1B3A29DF
:10026E00400116113C29400116152730FD00FD0BEB
:10027E003E290000000096152730FD00FD0B452994
:10028E000000000096114401BF35F10A30294001EB
:10029E0016152730FD00FD0B5229000000009615A3
:1002AE0000300C190130F2002730FD00FD0B5D29E6
:1002BE000000000096112730FD00FD0B64290000A0
:0802CE0000007208F0000800B6
:1002D600400196152730FD00FD0B6F290000000038
:1002E60016152730FD00FD0B7629000000001611BB
:1002F6002730FD00FD0B7D290000000096112730F8
:0C030600FD00FD0B842900000000080031
:08031200FA1FF213003008008D
:10031A007B15FB1F97290130F300F201F101F0016F
:08032A00FA0DF20CFF3008008F
:1003320040012230FC00F801F901FA01FB01FC0343
:100342000319CE290310FB0CFA0CF90CF80CF30C70
:10035200F20CF10CF00C031CA029FC030319C029B8
:100362007408F80775080318750FF907760803185B
:10037200760FFA0777080318770FFB07A42974088A
:10038200F80775080318750FF90776080318760F32
:0C039200FA0777080318770FFB07080034
:0C039E003A30FD00FD0BD12900000800E2
:1003AA0040017008F100F0010830FC007108F40CFB
:1003BA000318E329FC0BDC29F10100340310E829B6
:1003CA00F40C0318F107F10CF00CFC0BE5290800FA
:1003DA00400116112730FD00FD0BF1290000000035
:1003EA0096152730FD00FD0BF829000000001615B0
:0E03FA002730FD00FD0BFF2900000000080069
:1004080040016F0844013B07BE006B2141013608DB
:100418004401BF002F214401BF012F2144013A08A4
:10042800B03EBF002F2144013E080F3C031C202A88
:100438003E08BC00BD01312A3E08F200F236F23611
:10044800F236F2367208BD007208F000F035F03569
:10045800F035F03570083E02BC003C08BF002F2183
:1004680044013D08103EBF002F216B214101360891
:100478004401BF002F2140304401BF002F21080054
:0E048800F201F101F001F801F301003008006B
:10049600A1017208031D602A7108F2007008F100BC
:1004A600F001A1157208031D602A7108F200F1011E
:1004B600A1112116720803196E2A2108F302031DE1
:1004C600031C722A0310F21B762AF00DF10DF20DB1
:1004D600F30B662A722A0130FC004422792A023084
:0E04E600FC008D21792A0430FC0089210800D9
:1004F4006B21410136084401BF002F2140304401E3
:10050400BF002F214401B3013308073C031C9C2A7C
:100514003308BA00BB0104224401B2014401803013
:1005240032020318992AB20ABF012F21902A4401EA
:08053400B30A862AED2108003C
:10053C0040304401B4001F30B500B601B701403063
:10054C00F0001F30F1000030F2000030F3003208F0
:10055C00F4003308F500F601F70199217008440105
:10056C00B4007108B5007208B6007308B70000300B
:10057C007302031DCB2A00307202031DCB2A0230FA
:10058C007102031DCB2AB23070020318CE2AFD2A49
:10059C00B230B4020230B53B0030B63BB73B05304D
:1005AC00F00070080319E02AB736B60CB50CB40C81
:1005BC00FF3ED82A3408F0003508F1003608F20066
:1005CC003708F3000130B4020030B53BB63BB73B03
:1005DC0070087104720473040319FD2A00000000F2
:1005EC00000000000000000000000000E02A0800ED
:1005FC004001FB01FA01F9018030F800F10CF00C1C
:10060C00031C112B7408F90775080318750FFA07EA
:10061C000318FB0A0310F01F192B7408FA0775084E
:10062C000318750FFB07FB0CFA0CF90CF80C031CE8
:10063C00042B7B08F3007A08F2007908F1007808A3
:04064C00F0000800B2
:10065000710DF80DF90D7408F8027508031C750F7B
:10066000F902F00DF10D0F30FC00710DF80DF90DD0
:100670007408701C412BF8027508031C750FF902F1
:10068000462BF80775080318750FF907F00DF10DE3
:10069000FC0B352B7018522B7408F80775080318DB
:0806A000750FF90700000800C6
:1006A8000B304301AC000430AD003230AE000230F4
:1006B800AF0041019301940195019601EC309A0530
:1006C800133044013205F000700841019A04C0302B
:1006D80044013205F0000319872BC0303205F200BF
:1006E8000630F1007208F000710803197E2BF0360D
:1006F800FF3E792B700852018C008C170C1B862B3F
:100708000000822B8A2B5201FC308C054101131604
:0607180013159317080001
:10071E006B21410136084401BF002F218030440176
:10072E00BF002F2144013208BF002F21ED21080008
:10073E0044013208BA003308BB0004224401B70159
:10074E00360837020318D42B3708340784000030DC
:10075E00353D850020300002B900B8010530380261
:10076E000318CF2B3908F0000530F400D5214401D1
:10077E003808F0070030F13D003070078400A030DB
:10078E00713D85000008BF002F214401B80AB52B2A
:0E079E00BF012F214401B70AA72BED2108004F
:1007AC004001F801F9011030FC00710DF80DF90D44
:1007BC007408F8027508031C750FF9020318ED2B69
:1007CC007408F80775080318750FF9070310F00D76
:0807DC00F10DFC0BDB2B080002
:1007E4007B14FB1FFD2BF201FA1FFF30F200F10016
:0A07F400F000FA0DF20CFF300800CF
:1007FE00FB14FB1F092CFF30F300F200F100F00098
:08080E00FA0DF20CFF300800A6
:100816003F304401320541019E00CF2113140000F0
:10082600131C162C132C0C08F0000D08F100080000
:1008360044012818212C40019917232C40019913B3
:100846004401A818292C400119172B2C4001191313
:1008560044012819312C40019916332C4001991274
:100866004401A819392C400119163B2C40011912D4
:100876004401281A412C40019817432C4001981333
:100886004401A81A492C400118174B2C4001181393
:100896004401281B512C40019816532C40019812F4
:1008A60044012918592C400196165B2C40019612DA
:1008B6004401A918612C40019A14632C40019A1036
:1008C60044012919692C400196176B2C4001961397
:1008D6004401A919712C40011617732C40011613F7
:1008E6004401291A792C400118147B2C4001181058
:1008F6004401A91A812C40019814832C40019810B8
:100906004401291B892C400118158B2C4001181114
:1009160044012A18912C40011A10932C40011A14F4
:10092600991541014B084401B20041014C084401AC
:10093600B3009E22400199111A30FD00FD0BA12C37
:100946000000181241014B084401B20041014C0855
:100956004401B3009E224001181641014B08440190
:10096600B20041014C084401B3009E224001991394
:1009760019139912191298131813981296129A109D
:0C09860096131613181098101811080092
:1009920040017008F8007108F000F101F201F30162
:1009A200FB01FC019630F300FA01F01FDE2CF8097E
:1009B200F009F80A0319F00AFA177008F10078082A
:0A09C200F000F801F2014B220800DA
:1009CC007408F8027508031C750FF9027608031CED
:1009DC00760FFA027708031C770FFB02F30D073032
:1009EC00FC00730DF80DF90DFA0DFB0D7408731C5A
:1009FC000D2DF8027508031C750FF9027608031CFF
:100A0C00760FFA027708031C770FFB021A2DF807F2
:100A1C0075080318750FF90776080318760FFA078F
:100A2C0077080318770FFB07F30DFC0BF72C720DEF
:100A3C00F80DF90DFA0DFB0D7408731C332DF8022B
:100A4C007508031C750FF9027608031C760FFA0261
:100A5C007708031C770FFB02402DF8077508031865
:100A6C00750FF90776080318760FFA07770803183D
:100A7C00770FFB07F20D0730FC00720DF80DF90D26
:100A8C00FA0DFB0D7408721C592DF8027508031C25
:100A9C00750FF9027608031C760FFA027708031C0F
:100AAC00770FFB02662DF80775080318750FF90709
:100ABC0076080318760FFA0777080318770FFB07E9
:100ACC00F20DFC0B432D710DF80DF90DFA0DFB0D0C
:100ADC007408721C7F2DF8027508031C750FF9023F
:100AEC007608031C760FFA027708031C770FFB02BB
:100AFC008C2DF80775080318750FF907760803187D
:100B0C00760FFA0777080318770FFB07F10D0730FC
:100B1C00FC00710DF80DF90DFA0DFB0D7408711C2C
:100B2C00A52DF8027508031C750FF9027608031C35
:100B3C00760FFA027708031C770FFB02B22DF80729
:100B4C0075080318750FF90776080318760FFA075E
:100B5C0077080318770FFB07F10DFC0B8F2D700D29
:100B6C00F80DF90DFA0DFB0D7408711CCB2DF80264
:100B7C007508031C750FF9027608031C760FFA0230
:100B8C007708031C770FFB02D82DF807750803189C
:100B9C00750FF90776080318760FFA07770803180C
:100BAC00770FFB07F00D0730FC00700DF80DF90DF9
:100BBC00FA0DFB0D7408701CF12DF8027508031C5E
:100BCC00750FF9027608031C760FFA027708031CDE
:100BDC00770FFB02FE2DF80775080318750FF90740
:100BEC0076080318760FFA0777080318770FFB07B8
:100BFC00F00DFC0BDB2D7018112E7408F80775081E
:100C0C000318750FF90776080318760FFA0777089B
:080C1C000318770FFB07080025
:100C24006B21410136084401BF002F214401BF015B
:100C34002F21AE304401BF002F21D5304401BF0025
:100C44002F2180304401BF002F21A8304401BF0070
:100C54002F213F304401BF002F21D3304401BF0076
:100C64002F21410138084401BF002F2140304401A5
:100C7400BF002F218D304401BF002F2114304401C7
:100C8400BF002F2181304401BF002F21FF304401D8
:100C9400BF002F21D9304401BF002F21F13044017E
:100CA400BF002F2120304401BF002F210230440116
:100CB400BF002F2121304401BF002F214401BF0177
:100CC4002F217F304401BF002F212E304401BF006B
:100CD4002F21410139080319782EA0304401BF00A7
:100CE4002F21C0304401BF002F21802EA1304401A8
:100CF400BF002F21C8304401BF002F21DA30440146
:100D0400BF002F2102304401BF002F21DB304401FA
:100D1400BF002F2140304401BF002F21A4304401E3
:100D2400BF002F21A6304401BF002F21ED217A22DC
:0A0D3400AF304401B2008F23080025
:100D3E004001FB017308031D77080319F52E720895
:100D4E007606FA007708F3077E30031CB22EF30204
:100D5E000318F82EB52EF302031CFB2E7208F800B2
:100D6E007108FC007008FD00F817F6170310F20169
:100D7E00F101F0011830A1007D1CCF2E7408F00790
:100D8E0075080318750FF10776080318760FF2072A
:100D9E00F20CF10CF00CF80CFC0CFD0C0310A10B7A
:100DAE00C32EF21BDF2EF80DF00DF10DF20DF30335
:100DBE007B1B701CF12EF81FF12EF00A0319F10A9D
:100DCE000319F20A031DF12EF20CF10CF00CF30ACA
:100DDE000319F82EFA1FF2130030FD2E01304422B3
:100DEE00FD2E0230FF23FD2E04308D210000080061
:100DFE006B21410136084401BF002F2140304401D0
:100E0E00BF002F214401A9012908033C031C322FE6
:100E1E002908BA007330BB0004224401A801280837
:100E2E000A3C031C302F2908F0000B30F400D521AA
:100E3E0044012808F0070030F13DDE3070078400D1
:100E4E009E30713D85000008BF002F214401A80A85
:0A0E5E00162FA90A0B2FED21080042
:100E68004001FB0173080319702F7208FA00F2178A
:100E78008E30F302F31F732FF309F30A083073025D
:100E8800031C562FF300F10D7208F100F20108302F
:100E98007302031C562FF300F10DF1017308031DB3
:100EA80003105E2F730803195E2F0310F20CF10C68
:100EB800F30B592F7B1B711C682F031C682FF10A39
:100EC8000319F20AF21B7F2FFA1F822FF209F10988
:100ED800F10A0319F20A822FF201F101822F7B1421
:100EE800FB1F852FF201FA1F852FFF30F200F1005A
:100EF800FA0DF20C852F0130FC00872F0030FC0022
:100F0800872FFF30FC00FC0803198B2FF223710890
:080F1800F0007208F10008006E
:100F20007408003A031D9D2F7508003A031D9D2F7C
:100F3000FF30F0007F30F100F52F4001FD01F90195
:100F4000F801710870040319003471087506FA007D
:100F5000FA1BFD09FB01F51FB22FF409F509F40A8C
:100F60000319F50AF11FB92FF009F109F00A031965
:100F7000F10A71087504FA00FA1BCE2F28237B189A
:100F8000E12FFD1F0034F009F109F00A0319F10AFD
:100F9000F809F909F80A0319F90A0034F51FDD2FD9
:100FA000F11BD92F7108F9007008F800F101F00168
:100FB000C12FF101F001F00A0034F109F009FB0A38
:100FC000BE2FF80A0319F90A74087802031DC12F0D
:100FD00075087902031DC12FF901F801F00A031900
:0C0FE000F10AF11FC12F0000FF340800CF
:060FEC00FB15FF300800B8
:1010000080316B218831410136084401BF008031B5
:101010002F21883140304401BF0080312F21883199
:1010200044012808BA002908BB0080310422883115
:101030004401AD012C082D020318B3282D082A07FE
:10104000840000302B3D85000008003A031D2A284B
:10105000AF0133282D082A07840000302B3D85007E
:1010600020300002AF00AE012E08043C031CA7286C
:101070002F08F0000530F4008031D521883144017B
:101080002E08F0070030F13D003070078400A030DA
:10109000713D85000008B0002808023A031979283C
:1010A000B0195428B1135528B117B0195928311364
:1010B0005A28311730195E28B1125F28B11630193D
:1010C0006328311264283116B0186828B1116928D4
:1010D000B115B0186D2831116E28311530187228ED
:1010E000B1107328B11430187728311078283114D2
:1010F000992830197D28B1137E28B117301982281C
:10110000311383283117B0188728B1128828B116F7
:10111000B0188C2831128D28311630189128B11151
:101120009228B11530189628311197283115B11031
:1011300031103108BF0080312F218831440131083E
:10114000BF0080312F2188314401AE0A3428BF010D
:1011500080312F2188314401BF0180312F21883116
:101160004401AD0A1A28280ABA002908BB008031B8
:10117000042288314401AD012C082D0203185D2999
:101180002D082A07840000302B3D85000008003A16
:10119000031DCC28AF01D5282D082A078400003074
:1011A0002B3D850020300002AF00AE012E08043C2C
:1011B000031C51292F08F0000530F4008031D5219F
:1011C000883144012E08F0070030F13D00307007EF
:1011D0008400A030713D85000008B0002808023A64
:1011E00003191B29B01BF628B113F728B117B01B40
:1011F000FB283113FC283117301B0029B1120129BB
:10120000B116301B0529311206293116B01A0A29E8
:10121000B1110B29B115B01A0F293111102931154F
:10122000301A1429B1101529B114301A19293110A6
:101230001A2931144329301B1F29B1132029B11752
:10124000301B2429311325293117B01A2929B1124D
:101250002A29B116B01A2E2931122F293116301A27
:101260003329B1113429B115301A382931113929EE
:101270003115B0193D29B1103E29B114B0194229D8
:101280003110432931143108BF0080312F218831BA
:1012900044013108BF0080312F2188314401AE0A5A
:1012A000D628BF0180312F2188314401BF01803110
:1012B0002F2188314401AD0ABC288031ED218831CD
:0212C000080024
:0812C2008031ED2188310800A4
:1012CA00FB09FA09F909F809F80A0319F90A0319CD
:0812DA00FA0A0319FB0A0800DF
:1012E2004401AC0105302C02031881292C082A077D
:1012F200860000302B3D870020308100AC0A732924
:101302002C082A07860000302B3D87008101AC03A0
:101312002C082A07AD0000302B3DAE000A30F40045
:10132200F5012808F0002908F1008031D623883120
:101332007808F0007908F1003030F00744012D08F8
:1013420086002E088700700881000A30F400F5013B
:101352002808F0002908F1008031D623883170086E
:101362004401A8007108A90000307106031DBB29C1
:1013720000307006031DBE29C029AC03892908006C
:101382004001971180317A22883101304401B20044
:10139200B3013B30B4000030B5001230B6008031EA
:1013A2009F23883103304401B200B3014E30B400B0
:1013B2000030B5000C30B60080319F2388310330F5
:1013C2004401B2005430B3005B30B4000030B500C9
:1013D2000330B60080319F2388317A30FB00C13060
:1013E200FC008130FD00FD0BF429FC0BF429FB0B02
:1013F200F429000000008D1A002A0314012A0310A8
:0C140200031C052A0000FC2997150800B7
:10140E007C183D2AFC180E2A7C19622A072AA10193
:10141E007208031D2E2A7108F2007008F100780878
:10142E00F000F801A1157208031D2E2A7108F200B2
:10143E007008F100F001A11121167208031D2E2A69
:10144E007108F200F101A11572080319502A210842
:10145E00F302031D031C562A0310F21B3D2AF80D3E
:10146E00F00DF10DF20DF30B342A562A7B1B701C76
:10147E005C2AF81F5C2AF00A0319F10A0319F20A12
:10148E00031D5C2AF20CF10CF00CF30A0319622A0C
:10149E005C2A0130FC00803144228831672A0230F8
:1014AE00FC0080318D218831672A0430FC008031A8
:1014BE0089218831672A0830FC008031FF2388316A
:0414CE000000080012
:1014D20043304401B2008031542388310230FC0091
:1014E2000830FD00FD0B732AFC0B732A0000093043
:1014F2004401B20080310B2488310B30F4000030FB
:10150200F5008031FE22883170084301BC00710869
:04151200BD00080010
:1015160043016E08F1006F08F200F135F20D710813
:10152600EE007208EF008030023AF000803072065A
:101536007002031DA02A71084C3C031CA72A7830B0
:10154600EE070130EF3D772B8030033AF000803014
:101556006F067002031DB12A6E08723C031CB82A7E
:101566009030EE070130EF3D772B8030053AF000E2
:1015760080306F067002031DC22A6E08213C031CD0
:10158600C92ADC30EE070130EF3D772B8030073A71
:10159600F00080306F067002031DD32A6E086C3C83
:1015A600031CDA2A0230EE070230EF3D772B80303B
:1015B600093AF00080306F067002031DE42A6E08B7
:1015C6006E3C031CEB2A3830EE070230EF3D772BDA
:1015D60080300A3AF00080306F067002031DF52A4B
:1015E6006E08483C031CFC2A8430EE070230EF3DAF
:1015F600772B80300B3AF00080306F067002031DA7
:10160600062B6E087E3C031C0D2BDC30EE070230E9
:10161600EF3D772B80300C3AF00080306F06700279
:10162600031D172B6E08A03C031C1E2B1030EE0763
:101636000330EF3D772B80300C3AF00080306F0698
:101646007002031D282B6E08FC3C031C2F2BE03078
:10165600EE070330EF3D772B80300E3AF0008030F6
:101666006F067002031D392B6E08883C031C402B45
:10167600E830EE070330EF3D772B8030103AF0006C
:1016860080306F067002031D4A2B6E08F43C031C63
:10169600512B8830EE070430EF3D772B8030123A1D
:1016A600F00080306F067002031D5B2B6E08C83C8D
:1016B600031C622B5030EE070530EF3D772B803050
:1016C600143AF00080306F067002031D6C2B6E0812
:1016D600983C031C732B9030EE070530EF3D772BBB
:1016E6009830EE070530EF3D6E08F0006F08F10008
:0216F6000800EA
:1016F80043304401B2008031542388310230FC0069
:101708000830FD00FD0B862BFC0B862B00000A30F1
:101718004401B20080310B24883170084301EE0087
:101728007108EF007108033A031D9C2BFF30700607
:10173800031DBA2B83304401B20080315423883111
:101748000230FC000830FD00FD0BA82BFC0BA82B79
:1017580000000A304401B20080310B24883170083F
:101768004301EE007108EF00EE35EF0D6F08073A00
:10177800031DC02BFE306E06031D152C6922440183
:10178800B2018031542388310230FC000830FD005A
:10179800FD0BCC2BFC0BCC2B000008304401B20015
:1017A80080310B24883170084401A4007108A50019
:1017B80024084301EE00440125084301EF000030EE
:1017C800F4000430F5003C08F0003D08F1008031D9
:1017D800902788318031C924883170084401A000DD
:1017E8007108A1007208A2007308A3002408F00081
:1017F8002508F1008031C924883144012008F4000B
:101808002108F5002208F6002308F70080319F26FA
:10181800883180313427883170084301EE0071081F
:0C182800EF006E08F0006F08F1000800EF
:101834007408003A031D332C7508003A031D332C39
:101844007608003A031D332C7708003A031D332C25
:10185400FF30F000FF30F1007F30F200FF30F30082
:10186400D52C400177080319C12C73080319C62C21
:10187400720876068039FA00F217F617A101720889
:10188400F8007108FC007008FD007408FD0275087A
:10189400031C750FFC027608031C760FF802F8018E
:1018A400FC01FD01031C5D2C0310F20CF10CF00C87
:1018B400F80C0130A1007708F302031C672C7E307A
:1018C4002107F3070318CB2C6C2C7E302107F30778
:1018D400031CD02C1830FA07FD0DFC0DF80DF00D8B
:1018E400F10DF20DA10D7408F0027508031C750FBB
:1018F400F1027608031C760FF202760DA104211C76
:10190400852C7D14902C7408F00775080318750F46
:10191400F10776080318760AF2077D10FA031F30E0
:101924007A05031D6E2C7B1B7D1CB72C0310F00D58
:10193400F10DF20DA10D7408F0027508031C750F6A
:10194400F1027608031C760FF202760D21040139A8
:10195400FD070318FC0A0319F80A031DB72CF80C39
:10196400FC0CFD0CF30A0319CB2CFA1FF8137808AE
:10197400F2007C08F1007D08F0000030D42C013026
:101984008031F6278831D42C0230803144228831CA
:10199400D42C04308031FF238831D42C083080319A
:0819A4008D21883100000800CC
:1019AC00400172087606A100F801F901730877026C
:1019BC00031CF82C7708FD007308F7007D08F30072
:1019CC007608FD007208F6007D08F2007508FD002F
:1019DC007108F5007D08F1007408FD007008F40032
:1019EC007D08F00077080319752D7208FA00F217BC
:1019FC00F61777087302F70003192B2D08307702BE
:101A0C00031C212DF7007408F9007508F400760802
:101A1C00F500F60108307702031C212DF70074083D
:101A2C00F9007508F400F50108307702031C212D2C
:101A3C007A08F200752D770803192B2D0310F60C7C
:101A4C00F50CF40CF90CF70B242DA11F382DF9090A
:101A5C00F409F509F609F90A0319F40A0319F50A48
:101A6C000319F60A7908F80774080318740FF007BD
:101A7C0075080318750FF10776080318760FF2072F
:101A8C00A11B512D031C612DF20CF10CF00CF80C68
:101A9C00F30F612D6F2D0318652DF809F009F1096D
:101AAC00F209F80A0319F00A0319F10A0319F20AE8
:101ABC008030FA06692D0130FC000722772D0230A8
:101ACC00FC000722772D0430FC0080314B2288313A
:101ADC00772D0830FC008031FF238831772D0030C2
:061AEC00FC0000000800F0
:101AF2007408003A031D922D7508003A031D922DB9
:101B02007608003A031D922D7708003A031D922DA4
:101B1200FF30F000FF30F100FF30F2007F30F300C1
:101B22002C2E4001FC01F71BFC0AFD01FB01FA010E
:101B3200F901F80173087204710470040319272E65
:101B420073087706A000A01BFD09F71FB32DF40947
:101B5200F509F609F709F40A0319F50A0319F60A51
:101B62000319F70AF31FC02DF009F109F209F3096D
:101B7200F00A0319F10A0319F20A0319F30A7308A6
:101B82007704A000A01BE32D8031E6248831FC1BE2
:101B9200002EFD1F272EF009F109F209F309F00AC0
:101BA2000319F10A0319F20A0319F30AF809F909E8
:101BB200FA09FB09F80A0319F90A0319FA0A0319BF
:101BC200FB0A272EF71FFA2DF31BF42D7308FB00D7
:101BD2007208FA007108F9007008F800F301F201C6
:101BE200F101F001CA2DF301F201F101F001F00A55
:101BF2000034F309F209F109F009FC17C52DF80ABE
:101C02000319F90A0319FA0A0319FB0A740878027C
:101C1200031DCA2D75087902031DCA2D76087A02A2
:101C2200031DCA2D77087B02031DCA2DFB01FA0191
:101C3200F901F801F00A0319F10A0319F20A03196A
:101C4200F30AF31FCA2DA0012016FF34A0017C1C49
:081C52002B2E6521003E080065
:101C5A0043304401B2008031542388310230FC0001
:101C6A000830FD00FD0B372EFC0B372E0000083024
:101C7A004401B20080310B24883170084301EE0020
:101C8A007108EF007108033A031D4D2EFF307006EC
:101C9A00031D6B2E83304401B200803154238831F6
:101CAA000230FC000830FD00FD0B592EFC0B592EAA
:101CBA00000008304401B20080310B2488317008DA
:101CCA004301EE007108EF00EE35EF0D6F08073A99
:101CDA00031D712EFE306E06031DCB2E69224401B0
:101CEA00B2018031542388310230FC000830FD00F3
:101CFA00FD0B7D2EFC0B7D2E000008304401B20046
:101D0A0080310B24883170084301EE007108EF001E
:101D1A007108033A031D932EFF307006031D972E98
:101D2A0042016E150030F4000430F50043013C080E
:101D3A00F0003D08F1008031902788318031C924B4
:101D4A00883170084401A0007108A1007208A2003D
:101D5A007308A30043016E08F0006F08F100803198
:101D6A00C924883144012008F4002108F50022081A
:101D7A00F6002308F70080319F2688318031342706
:101D8A00883170084301EE007108EF006E08F00018
:061D9A006F08F1000800D3
:101DA000400116160930FB001E30FC00E430FD0037
:101DB000FD0BD82EFC0BD82EFB0BD82E000061217A
:101DC0006830FC00E430FD00FD0BE42EFC0BE42E3B
:101DD000000080311226883142016E1EF52EC1218D
:101DE00042016E1280317A2288314401A801A90192
:101DF0004F30AA000130AB000930AC000020803128
:101E0000FF26883102304401A800A9014330AA000E
:101E10000130AB000930AC0000204401A8012A3099
:101E2000A9004D30AA000130AB000130AC00002009
:101E300002304401A8002A30A9003530AA00003041
:101E4000AB000130AC0000200F30B7002730B800E5
:101E50000F30B9002730BA000F30B3002730B4007C
:101E60000F30AF002730B000B101B20101304201A4
:101E70003B07EA0000303C3DEB0000303D3DEC000C
:101E800000303E3DED003B08BF003C08C0003D086F
:101E9000C1003E08C2006E136E10EE1140016308CF
:101EA000F0006408F1006508F2006608F300E8300D
:101EB000F4000330F500F601F701803199218831F3
:101EC000700842013B074301A000710842013C3DFC
:101ED0004301A100720842013D3D4301A200730885
:101EE00042013E3D4301A30040015F08F00060084D
:101EF000F1006108F2006208F300E830F4000330FA
:101F0000F500F601F701803199218831700842010E
:101F10003B074301A400710842013C3D4301A50079
:101F2000720842013D3D4301A600730842013E3D57
:061F30004301A7000800B8
:101F36004101ED014201BA014101EE014401A8014E
:0C1F4600A901AA0180311B248831080089
:101F5200003043015706031DB02F00305606031D03
:101F6200BF2F02304401A8003C30A900E730AA008C
:101F72000030AB000430AC000020E32F43015608D0
:101F82004401A000430157084401A100BE30A20051
:101F92000130A30090310020883143014108B40090
:101FA2002E30B5004208B6004308B70002304401A3
:101FB200A8003C30A900B430AA000130AB000430C4
:061FC200AC000020080045
:101FC8004001971116169031B9258831430132081E
:101FD8004001B100430133084001B20097154201A6
:041FE800EE100800EF
:101FEC0012001E00F003031DF62FF103031DF62F44
:021FFC000800DB
:102000004401A401A5012008A6002108A7008030F2
:102010002106F00080307002031D102800302002DD
:1020200003181E280130A4000030A5002008003C41
:10203000A6002108031C013EA701A7022608A8004C
:102040002708A9002208AA002308AB0088317121C3
:10205000903106304301EE000030EF006F08003C85
:10206000031D34286E08003C031855286E084401EF
:102070002207860043016F084401233D8700013099
:1020800043016E02F00000306F3BF1007008440124
:10209000220784007108233D85000008810001307B
:1020A0004301EE020030EF3B2E2844012208860057
:1020B000230887002030810024082504031985287F
:1020C0004301EE01EF016E08440122078400430141
:1020D0006F084401233D85000008203A031D752840
:1020E0004301EE0A0319EF0A632843010130EE02AF
:1020F0000030EF3B6E0844012207860043016F0861
:0C2100004401233D87002D3081000800C1
:10210C004001971188319B27903102304401A8007F
:10211C00A9012030AA000130AB000930AC00883195
:10212C00002090311930FB005A30FC00B130FD001A
:10213C00FD0B9E28FC0B9E28FB0B9E28000000002C
:10214C0002304401A800A9015B30AA000130AB00A9
:10215C000530AC0088310020903102304401A800D9
:10216C002A30A9005930AA000130AB000130AC0074
:10217C0088310020903102304401A8003C30A90085
:10218C006530AA000130AB000430AC00883100206F
:10219C0090310D30FB002D30FC00D730FD00FD0BD5
:1021AC00D528FC0BD528FB0BD52800000000971573
:1021BC0042016E13EE123B08EA003C08EB003D08AE
:1021CC00EC003E08ED003B08BF003C08C0003D0899
:0821DC00C1003E08C20008002A
:1021E40088312D2690317008E6007108E700003030
:1021F400E71BFF30E800E90088317C239031700848
:10220400EA007108EB000030EB1BFF30EC00ED003E
:102214006608EE006708EF0088318B229031803128
:10222400C92490310030F4000030F5002030F6006D
:102234008130F70080319F2690310030F400003067
:10224400F5007A30F6008830F70088311A2490318E
:10225400F430F400FD30F5003430F6007F30F70040
:1022640088311A2490317008F4007108F50072085E
:10227400F6007308F70080319F2690310030F40097
:102284000030F5002030F6008130F70088311A2440
:1022940090310030F4000030F5000030F6007E305C
:1022A400F7008831D624903180313427903170087A
:1022B4004301B0007108B1008030F2008030710633
:1022C4007202031D67297008003C0318BB294001F2
:1022D400161EB8296308F0006408F1006508F200CE
:1022E4006608F300E830F4000330F500F601F70166
:1022F400803199219031700842013B074301A000CD
:10230400710842013C3D4301A100720842013D3D78
:102314004301A200730842013E3D4301A300400172
:102324005F08F0006008F1006108F2006208F30041
:10233400E830F4000330F500F601F701803199210B
:102344009031700842013B074301A4007108420127
:102354003C3D4301A500720842013D3D4301A600F6
:10236400730842013E3D4301A700BB298831D026B2
:10237400903180306D06F000803069067002031DD4
:10238400CD2968086C02031DCD2967086B02031D63
:10239400CD2966086A02031CD629E730E60003301B
:1023A400E700E801E901202A6A086607F0006B08E3
:1023B400673DF1006C08683DF2006D08693DF3006B
:1023C4006430F400F501F601F70180319921903170
:1023D40043016608F4006708F5006808F600690818
:1023E400F7006A08F4026B08F53B6C08F63B6D08CD
:1023F400F73B88317925903170084301E600710874
:10240400E7007208E8007308E9008030F4008030C7
:1024140073067402031D182A7208003C031D182A4F
:102424007108033C031D182A7008E73C0318202A8E
:10243400E730E6000330E700E801E9016608B2008E
:062444006708B300080068
:10244A00003043016706031D2C2A00306606031D6F
:10245A003C2A4401A8013C30A9006130AA0001309D
:10246A00AB000330AC00883100209031A32A8030C1
:10247A0043016706F00080307002031D462A0A30C5
:10248A00660203185C2A66084401A0004301670833
:10249A004401A100BE30A2000130A3000020303068
:1024AA004301B4002E30B5004308B600962A8030A6
:1024BA006706F00080307002031D652A64306602E8
:1024CA0003187B2A66084401A000430167084401F7
:1024DA00A100BE30A2000130A3000020430142083F
:1024EA00B4002E30B5004308B600962A05306607B8
:1024FA00F0000030673DF1007008E6007108E7005F
:10250A0070084401A0007108A100BE30A200013089
:10251A00A300002020304301B4004108B50042085E
:10252A00B6004401A8013C30A900B430AA00013029
:0E253A00AB000330AC00883100209031080067
:10254800F220C830A800A901AA01AB0180303106E9
:10255800F100803040016C067102031DB62A6B0839
:1025680043013002013003180030F100803040018F
:102578006806F0008030430131067002031DC72A47
:10258800300840016702013003180030F00071087C
:10259800F0040319002B42016E1FD72A862043013D
:1025A800B201B301002B4201EE1DDE2A4301B20144
:1025B800B301002BF2203008E6003108E70025229D
:1025C80043012B08003C031DF32A2A08003C031D85
:1025D800F32A2908003C031DF32A2808003C0318A5
:1025E800FC2A0130A8020030A93BAA3BAB3BFF2ADA
:0A25F800B201B301002BAA2A08006B
:1026020003304301E5004201BA0141016D08440172
:10261200A800A90141016E084401AA0080311B24CF
:102622009031A4221430F4000030F5004301320846
:10263200F0003308F1008031902790317008430197
:102642003207E3007108333DE4006508E2006208E6
:102652001F3C031C862B41016D084401A800430165
:1026620062084401A90041016E084401AA008031B8
:102672001B249031A422803043013306F0008030C5
:1026820064067002031D472B630832020318842B71
:102692001430F4000030F5003208F0003308F10085
:1026A200803190279031700843013207E3007108AE
:1026B200333DE40062084201BA004301650841016A
:1026C200EF00803043013306F00080307002031DBA
:1026D2006C2B7830320203186F2B862B6508620749
:1026E200F1007108E2007108093A031D7B2B0830E2
:1026F200E200832B6208113A031D832B1030E200A3
:102702000430E500852B862B282B41016D084401FE
:10271200A80042013A084401A90041016E0844019F
:0A272200AA0080311B24903108004A
:10272C0041016C084301DC0041016C086D07F100AC
:10273C0071084301DE0071081F3C0318A72B1F30E2
:10274C00DE0041016D0843015C020318B32B5C08E9
:10275C0041016D024301DF00B42BDF015F08410131
:10276C00ED0043015F084401A80042013A0844010E
:10277C00A90041016E084401AA0080311B2490314C
:10278C00A422003043013306031DCE2B0030320649
:10279C00031DD12B552C3208E0003308E1005F0AF1
:1027AC00DD005D085E02031C462C5D084401A80098
:1027BC0042013A084401A90041016E084401AA00F3
:1027CC0080311B249031A422003043013306031DB9
:1027DC00F12B00303206031DF42B552C80303306C0
:1027EC00F000803061067002031DFE2B600832027F
:1027FC00031C0A2C6830FC00E430FD00FD0B042C9B
:10280C00FC0B042C0000A422803043013306F000A2
:10281C00803061067002031D152C60083202031C07
:10282C00212C6830FC00E430FD00FD0B1B2CFC0B54
:10283C001B2C0000A422803043013306F0008030B2
:10284C0061067002031D2C2C600832020318432C05
:10285C003208E0003308E1005D084101ED008030F2
:10286C0043013306F00080307002031D3F2C78309A
:10287C0032020318422C462C442C462CDD0AD72B52
:10288C0041016D084401A80042013A084401A90025
:10289C0041016E084401AA0080311B2490310800CC
:1028AC0003304301E100DD0161084101EC0003301C
:1028BC004301DE001430F4000030F5003208F00063
:1028CC003308F100803190279031700843013207B2
:1028DC00DF007108333DE0006108DC005C081F3C40
:1028EC00031CD72C5C084401A80042013A0844019F
:1028FC00A90041016E084401AA0080311B249031CB
:10290C000123A422803043013306F000803060069E
:10291C007002031D932C5F0832020318D52C14305F
:10292C00F4000030F5003208F0003308F10080317B
:10293C0090279031700843013207DF007108333D56
:10294C00E0005C084101ED0042013A084301DD0062
:10295C0061084101EC006F084301DE008030330652
:10296C00F00080307002031DBD2C78303202031849
:10297C00C02CD72C61085C07F1007108DC007108D1
:10298C00093A031DCC2C0830DC00D42C5C08113A1D
:10299C00031DD42C1030DC000430E100D62CD72CD5
:1029AC00742C5D084201BA0041016D084401A80075
:1029BC0043015D084401A90041016E084401AA00CD
:1029CC0080311B24903143015E084101EF006830D7
:1029DC00FC00E430FD00FD0BF12CFC0BF12C000095
:0229EC000800E1
:1029EE0041016F084301DC0041016F0842013A07C3
:1029FE00F10071084301DE0071081F3C0318092D18
:102A0E001F30DE0042013A0843015C020318152D07
:102A1E005C0842013A024301DF00162DDF015F0818
:102A2E004201BA0041016D084401A80043015F084C
:102A3E004401A90041016E084401AA0080311B2403
:102A4E009031A422003043013306031D302D003097
:102A5E003206031D332DB82D3208E0003308E10095
:102A6E005F0ADD005D085E02031CA92D41016D08A1
:102A7E004401A80043015D084401A90041016E080C
:102A8E004401AA0080311B249031A422003043015E
:102A9E003306031D542D00303206031D572DB82D5D
:102AAE0080303306F000803061067002031D612D08
:102ABE0060083202031C6D2D6830FC00E430FD000E
:102ACE00FD0B672DFC0B672D0000A4228030430107
:102ADE003306F000803061067002031D782D600809
:102AEE003202031C842D6830FC00E430FD00FD0B27
:102AFE007E2DFC0B7E2D0000A42280304301330678
:102B0E00F000803061067002031D8F2D60083202C6
:102B1E000318A62D3208E0003308E1005D084201DB
:102B2E00BA00803043013306F00080307002031D7E
:102B3E00A22D783032020318A52DA92DA72DA92D6F
:102B4E00DD0A392D41016D084401A80042013A0801
:102B5E004401A90041016E084401AA0080311B24E2
:042B6E00903108009A
:102B72006400400119110530FB000F30FC00F130F8
:102B8200FD00FD0BC22DFC0BC22DFB0BC22DA4229E
:102B9200803043013306F00080307002031DD32DD4
:102BA2006E3032020318D82D40011915782F883162
:102BB2009B2790310330FB000830FC007730FD008A
:102BC200FD0BE12DFC0BE12DFB0BE12DA42280304E
:102BD20043013306F00080307002031DF22D6E3087
:102BE20032020318F72D40011915782F43013208DC
:102BF200D6003308D7005624003043013306031DA4
:102C0200042E00303206031D0B2E88319B27903193
:102C12001915782FA422803043013306F00080304A
:102C22007002031D162E7830320203181B2E40014B
:102C32001915782F9623003043013306031D232EE6
:102C420000303206031D2A2E88319B279031191538
:102C5200782FA422803043013306F00080307002C6
:102C6200031D352E7830320203183A2E4001191511
:102C7200782FF724003043013306031D422E003023
:102C82003206031D492E88319B2790311915782F62
:102C9200A422803043013306F00080307002031D0D
:102CA200542E783032020318592E40011915782F0C
:102CB200803043013306F10080307102031D632E20
:102CC200C8303202013003180030F1008030330680
:102CD200F000803057067002031D712E5608320232
:102CE200013003180030F00070087105F30032085B
:102CF2005602F1003308573BF2008030F00080307A
:102D020072067002031D872E7108643C013003189D
:102D12000030F0007308F0050319922E40011915D6
:102D2200782F43013208D6003308D70041016D08DD
:102D32004301D800D90142013A084301DA00DB011C
:102D420041016E08013A031DA82EEE01AA2E0130A0
:102D5200EE0088319B27903141016D084401A800A3
:102D620042013A084401A90041016E084401AA0047
:102D720080311B2490310330FB000830FC00773097
:102D8200FD00FD0BC22EFC0BC22EFB0BC22EA42299
:102D9200803043013306F00080307002031DD32ED1
:102DA200783032020318D82E40011915782F562494
:102DB200003043013306031DE02E00303206031DAE
:102DC200E72E88319B2790311915782FA422803065
:102DD20043013306F00080307002031DF22E78307A
:102DE20032020318F72E40011915782F962300306E
:102DF20043013306031DFF2E00303206031D062F4A
:102E020088319B2790311915782FA42280304301F5
:102E12003306F00080307002031D112F7830320229
:102E22000318162F40011915782FF724003043019B
:102E32003306031D1E2F00303206031D252F883155
:102E42009B2790311915782FA42280304301330635
:102E5200F00080307002031D302F783032020318E8
:102E6200352F40011915782F803043015706F000A5
:102E7200803033067002031D402F320856020318B9
:102E8200752F41016E08013A031D492FEE014B2FA8
:102E92000130EE006D084401A80042013A084401E5
:102EA200A90041016E084401AA0080311B2490311F
:102EB200430158084101ED0043015A084201BA009A
:102EC200430158084401A80043015A084401A900DB
:102ED20041016E084401AA0080311B249031430154
:102EE2005608B2005708B3006400400119150800E3
:102EF2004001971102304401A800A901BA30AA008A
:102F02000030AB000930AC00883100209031B92587
:102F1200430132084001B100430133084001B200CD
:102F220002304401A800A901C430AA000030AB005D
:102F32000430AC0088310020903102304401A800F6
:102F42002A30A900C930AA000030AB000130AC0021
:102F520088310020903143013208D6003308D7006F
:102F62008831A9279031971542016E10EE103B0867
:102F7200EA003C08EB003D08EC003E08ED003B088F
:102F8200BF003C08C0003D08C1003E08C200080066
:102F92004201EE11B601B701B801B90180317A22BE
:102FA200903101304401A800A9012A30AA00013061
:102FB200AB000B30AC008831002090315230FB0066
:102FC2002B30FC000030FD00FD0BE52FFC0BE52F44
:0E2FD200FB0BE52F00009831822190310800A2
:1030000080316B219831410136084401BF00803185
:103010002F21983140304401BF0080312F21983159
:103020000A30F4000030F50043014D08F0004E086E
:10303000F10080319027983170084301CD0071086C
:10304000CE0080307106F2008030013A7202031D1A
:103050002B282C307002031832282C30CD00013080
:10306000CE0042288030013AF00080304E067002D7
:10307000031D3C284D08A43C03184228A430CD0071
:103080000130CE002C304D02F30001304E3BF400F5
:103090007308CD007408CE000530F2007308F0000C
:1030A0007408F100720803195928F035F10DFF3E3C
:1030B00053287008CD007108CE007830F40000303D
:1030C000F50080319027983170084301D000193005
:1030D0007002031C752818305002D1000830D2004D
:1030E0000830D3000830D400932811305002031C5C
:1030F0008228D10110305002D2000830D3000830AD
:10310000D400932809305002031C8E28D101D2012B
:1031100008305002D3000830D4009328D101D201E6
:10312000D3015008D4008030D50001305102F000A6
:10313000F1010030F13B7008F1005508F000710812
:103140000319A528F036FF3EA0287008FF3CD500E3
:10315000D50A0330D5044401BA017730BB00803171
:1031600004229831430155084401BF0080312F21CA
:103170009831430155084401BF0080312F21983117
:10318000430155084401BF0080312F2198311F3081
:103190004301D5044401BA017530BB0080310422DB
:1031A0009831430155084401BF0080312F219831E7
:1031B000430155084401BF0080312F21983144015B
:1031C000BA017A30BB00803104229831430155089E
:1031D0004401BF0080312F2198314301550844013B
:1031E000BF0080312F21983180304301D50001305C
:1031F0005202F000F1010030F13B7008F100550877
:10320000F000710803190729F036FF3E0229700803
:10321000FF3CD500D50A01304401BA007530BB002F
:103220008031042298314301CF014F08063C031C32
:10323000222955084401BF0080312F2198314301D4
:10324000CF0A15298030D50001305302F000F1017A
:103250000030F13B7008F1005508F00071080319C7
:103260003429F036FF3E2F297008FF3CD500D50ADF
:1032700002304401BA007530BB008031042298311D
:103280004301CF014F08063C031C4F295508440158
:10329000BF0080312F2198314301CF0A422980306D
:1032A000D50001305402F000F1010030F13B70080C
:1032B000F1005508F000710803196129F036FF3E4E
:1032C0005C297008FF3CD500D50AC030D504033016
:1032D0004401BA007530BB008031042298314301AB
:1032E000CF014F08063C031C7E2955084401BF004E
:1032F00080312F2198314301CF0A71298031ED218E
:0433000098310800F8
:103304008B1340019E134E018C1216167E01CA12B5
:10331400C91640011612171697151A104F01961761
:103324004301CD014D08003A031DA7290530FB00D8
:103334000F30FC00F130FD00FD0B9E29FC0B9E2993
:10334400FB0B9E297E01CA12630000000530FB00BE
:103354000F30FC00F130FD00FD0BAE29FC0BAE2953
:10336400FB0BAE2940018D1AB9290314BA290310A5
:10337400031CBF294301CD0AC1294301CD014D08D6
:103384000F3C0318C629C72994294F0196134E01EF
:1033940016127E01C912CA1240019E178B174201F0
:1033A4006E168831D026983140018D1ADB2903141A
:1033B400DC290310031CE0290000D62942016E1306
:0833C4006E10EE11EE1008007E
:1033CC006430410165024301C70000304101663B96
:1033DC004301C8000330FB000830FC007730FD00CF
:1033EC00FD0BF629FC0BF629FB0BF6295830C60011
:1033FC00C901CA01E730CB000330CC004201EF0118
:10340C004301460842016F0203182F2A9031F22023
:10341C00983180304A06F000803031067002031D6E
:10342C00192A300849020318232A3008C900310828
:10343C00CA003208CB003308CC000B30FC006230E1
:10344C00FD00FD0B272AFC0B272A00004201EF0A86
:10345C00062A8030F000803043014A067002031DBA
:10346C00392A4908003C03188D2A4001161E8A2A65
:10347C006308F0006408F1006508F2006608F300C8
:10348C00E830F4000330F500F601F70180319921A2
:10349C009831700842013B074301A00071084201BA
:1034AC003C3D4301A100720842013D3D4301A20095
:1034BC00730842013E3D4301A30040015F08F00048
:1034CC006008F1006108F2006208F300E830F400D3
:1034DC000330F500F601F70180319921983170081D
:1034EC0042013B074301A400710842013C3D4301EA
:1034FC00A500720842013D3D4301A600730842013C
:10350C003E3D4301A7008D2A8831D02698314A08C8
:10351C0040013406031D952A33084301490603195B
:10352C00C52A42016E1DA82A4401A8012A30A9000F
:10353C00E330AA000030AB000130AC008831002031
:10354C009831B52A4401A8012A30A900CD30AA002F
:10355C000030AB000130AC008831002098314301C1
:10356C0049084001B30043014A084001B40043013B
:10357C004908E6004A08E70090312522983180304E
:10358C0043014A06F00080307002031DCF2A0A3036
:10359C0049020318D32ACB01CC0142016E1D482BE2
:1035AC0003304301C6004608003A0319152B0230BC
:1035BC004401A8000630A900CF30AA000030AB00AF
:1035CC000930AC008831002098311530FB004B30AD
:1035DC00FC00BE30FD00FD0BF12AFC0BF12AFB0BAD
:1035EC00F12A000002304401A800A901D930AA0038
:1035FC000030AB000930AC00883100209831153018
:10360C00FB004B30FC00BE30FD00FD0B0B2BFC0B0C
:10361C000B2BFB0B0B2B00004301C603D92A0230EA
:10362C004401A800A901AC30AA000030AB0009305D
:10363C00AC0088310020983102304401A8002A30B7
:10364C00A9006930AA000030AB000130AC00883111
:10365C000020983143014B08D6004C08D700883124
:10366C00A92798311530FB004B30FC00BE30FD0013
:10367C00FD0B3E2BFC0B3E2BFB0B3E2B00004201AB
:10368C006E11352C8030F000803043014A067002F8
:10369C00031D522B49080A3C03181E2C8030400194
:1036AC006C06F100803043014A067102031D612B48
:1036BC00490840016B02013003180030F1008030E2
:1036CC0043014A06F0008030400168067002031D79
:1036DC00722B670843014902013003180030F000D7
:1036EC007108F0050319FA2B430180304C06F500E4
:1036FC008030410166067502031D872B6508430166
:10370C004B020130031C0030F500803040013A06BA
:10371C00F300803043014C067302031D982B4B08B9
:10372C00400139024001013003180030F300390820
:10373C0043014B02F10040013A0843014C3BF200BB
:10374C0080304806F000803072067002031DB02BEA
:10375C0071084702013003180030F000700873053F
:10376C00F40080304C06F300803040013A067302BE
:10377C00031DC32B390843014B02430101300318CD
:10378C000030F3004B0840013902F10043014C08B2
:10379C0040013A3BF200803043014806F000803093
:1037AC0072067002031DDC2B7108470201300318EE
:1037BC000030F0007308F00570087404F10040014B
:1037CC003A08033A031DEC2BE73039060130031D90
:1037DC000030F0007108F0047508F0050319FA2B9D
:1037EC00903179279831352C43014C0840013A0629
:1037FC00031D032C390843014B0603191D2C4301EF
:10380C004B084001B90043014C084001BA00430188
:10381C004B08D6004C08D7008831A92798314301B2
:10382C004B084001B10043014C084001B200352C5B
:10383C00400132083006031D252C2F0831060319D0
:10384C00352C3108AF003208B00031084301D600E6
:10385C00400132084301D7008831A927983108006C
:10386C007E01B801C3014314C3144315CE01E40116
:10387C00D90153019013941340018C018D018E01D9
:10388C008F01900196019701103098000630990035
:10389C009A019101273092009301940195017E01C8
:1038AC003A15BA15DB145B1540019F121F179F13B5
:1038BC001E16C0309C00E0309D004E018C12400161
:1038CC009E174E0196161E304F019600FE30970043
:1038DC00473098007F30990077309A00DF309B009A
:1038EC008B170530FB000F30FC00F130FD00FD0B99
:0C38FC007D2CFC0B7D2CFB0B7D2C0800B0
:103908008831692298313D0840013806031D8F2C03
:10391800370843013C0603199F2C43013C0840012A
:10392800B70043013D084001B80043013C08CD0001
:103938003D08CE00002080300E3AF0008030430170
:103948003D067002031DAA2C3C08743C0318BE2CCB
:103958004001971117160230FB003830FC00AD30DB
:10396800FD00FD0BB52CFC0BB52CFB0BB52C9715EE
:103978001716EE2C80300E3AF000803043013D06D9
:103988007002031DC92C3C08063C0318DD2C4001BD
:10399800971117120230FB003830FC00AD30FD00E3
:1039A800FD0BD42CFC0BD42CFB0BD42C9715171621
:1039B800EE2C4001171297150230FB003830FC003E
:1039C800AD30FD00FD0BE62CFC0BE62CFB0BE62CCA
:1039D80017169715803043013D06F00080300D3AE8
:1039E8007002031DF92C48303C0203181A2D80314F
:1039F8007A22983101304401A800A901A030AA0018
:103A08000030AB000B30AC008831002098315230C8
:103A1800FB002B30FC000030FD00FD0B112DFC0BD2
:0E3A2800112DFB0B112D00001612822108003B
:103A36000B304301AC000430AD003230AE00023032
:103A4600AF0041019301940195019601EC309A056E
:083A5600131613159317080065
:103A5E002C27362440011716191542016E1688318F
:103A6E00D02698311B2542016E116E136E10EE1189
:103A7E00EE12EE1040016308F0006408F1006508D4
:103A8E00F2006608F300E830F4000330F500F601AA
:103A9E00F701803199219831700842013B074301AB
:103AAE00A000710842013C3D4301A1007208420191
:103ABE003D3D4301A200730842013E3D4301A30078
:103ACE0040015F08F0006008F1006108F200620832
:103ADE00F300E830F4000330F500F601F701803111
:103AEE0099219831700842013B074301A4007108E7
:103AFE0042013C3D4301A500720842013D3D430198
:103B0E00A600730842013E3D4301A70042016D0825
:103B1E003E02031D9C2D6C083D02031D9C2D6B085F
:103B2E003C02031D9C2D6A083B02031CA62DB830D7
:103B3E00EA070B30EB3D0030EC3DED3D84244201B5
:103B4E0042083E02031DB52D41083D02031DB52D51
:103B5E0040083C02031DB52D3F083B02031CBF2D40
:103B6E002C30BF070130C03D0030C13DC23DE621C3
:103B7E004301230842013E02031DD52D43012208B5
:103B8E0042013D02031DD52D4301210842013C0295
:103B9E00031DD52D4301200842013B02031CD92DE4
:103BAE00400116124301270842013E02031DEF2D6C
:103BBE004301260842013D02031DEF2D4301250856
:103BCE0042013C02031DEF2D4301240842013B023A
:103BDE00031CF22D82216E1FFE2D4001161EFB2DA1
:103BEE00903186209831FE2D8831D02698314201B1
:103BFE006E1C0B2E4001161E082E9031792798311F
:103C0E000B2E8831D02698314201EE1D182E400120
:103C1E00161E152E9031C9279831182E8831D026B0
:103C2E0098314201EE1E242E4001161A212E8831A3
:103C3E00D0269831903186209831EE1C332E4001DB
:103C4E00161A302E8831E42798318831D0269831D3
:0C3C5E00332E9031792798318D2D342EB3
:103E5800383084009E3085003830F0000130F100A1
:103E68002F308600003087008831F6279831F030EF
:103E78008400973085000C30F0000130F100A0304C
:103E88008600003087008831F62798312A30840070
:103E98009F3085000230F0000130F1006730860065
:103EA800003087008831F6279831163084009F301B
:103EB80085000A30F0000130F100AC308600003097
:103EC80087008831F6279831F930840087308500DB
:103ED8000730F0000130F1006930860000308700BB
:103EE8008831F6279831A83084009E308500363016
:103EF800F0000130F100B6308600003087008831CC
:103F0800F6279831203084009F3085000A30F00071
:103F18000130F10020308600013087008831F62713
:103F2800983103308400803085000130F000013082
:103F3800F100EC308600003087008831F627983190
:103F48000A3084009F3085000C30F0000130F10009
:103F58002A308600013087008831F6279831FC30F6
:103F68008400973085000330F0000130F100ED3017
:103F78008600003087008831F62798317030840039
:103F88009E3085003830F0000130F1003630860070
:0C3F9800013087008831F62798310800BE
:020006000034C4
:040FF2003D34003456
:040FF6000A34003485
:020FFA000034C1
:020FFC000034BF
:020FFE000234BB
:102FE000203420344C344F3457342034423441346C
:082FF000543454342034003441
:022FF8000034A3
:022FFA000034A1
:022FFC0000349F
:043C70000F342734B2
:043C740000340034E4
:043C78000F342734AA
:043C7C003D3400349F
:043C800000340034D8
:043C84000F3427349E
:103C88002034443445345334493447344E3445346D
:103C9800443420344234593420344E343734443494
:063CA800443443340034F3
:103CAE002034463457342034563445345234533449
:0A3CBE0049344F344E3420340034F2
:083CC80031342E343234003493
:083CD00008340734003400340D
:083CD8002C34013400340034E7
:083CE00000340034003400340C
:023CE8000034A6
:083CEA00003400340034003402
:083CF2000034003400340034FA
:103CFA00533457345234203420342034203420347E
:043D0A00203400342D
:043D0E003D3400340C
:103D12005034573452342034203420342034203468
:043D220057340034DE
:043D26003D340034F4
:0C3D2A0053345734523420342034003419
:083D360030342E343034003427
:0A3D3E0030342E34303430340034B9
:083D48000034003400340034A3
:043D5000783400348F
:023D54004034F9
:023D5600013436
:103D5800543455344E3445342034203420342034FF
:043D680020340034CF
:0A3D6C00533457345234203400342D
:043D76003D340034A4
:043D7A0007340034D6
:043D7E003D3400349C
:103D82004F345634453452344C344F344134443435
:043D920020340034A5
:103D9600203420342034203420342034203420347D
:043DA6002034003491
:043DAA003E3400346F
:043DAE008234003427
:0A3DB20030342E3430343034003445
:103DBC00F834F8341F341F340334033403341F3401
:103DCC001F34F834F834FF34FF340034003400343A
:103DDC000034003400340034FF34FF34FF34FF343B
:103DEC000034003400340034003400340034FF3428
:103DFC00FF34FF34FF34C034C034C034C034C0345A
:083E0C00C034C034FF34FF3460
:103E1400203450344F3457344534523420344F34E2
:083E240046344634203400341A
:103E2C00533457345234203420342034203420344A
:043E3C0020340034FA
:103E400052344534533445345434203420342034EF
:043E500020340034E6
:043E5400963400346C
:1040000000340034003400340034003400345F34B1
:1040100000340034003407340034073400341434DE
:104020007F3414347F34143424342A347F342A34D3
:10403000123423341334083464346234363449344B
:104040005534223450340034053403340034003401
:1040500000341C34223441340034003441342234DE
:104060001C34003408342A341C342A34083408340C
:1040700008343E34083408340034503430340034CA
:104080000034083408340834083408340034303438
:104090003034003400342034103408340434023412
:1040A0003E345134493445343E34003442347F3454
:1040B000403400344234613451344934463421347C
:1040C000413445344B3431341834143412347F3491
:1040D0001034273445344534453439343C344A347B
:1040E00049344934303401347134093405340334EB
:1040F0003634493449344934363406344934493441
:1041000029341E340034363436340034003400345C
:104110005634363400340034003408341434223435
:1041200041341434143414341434143441342234E7
:104130001434083400340234013451340934063460
:1041400032344934793441343E347E3411341134BC
:1041500011347E347F3449344934493436343E3462
:1041600041344134413422347F34413441342234A7
:104170001C347F3449344934493441347F34093460
:104180000934013401343E34413441345134323441
:104190007F340834083408347F34003441347F34A9
:1041A000413400342034403441343F3401347F34CE
:1041B00008341434223441347F34403440344034A1
:1041C00040347F340234043402347F347F34043486
:1041D000083410347F343E344134413441343E3469
:1041E0007F3409340934093406343E3441345134BF
:1041F00021345E347F34093419342934463446344A
:104200004934493449343134013401347F34013480
:1042100001343F344034403440343F341F34203480
:10422000403420341F347F342034183420347F3419
:104230006334143408341434633403340434783469
:104240000434033461345134493445344334003444
:1042500000347F344134413402340434083410349F
:104260002034413441347F34003400340434023487
:104270000134023404344034403440344034403457
:1042800000340134023404340034203454345434BF
:10429000543478347F3448344434443438343834F3
:1042A000443444344434203438344434443448347A
:1042B0007F343834543454345434183408347E340D
:1042C00009340134023408341434543454343C3442
:1042D0007F340834043404347834003444347D3476
:1042E000403400342034403444343D34003400340D
:1042F0007F34103428344434003441347F34403423
:1043000000347C3404341834043478347C34083475
:104310000434043478343834443444344434383441
:104320007C341434143414340834083414341434FD
:1043300018347C347C34083404340434083448346D
:10434000543454345434203404343F3444344034EA
:1043500020343C344034403420347C341C34203409
:10436000403420341C343C344034303440343C3409
:10437000443428341034283444340C345034503409
:1043800050343C344434643454344C344434003475
:104390000834363441340034003400347F3400347F
:1043A00000340034413436340834003408340834DE
:1043B0002A341C34083408341C342A3408340834B1
:020000040001F9
:0A000E000429213E1F3F03300300C8
:00000001FF
